:020000040800F2
:100000000818022079020008712800081D21000844
:100010006D280008DD0F00084740000800000000C0
:10002000000000000000000000000000C101000806
:10003000D91D00080000000015020008B9350008AD
:100040009D0200089D0200089D0200089D02000814
:100050009D0200089D0200089D0200089D02000804
:100060009D0200089D0200089D0200089D020008F4
:10007000391A00089D0200089D0200089D02000830
:100080009D0200089D0200089D0200089D020008D4
:10009000E10F00089D0200089D020008071E0008ED
:1000A0009D0200089D0200089D0200089D020008B4
:1000B0009D020008313600089D0200089D020008DC
:1000C0009D0200089D0200089D0200089D02000894
:1000D0009D020008093B00089D020008ED3B000856
:1000E0009D0200089D0200089D0200089D02000874
:1000F0009D0200089D0200089D0200089D02000864
:100100009D0200089D0200089D0200089D02000853
:100110009D0200089D0200089D0200089D02000843
:100120009D0200089D0200089D0200089D02000833
:100130009D0200089D0200089D0200089D02000823
:100140009D020008751100089D0200089D0200082C
:100150006D1A00089D0200089D0200089D0200081B
:100160009D0200089D0200089D0200089D020008F3
:100170009D0200089D0200089D020008000000008A
:100180009D0200089D0200089D020008393A0008FF
:100190009D0200089D0200089D0200089D020008C3
:1001A00000000000000000009D020008DFF80CD0F5
:1001B00000F062FB00480047277100080818022081
:1001C0002A4B19680868B0E8F04F80F30988BFF33C
:1001D0006F8F4FF0000080F311887047000000001F
:1001E00006480068006880F3088862B661B6BFF30D
:1001F0004F8FBFF36F8F00DF00BF00BF08ED00E03F
:10020000DFF80C00016841F470010160704700BF25
:1002100088ED00E0EFF30980BFF36F8F134B1A688E
:100220001EF0100F08BF20ED108A20E9F04F10607B
:1002300008B44FF0500080F31188BFF34F8FBFF325
:100240006F8F08F05DFF4FF0000080F3118808BC4D
:1002500019680868B0E8F04F1EF0100F08BFB0EC46
:10026000108A80F30988BFF36F8F70472400002045
:10027000EFF30580704700000948016841F4700100
:1002800001600848804708480047FEE7FEE7FEE7B0
:10029000FEE7FEE7FEE7FEE7FEE7FEE7FEE700001B
:1002A00088ED00E0C9350008AD0100089FED1A1A7D
:1002B000F5EE000A40EE010ABDEEE00AF5EEC00AD6
:1002C00010EE100AF1EE10FA38BF401E00EE100AD0
:1002D0001349F7EE001AB8EEC00A30EEC00ADFED9F
:1002E0000F0A20EE200AFCEEC00A10EE900AC0F3BE
:1002F000080000EE900A01EB8000F8EE600A90ED35
:10030000011A70EE600A90ED000A71EEE01A21EE1B
:10031000800A00EE810A704783F9223E0000004403
:10032000DCA20008DFED1D0AB5EEC00A60EE200A6F
:10033000BDEEE01A11EE100AF1EE10FA38BF401EC1
:1003400000EE100AB8EEC00A30EEC00ADFED140A63
:1003500020EE200AB4EEE00AF1EE10FAA8BF30EE6B
:10036000600AFCEEC00A0F49F7EE001A10EE900A80
:10037000C0F3080000EE900A01EB8000F8EE600A7E
:1003800090ED011A70EE600A90ED000A71EEE01A2D
:1003900021EE800A00EE810A7047000083F9223EB8
:1003A00000000044DCA2000840EA01039B0703D0E0
:1003B00009E008C9121F08C0042AFAD203E011F8A4
:1003C000013B00F8013B521EF9D27047D2B201E066
:1003D00000F8012B491EFBD270470022F6E710B54A
:1003E00013460A4604461946FFF7F0FF204610BDA3
:1003F000421C10F8011B0029FBD1801A70472DE91F
:10040000FE4F804681EA0300C00F0C46009021F0A9
:10041000004123F00045B8EB0200A94105D2404657
:10042000214690461C460B46024623F000401043EE
:1004300047D0270DC7F30A00C3F30A510290401AB0
:10044000019040286BDAC3F3130040F4801B00983E
:10045000924620B10023D2EB030A63EB0B0B019809
:100460005946C0F14002504600F041F906460D469B
:1004700050465946019A00F059F910EB08006141C5
:10048000002487EA115284EAE7731A4340D0009AA5
:1004900062B3019A012A4FEA075215DC001B61EB97
:1004A00002014FF0004202EA0752CDE90042001C6F
:1004B00041F5801132462B4600F090F903B0BDE8BB
:1004C000F08F40462146F9E7001B61EB0201001C5A
:1004D00041F5801300185B412018A2F5001747EB87
:1004E000030140EAD570B6196D4111E06D084FEA7D
:1004F000360645EAC0754FEA0752001B61EB020160
:10050000001C41F5801149084FEA300000195141A3
:1005100032462B4603B0BDE8F04F00F050B90098CA
:10052000012240000023D0EB020263EBE07300984D
:1005300021464FEAE074B8EB000061EB0401E9E703
:1005400083F000435BE781F0004158E72DE9FE4F5F
:1005500081EA030404F0004421F0004100944FF0CC
:10056000000B23F0004350EA01045ED052EA03047A
:100570005BD0C3F30A54C1F30A552C44A4F2F334FC
:100580000194A0FB0254C1F3130141F48011C3F3A1
:10059000130343F4801301FB024400FB034E840A5F
:1005A000970A44EA815447EA8357A4FB07680295F7
:1005B0008D0A05FB07854FEA932C04FB0C54270595
:1005C000029D4FEA065847EA1637B5EB08056EEB71
:1005D000070C870E920E47EA811742EA8312A7FBA7
:1005E0000201B6EB0B0164EB00042B0D43EA0C3364
:1005F0005E1844EB1C50DA465146E7FB0201C5F396
:1006000013044FEA0B3343EA14534FEA0432019CBC
:1006100043EA0603A4F10C040294009CCDE900B463
:1006200000F0DCF803B0BDE8F08F00200146F9E7E8
:100630000EB5C10F80EAE0700844CA07002140F2FD
:1006400033438DE80E000A460B4600F0C7F803B0AE
:1006500000BD70B5C1F30A5201F000450024C1F39A
:10066000130140F2FF3341F480119A4201DA002075
:1006700070BD40F233439A42A2F2334203DC52424D
:1006800000F044F800E090402C43F1D0404270BDAF
:1006900000F0004230F000400AD0C10D01F5607159
:1006A000C0F3160042EA0151C208400711437047E7
:1006B00000200146704701F0004330B421F00041B2
:1006C00050EA010206D00A0DA2F56072C1F31301CF
:1006D000002A02DC30BC00207047440F44EAC10409
:1006E000C100E01830BC00EBC25000F031B8202A45
:1006F00004DB203A00FA02F1002070479140C2F179
:10070000200320FA03F3194390407047202A04DBAA
:10071000203A21FA02F00021704721FA02F3D0407A
:10072000C2F120029140084319467047202A06DB97
:10073000CB17203A41FA02F043EAE07306E041FAAF
:1007400002F3D040C2F1200291400843194670479D
:100750000029A8BF7047401C490008BF20F00100D5
:10076000704710B4B0FA80FC00FA0CF050EA0104B3
:1007700004BF10BC704749B1CCF1200421FA04F445
:1007800011FA0CF118BF012121430843A3EB0C011E
:10079000CB1D4FEA00614FEA102042BF002010BC81
:1007A000704700EBC35010440029A4BF10BC704731
:1007B000401C490008BF20F0010010BC704710B574
:1007C000141E73F1000408DA401C41F10001921874
:1007D0005B411A4301D120F0010010BD2DE9F04D1D
:1007E00092469B4611B1B1FA81F202E0B0FA80F272
:1007F00020329046FFF77BFF04460F4640EA0A008E
:1008000041EA0B0153465A46084313D0114653EAB6
:10081000010019D0C8F140025046FFF777FF0546A6
:100820000E46504659464246FFF761FF084305D041
:10083000012004E020463946BDE8F08D0020054344
:1008400046EAE0762C4337430A986305E40AA0EBB6
:1008500008000022FD0A44EA47540A3002D500206D
:100860000146E9E7010510196941DDE9084500196C
:100870006941BDE8F04DA2E7064C074D06E0E0688F
:1008800040F0010394E8070098471034AC42F6D3D7
:10089000FFF790FCE0AA000800AB000870B58C18C8
:1008A00010F8015B15F0070301D110F8013B2A1184
:1008B00006D110F8012B03E010F8016B01F8016B71
:1008C0005B1EF9D12B0705D40023521E0DD401F86D
:1008D000013BFAE710F8013BCB1A921C03E013F836
:1008E000015B01F8015B521EF9D5A142D8D300206B
:1008F00070BDCA430260704721B1826842F00102B4
:10090000826003E0826822F001028260704700008A
:100910000021084A1168084A1140D0E900231A430F
:1009200083681A43C3681A431143044AC2F8041384
:100930007047000004230140E030FCFF002001402C
:100940000146C86C80B270470246002013680B4015
:100950000BB1012000E000207047000030B50246D6
:10096000002000235068104C20400D790C6844EAA8
:1009700005242043506090680C4C2040D1E903547A
:100980002C438D682C434D7944EA45042043906004
:10099000D06A20F470000C7D641EE4B2234340EA68
:1009A0000350D06230BD0000FFFEFFFCFDF7FFC02A
:1009B000F0B504460D4600200021092D11DDE06848
:1009C000A5F10A0606EB4607072606FA07F1884353
:1009D000A5F10A0606EB460603FA06F10843E060B5
:1009E0000CE0206905EB4507072606FA07F1884366
:1009F00005EB450603FA06F108432061072A0FDAE2
:100A0000606B561E06EB86071F2606FA07F1884321
:100A1000561E06EB860605FA06F10843606322E0DF
:100A20000D2A0FDA206BD61F06EB86071F2606FA63
:100A300007F18843D61F06EB860605FA06F1084340
:100A4000206310E0E06AA2F10D0606EB86071F2680
:100A500006FA07F18843A2F10D0606EB860605FAB1
:100A600006F10843E062F0BD816841F08041816099
:100A70007047000038B10849096841F40001074A8D
:100A8000C2F8041306E00449096821F40001034A8E
:100A9000C2F8041370470000042301400020014005
:100AA00010B52DED028BB0EE408AB0EE480A03F08F
:100AB0000FFCBDEC028B10BD10B52DED028BB0EE1E
:100AC000408AF0EE608AF0EE680AB0EE480A03F061
:100AD00095FCBDEC028B10BD10B52DED028BB0EE78
:100AE000408AB0EE480AFFF7E1FBBDEC028B10BD77
:100AF000F0EE400AF5EEC00AF1EE10FA02DDB0EEBB
:100B0000600A7047B1EE600AFBE7000018B19FED84
:100B1000020A80ED000A70470000000018B19FED46
:100B2000020A80ED000A7047DF8FB44170B52DEDE9
:100B30000C8B84B006460C4615469FED990AF0EEE4
:100B4000408A9FED970AB0EE409A9FED950AF0EE2D
:100B500040BA9FED930AF0EE409A9FED910AB0EEF5
:100B600040AA0EB104B11DB904B0BDEC0C8B70BD30
:100B70008C48FFF7CBFF8C48FFF7D0FF8A48D0EDB9
:100B8000000A9FED8A1A60EE810AB0EE600A00F05A
:100B900039F9F0EE408A28EEA80AF0EE408A824841
:100BA000D0ED000AB0EE001A60EE810A9FED7F1AC8
:100BB00060EE810AB0EE600A00F024F9B0EE409ACF
:100BC00029EE090AB0EE409ADFED790AB7EE000A85
:100BD00000EEA80ADFED770A00EEC90ADFED760A1B
:100BE00020EE200A754880ED000A6E4890ED000A5C
:100BF000DFED730A80EE201AB7EE000A31EE000A2C
:100C000020EE000A6D48D0ED000A80EE801A6D4893
:100C100080ED001A94ED000AB5EEC00AF1EE10FA6C
:100C20000DD194ED010AB5EEC00AF1EE10FA06D12D
:100C300094ED020AB5EEC00AF1EE10FA46D09FED2F
:100C4000580AB0EE408A0020019002900390D4ED43
:100C5000000A60EEA00A94ED011AD4ED011A41EEEB
:100C6000210A94ED021AD4ED021A41EE210AB0EEE7
:100C7000600A00F0A9F8B0EE408A94ED000A20EE78
:100C8000080A8DED010A94ED010A20EE080A8DEDA7
:100C9000020A94ED020A20EE080A8DED030ADDED4A
:100CA000010AF1EE600AB0EE600AFFF7F9FEF0EE1D
:100CB000409A9DED031AF0EE410A9DED021AB0EE46
:100CC000410AFFF7F9FEB0EE40AA07E09FED340AB3
:100CD000F0EE409A9FED320AB0EE40AA95ED000A80
:100CE000B5EEC00AF1EE10FA0DD195ED010AB5EEA0
:100CF000C00AF1EE10FA06D195ED020AB5EEC00A6F
:100D0000F1EE10FA3CD0B0EE690A00F07BF8B0EEDC
:100D1000408AB0EE690AFFF7DFFEB0EE40DAB0EECF
:100D20004A0A00F06FF8F0EE40AAB0EE4A0AFFF768
:100D3000D3FEB0EE40BA28EE2A0AD5ED010A20EE25
:100D4000200AD5ED000A0DEE200A68EE0B0A95ED9B
:100D5000021A00EE810AB0EE40CA95ED010A20EEBB
:100D60000B0AD5ED020A0AEEE00AF0EE40CAF0EEF8
:100D70006C0AB0EE4C0AFFF79FFEF0EE40BA03E0BB
:100D80009FED070AF0EE40BAB0EE4A1AF0EE690A9B
:100D9000B0EE6B0A304603F033FE00BFE4E600001D
:100DA00000000000A4020020A802002035FA8E3CBA
:100DB000C1BFAD3B9DF8C5362F7C1C41AC02002065
:100DC000506CC24AB0020020F0EE400AF6EE001A63
:100DD00060EEA11AB0EE611AB0EE600A10EE100AD1
:100DE0000749A1EB600000EE100A21EE002AF7EEA1
:100DF000081A42EE401A61EE801AB0EE610A70479E
:100E0000DF59375F10B52DED028BB0EE408AB0EEA2
:100E1000480AFFF787FABDEC028B10BD2DE9F041BF
:100E20002DED028B9AB00546B0EE408A0E4617466D
:100E300098460020179018901990149015901690CD
:100E40004DB146B13FB1B8F1000F04D0B5EEC08A44
:100E5000F1EE10FA05D100201AB0BDEC028BBDE80E
:100E6000F08196ED000A8DED170A96ED010A8DEDE1
:100E7000180A96ED020A8DED190A97ED000A8DED1C
:100E8000140A97ED010A8DED150A97ED020A8DED12
:100E9000160A17AA14A9284603F004FC402104A846
:100EA000FFF79BFA0020009001900290039000242D
:100EB00017A904A807F058FD00BF30E004A800EB14
:100EC000041090ED000AD5ED000A20EE200A04A8D7
:100ED00000EB0410D0ED010A95ED011A00EE810A35
:100EE00004A800EB0410D0ED020A95ED021A00EE02
:100EF000810A04A800EB0410D0ED030A95ED031A53
:100F000000EE810A20EE080AF0EE000A80EE201AB8
:100F1000684600EB840080ED001A601CC4B2042C0B
:100F2000CCDB002410E005EB840090ED000A68465D
:100F300000EB8400D0ED000A30EE200A05EB8400BF
:100F400080ED000A601CC4B2042CECDB284607F0DC
:100F500015F9012080E700000EB54FF4407001F054
:100F6000C5FC4FF47A7004F0A7FE06F06FF807F0A6
:100F700097FC5A2147F2305003F040FE07F0D8F9B1
:100F8000002005231A460121009000F06BF8002094
:100F900005231A460121009000F02EF906F084FA8C
:100FA00002F052FE01F00EFC02F052FD4FF4E1306F
:100FB00001F0ACFB0C201C21054A4FF02063CDE969
:100FC00000210290034A0449081F01F04BFB0EBDAB
:100FD000C0120220286002400478004000BFFEE7F3
:100FE00010B50221084800F0EFFA58B10221064876
:100FF00000F08CF9054A0021034800F008FC034882
:1010000000F006F810BD0000006400400807022050
:1010100010B504462068A0F2012005281AD2DFE8A6
:1010200000F003040506140000BF00BF00BF2078D5
:10103000401E09490870097801EBC101074A02EB1B
:101040008100214604F074FF04E02146044804F0C6
:10105000BBFF00BF00BF10BDBE000020780702200C
:10106000300702202DE9F0418AB004460D461646AD
:101070001F46DDF840800121082001F091FE01218A
:10108000480601F09DFE0121480601F0A9FE00215D
:101090004FF0007001F0A4FE0320089002208DF8AC
:1010A000240000208DF8260003208DF82500012063
:1010B0008DF8270008A92D4800F066FF09220021BD
:1010C0002A4800F0A9FF09220121284800F0A4FFC6
:1010D00000208DF81A0001208DF81B0000208DF8EB
:1010E0001C008DF81D008DF81E008DF81F008DF876
:1010F00016808DF817408DF818608DF81950ADF8EE
:10110000147005A91A4800F0F8FA00208DF80E00B6
:101110008DF80F0001208DF810000020ADF80400BC
:10112000ADF80600ADF80800ADF80A00ADF80C0007
:1011300001208DF8110001A800F03CF901220221E4
:101140000B4800F0D1FA14208DF8000004208DF82F
:10115000010000208DF8020001208DF80300684690
:1011600001F088FB00200AB0BDE8F081000C0240CD
:101170000064004010B51021084800F025FA58B16D
:101180001021064800F0C2F8054A0121034800F08A
:101190003EFB034800F006F810BD00000068004068
:1011A0001C07022010B504462068A0F2012050B1AF
:1011B00001280DD0022811D0052814D121460B4852
:1011C00004F002FF10E02146094804F0FDFE0BE0A8
:1011D00021460748243804F0F7FE05E0214605487B
:1011E00004F0F2FE00E000BF00BF10BD5407022073
:1011F0002C080220500802202DE9F0418AB0044654
:101200000D4616461F46DDF840800121022001F000
:10121000C7FD0121880601F0D3FD0121880601F0F8
:10122000DFFD00214FF0806001F0DAFD4FF4405007
:10123000089002208DF8240000208DF8260003205D
:101240008DF8250001208DF8270008A92D4800F011
:101250009BFE09220C212B4800F0DEFE09220D2105
:10126000284800F0D9FE00208DF81A0001208DF8E2
:101270001B0000208DF81C008DF81D008DF81E004D
:101280008DF81F008DF816808DF817408DF81860C6
:101290008DF81950ADF8147005A91B4800F02DFA0F
:1012A0000E208DF80E0000208DF80F0001208DF823
:1012B00010000020ADF80400ADF80600ADF80800FD
:1012C000ADF80A000120ADF80C008DF8110001A85E
:1012D00000F070F8012210210B4800F005FA4120BF
:1012E0008DF8000004208DF8010000208DF8020028
:1012F00001208DF80300684601F0BCFA00200AB016
:10130000BDE8F0810004024000680040B1F5007FB4
:101310003AD00FDC202928D006DC01291CD0042972
:101320001DD0082940D11DE0402921D0B1F5807F92
:101330003AD126E0B1F5004F31D006DCB1F5806F2F
:1013400025D0B1F5006F2FD124E0B1F5803F12D048
:10135000B1F5003F28D111E0154A826025E008224E
:10136000C26022E01022C2601FE0082202611CE07D
:101370001022026119E00822426016E01022426049
:1013800013E00422426010E0042242600DE00422D7
:1013900042600AE0002282610422426005E00022ED
:1013A00082610422426000E000BF00BF704700007D
:1013B0000101010010B50021837A012202FA03F134
:1013C0003D4A126842F001023B4B1A603A4A1C3215
:1013D00012688A43384B1C331A60027BCAB9364AFA
:1013E0000C3212688A43344B0C331A604288C3882B
:1013F00042EA0343304A4032847A42F83430028869
:10140000838842EA03432C4A4032847A02EBC402C6
:101410005360027B012A19D1274A0C3212680A4311
:10142000254B0C331A604288038842EA0343224A60
:101430004032847A42F83430C288838842EA0343D7
:101440001D4A4032847A02EBC4025360C27A3AB930
:10145000194A121D12688A43174B1B1D1A6006E0B9
:10146000154A121D12680A43134B1B1D1A6002898C
:1014700032B9114A143212688A430F4B14331A607E
:101480000289012A06D10C4A143212680A430A4B17
:1014900014331A60427B012A06D1074A1C321268B3
:1014A0000A43054B1C331A60034A126822F00102FA
:1014B000014B1A6010BD00000066004070B5044684
:1014C0000D4604F2DA2000EE100AB8EEC00A3B48DE
:1014D00080ED020A05F6345000EE100AB8EEC00A9C
:1014E000374880ED020A354890ED021AF0EE410AC5
:1014F0000068008801EE100AB8EE411AB0EE410A09
:101500009FED301A00212D485C3001F0F1FA2B4894
:1015100080ED030A90ED031AF0EE410A0068B0F97D
:10152000020001EE100AB8EEC11AB0EE410A2348DB
:10153000143001F0E5F9BDEEC00A10EE100A00B259
:101540001E49A1F8C4011E4890ED021AF0EE410AAE
:101550000068008801EE100AB8EE411AB0EE410AA8
:101560009FED181A002116485C3001F0C1FA1448AA
:1015700080ED030A90ED031AF0EE410A0068B0F91D
:10158000020001EE100AB8EEC11AB0EE410A0C4892
:10159000143001F0B5F9BDEEC00A10EE100A00B229
:1015A0000749A1F8C401054AB2F9C411044AB2F9C5
:1015B000C40100231A4603F0C5FB70BD3C0A02209B
:1015C0007408022000F8FF4570B504460D46002659
:1015D00060692840002871D0B5F5807F5CD010DCB0
:1015E000082D35D006DC012D20D0022D24D0042D6D
:1015F00072D127E0102D31D0202D35D0402D6BD168
:1016000038E0B5F5004F60D009DCB5F5007F49D072
:10161000B5F5806F4CD0B5F5006F5DD14FE0B5F5F5
:10162000803F2DD0B5F5003F56D12FE0A0682D4961
:1016300000F0F8F9064651E0E068032100F0F2F905
:1016400006464BE0E068082100F0ECF9064645E06C
:10165000E068102100F0E6F906463FE0206903212A
:1016600000F0E0F9064639E02069082100F0DAF9D7
:10167000064633E02069102100F0D4F906462DE03B
:101680006068082100F0CEF9064627E06068102166
:1016900000F0C8F9064621E0A069012100F0C2F976
:1016A00006461BE0A069022100F0BCF9064615E0E1
:1016B000A069042100F0B6F906460FE00FE0A0692A
:1016C000702100F0AFF9064608E06068042100F0E0
:1016D000A9F9064602E0FFE7002600BF00E0002669
:1016E000304670BD010101001AB143690B434361EB
:1016F00002E043698B434361704730B502460020E6
:101700000023146824F002041460146844F00104F7
:10171000146000E05B1C546804F001041CB94FF62F
:10172000FF74A342F6D1546804F001040CB9002000
:101730006CE08C79012C04D1146844F080041460AE
:1017400003E0146824F080041460CC79012C04D1E7
:10175000146844F04004146003E0146824F040046A
:1017600014600C7A012C04D1146844F02004146035
:1017700003E0146824F0200414604C7A012C04D196
:10178000146844F01004146003E0146824F010049A
:1017900014608C7A012C04D1146844F0080414609D
:1017A00003E0146824F008041460CC7A012C04D1FE
:1017B000146844F00404146003E0146824F0040482
:1017C00014608C78A407CD7844EA05640D7944EA66
:1017D00005444D7944EA05540D886D1E2C43D461AF
:1017E000146824F001041460002300E05B1C5468BA
:1017F00004F001041CB14FF6FF74A342F6D1546803
:1018000004F001040CB1002000E0012030BD10B54F
:1018100000F5D87303EB01131B6803F00403137284
:10182000137A53B900F5D87303EB01131B6840F228
:10183000FF7404EA5353136009E000F5D87303EB17
:1018400001131B686FF0604404EAD303536000F592
:10185000D87303EB01131B6803F00203537200F506
:10186000D87303EB01135B6803F00F03937200F569
:10187000D87303EB01135B681B0AD37400F5D873AC
:1018800003EB01139B68D37200F5D87303EB0113CC
:101890009B681C0A147300F5D87303EB01139B6853
:1018A0001C0C547300F5D87303EB01139B681B0EDB
:1018B000937300F5D87303EB0113DB68D37300F562
:1018C000D87303EB0113DB681C0A147400F5D8739A
:1018D00003EB0113DB681C0C547400F5D87303EBA5
:1018E0000113DB681B0E937421B9C36843F0200316
:1018F000C36003E0036943F02003036110BD10B52A
:1019000002460020936803F08063B3F1806F00D13A
:1019100010E0936803F00063B3F1006F01D1012080
:1019200008E0936803F08053B3F1805F01D1022097
:1019300000E00420042874D002F5C07303EB001308
:101940001B6803F0010402F5C07303EB00131C6075
:101950000B7A7BB94B7A0C8843EA445302F5C07486
:1019600004EB00142468234302F5C07404EB001454
:10197000236010E00B7A4C6843EAC4034C7A23439B
:1019800002F5C07404EB00142468234302F5C0740C
:1019900004EB001423608B7A03F00F038B7202F5C3
:1019A000C07303EB00135B6823F00F0402F5C073F0
:1019B00003EB00135C6002F5C07303EB00135B687C
:1019C0008C7A234302F5C07404EB001463608B7BB4
:1019D0001C064B7B44EA03440B7B44EA0323CC7A8A
:1019E000234302F5C07404EB0014A3608B7C1C0637
:1019F0004B7C44EA03440B7C44EA0323CC7B234323
:101A000002F5C07404EB0014E36002F5C07303EB4D
:101A100000131B6843F0010402F5C07303EB0013CD
:101A20001C6010BD0246002002EA01030BB1012038
:101A300000E000207047000010B50949094800F097
:101A40005DF958B10649074800F03CF80021054807
:101A500000F06CF80449034800F04EF810BD000097
:101A600000080010286002400088001010B51049DE
:101A7000104800F043F9C8B10D490E4800F022F8B3
:101A800005F076FB07F0C4FF01280FD00A490B4888
:101A9000006807F0BFF90848006838B14FF080507F
:101AA00007490860BFF34F8FBFF36F8F10BD000071
:101AB0000008002088640240A002002024020020C8
:101AC00004ED00E00246094B9A4201D2084801E0C9
:101AD0000648103801F000531BB1064B0B40C360A1
:101AE00002E0044B0B40836070470000106402402A
:101AF000006002407D0F7D0F0246094B9A4201D2E1
:101B0000084801E00648103801F000531BB1064BAD
:101B10000B40C36002E0044B0B4083607047000041
:101B200010640240006002407D0F7D0F21B1026809
:101B300042F00102026003E0026822F0010202604A
:101B400070470000016821F001010160002101607F
:101B500041608160C1600161212141614A4988423F
:101B600004D13D21484A103A91608CE04649183131
:101B7000884205D14FF47461434A103A916082E083
:101B800041493031884205D14FF474113E4A103A30
:101B9000916078E03C494831884205D14FF074614A
:101BA000394A103A91606EE037496031884204D179
:101BB0003649354A103AD16065E033497831884278
:101BC00004D13349304A103AD1605CE02E4990315B
:101BD000884204D12F492C4A103AD16053E02A4957
:101BE000A831884205D14FF03D51274A103AD160C3
:101BF00049E02949884204D13D21274A083A116029
:101C000041E025491831884205D14FF47461224AD8
:101C1000083A116037E020493031884205D14FF44D
:101C200074111D4A083A11602DE01B494831884261
:101C300005D14FF07461184A083A116023E0164943
:101C40006031884204D11149134A121F11601AE011
:101C500011497831884204D10D490F4A121F116091
:101C600011E00D499031884204D10A490A4A121FF5
:101C7000116008E00849A831884204D14FF03D5175
:101C8000054A121F11607047106002403D0000209D
:101C9000400F002000003D201064024021B1026886
:101CA00042F48022026003E0026822F48022026093
:101CB000704722B1036843F40023036003E0036824
:101CC00023F40023036001617047014600200A6885
:101CD00002F001020AB1012000E000207047014635
:101CE000486880B27047014600200A6802F400226A
:101CF0000AB1012000E000207047000030B5034623
:101D00000A46002000240B4DAB4201D20A4901E0F3
:101D10000849103902F000550DB14C6800E00C681C
:101D2000064D2C4004EA02050DB1012000E0002020
:101D300030BD000010640240006002407D0F7D0F46
:101D400010B501F080034BB122B1436943F0800329
:101D5000436103E0436923F08003436180290BD092
:101D60002AB1036801F01E042343036004E0036802
:101D700001F01E04A343036010BD000010B5002253
:101D80000268134B1A40CC680B6823434C69234309
:101D90008C692343CC6923430C6A23434C6A234355
:101DA0008C6A23434C6B23438C6B23431A4302609E
:101DB000426922F00702D1E90B3423431A434261FE
:101DC0000B6943604B6883608B68C36010BD000083
:101DD0003F801CF041607047704770B504460D4667
:101DE00000212046FFF7A2FE00BF2046FFF76DFF4F
:101DF0000028FAD129462046FFF7ECFF01212046B2
:101E0000FFF794FE70BD10B54FF4807000F012F82B
:101E100040B14FF4807000F007F805F0B1F91720D9
:101E200001F00EFA10BD0000014908607047000083
:101E3000143C014001460020034A12680A400AB1DE
:101E4000012000E000207047143C0140002123499C
:101E50008279002A3AD00A46126803689A430B46F0
:101E60001A600A1D126803689A430B1D1A600279F2
:101E700011440A6803681A430A60184A0832126853
:101E800003689A43154B08331A601A1D12680368D9
:101E90009A43124B0C331A604279102A0ED11A1F42
:101EA000126803681A430D4B08331A601A1D126832
:101EB00003681A43094B0C331A600DE00749427955
:101EC00011440A6803681A430A6005E00279114464
:101ED0000A6803689A430A6070470000003C0140AA
:101EE00008B58DED000A009901700099090A41704A
:101EF0000099090C81700099090EC17008BD00009D
:101F000000B585B00121022000F04AFF01218803BD
:101F100000F076FF0821012001F08AFA4FF480706A
:101F2000009000208DF8040001208DF806000020AC
:101F30008DF8070003208DF805006946114800F070
:101F400023F84FF48070029000208DF80C000820D8
:101F50008DF80D0001208DF80E0002A8FFF776FF26
:101F600017208DF8100005208DF8110000208DF845
:101F7000120001208DF8130004A800F07BFC05B0CE
:101F800000BD000000040240F0B50A460021002315
:101F9000002400BF3DE0012505FA01F3156805EABC
:101FA00003049C4234D105684F000326BE40B5436C
:101FB000056015794E00B540066835430560157912
:101FC000012D02D01579022D16D185684F00032608
:101FD000BE40B543856055794E00B54086683543AF
:101FE0008560456801268E40B54345604568967911
:101FF0008E40B6B235434560C5684F000326BE40EB
:10200000B543C560D5794E00B540C6683543C56057
:10201000491C1029BFD3F0BDF0B5002300244D07A3
:10202000ED0E02FA05F3CE1000F1200555F826500A
:102030004E07F70E0F26BE40B543CF1000F1200625
:1020400046F82750CE1000F1200555F8265045EAF5
:102050000304CE1000F1200545F82640F0BD418371
:10206000704701837047000030B5034613B94FF63F
:10207000FF7030BD09E013F8014B82EA0400C0B2E2
:10208000054D35F8100080EA2222081EA1F1010159
:10209000F1D11046EDE7000096A0000830B50346E8
:1020A00005E013F8010B80EA02040448025D081EF3
:1020B000A1F10101F5D1104630BD0000959F000847
:1020C000B0EE001AC0EE010A90ED001AD1ED001A30
:1020D00031EE611AF4EEC10AF1EE10FA06D2D1ED3A
:1020E000000A70EE800AC1ED000A16E0F0EE000A68
:1020F00080EE201AF1EE410A90ED001AD1ED001A9F
:1021000031EE611AF4EEC10AF1EE10FA05DDD1EDFF
:10211000000A70EEC00AC1ED000A704700BFFEE77A
:10212000F0B50546059C00207FE093ED050A00EB25
:102130004006404F07EB8606D6ED000A20EE200A47
:10214000D3ED060A00EB400607EB860696ED011A72
:1021500000EE810AD3ED070A00EB400607EB860686
:1021600096ED021A00EE810A334E06EB8006D6ED9C
:10217000000A30EE200A05EB800686ED000A93ED9A
:10218000010A00EB40062D4F07EB8606D6ED000A4C
:1021900020EE200AD3ED020A00EB400607EB86068C
:1021A00096ED011A00EE810AD3ED030A00EB40061A
:1021B00007EB860696ED021A00EE810A204E06EB2A
:1021C0008006D6ED000A30EE200A01EB800686ED8F
:1021D000000A94ED010A00EB40061A4F07EB860651
:1021E000D6ED000A20EE200AD4ED020A00EB4006EC
:1021F00007EB860696ED011A00EE810AD4ED030A7C
:1022000000EB400607EB860696ED021A00EE810A07
:102210000D4E06EB8006D6ED000A30EE200A02EBEA
:10222000800686ED000A461CF0B20328FFF67DAF5B
:10223000F0BD00002C0200202813022050020020D4
:1022400034130220740200205013022010B52DED2B
:10225000028BB0EE408A2748007838B303F024FFA1
:1022600000EE100AB8EEC00AF0EE408AF0EE680AFE
:10227000B0EE480A204800F043FB1F4890ED080AE2
:10228000B5EEC00AF1EE10FA03D29FED1C0A80ED04
:10229000080A194890ED080ABCEEC00A10EE100AB0
:1022A00084B22146164801F080FB20E003F0FCFEDA
:1022B00000EE100AB8EEC00AB4EEC80AF1EE10FA49
:1022C00010D210480078401C0E490870084600786B
:1022D000C82807DD0120074908709FED0B0A064852
:1022E00080ED0A0A41F28731054801F05EFBBDEC42
:1022F000028B10BD980200209C13022000000000F9
:10230000000400409C02002000401C4508B5072046
:1023100006F0D2FC00BF04F069FF0028FBD100BF2B
:1023200004F04CFC0028FBD105F0A6F8044607F0A9
:102330001DFBA5490860FFF7E3FD1722A349A44848
:1023400000F0B8FF01221146A24801F03BF801223B
:102350000221A04801F036F80021102000F058FFBB
:1023600031E100BF4FF0FF31012006F0C3FA012830
:10237000F8D199499548401C04F0A6FF9749934825
:10238000103004F063FC9548934B954A95490090B2
:102390009548FFF7C5FE9048007800F0010000283E
:1023A00046D092480078E8BB012141F2883001F024
:1023B00057F9DFED8F0A9FED8F0A8F4A01218F4871
:1023C00000F0BEFC864A87498D48FEF7AFFB8D4B77
:1023D0001A1F111F8A4803F037FD824890ED000A4A
:1023E000894880ED000A894880ED000A884880ED20
:1023F000000A7C4890ED010A834880ED010A834879
:1024000080ED010A824880ED010A764890ED020ACB
:102410007D4880ED020A7D4880ED020A7C4880ED0F
:10242000020A00E005E071480078401C6F4908701E
:10243000BAE0764890ED000A754880ED000A7248CF
:1024400090ED000A714880ED000A90ED000A714895
:10245000D0ED000A20EE200A6D48D0ED000A6D484C
:1024600090ED011A00EE810A5E48D0ED000A69483D
:1024700090ED021A00EE810A634880ED000A63487D
:1024800090ED010A624880ED010A5F4890ED010A73
:102490005E4880ED010A90ED010A5E48D0ED000A29
:1024A00020EE200A5A48D0ED010A5A4890ED011A50
:1024B00000EE810A4B48D0ED010A564890ED021A11
:1024C00000EE810A504880ED010A504890ED020A62
:1024D0004F4880ED020A4C4890ED020A4B4880EDCF
:1024E000020A90ED020A4B48D0ED000A20EE200AC5
:1024F0004748D0ED020A474890ED011A00EE810AE4
:102500003848D0ED020A434890ED021A00EE810AE5
:102510003D4880ED020A324B024633499FED3E0AA8
:102520003748FEF77BFC374B1A1F111F344803F066
:102530008BFC3A480088B8B9394890ED000A394810
:1025400080ED000A364890ED010A364880ED010A18
:10255000334890ED020A334880ED020A2F48008884
:10256000401C2E4908801FE02C480088B0F5FA7FF7
:102570000EDA0021084602F0A5FB2B48007898B13E
:1025800015480278254B1849264804F0E3F90BE07A
:1025900022480088B0F5FA7F06D102F08BFB1F4875
:1025A0000088401C1D4908800B48D0ED040AB0EE9D
:1025B000600AFFF74BFE002006F028FA1B4908606E
:1025C000012006F079FBCCE624020020E412022070
:1025D000A0A2000800500140FC120220401302207B
:1025E00074130220681302205C1302209902002059
:1025F0000080894500A08C45B8A200089C130220E9
:102600008C13022088130220FC130220F0130220F6
:10261000E4130220C4A200086F12833A9A02002039
:102620001C130220281302209802002028020020F8
:1026300010B5094801F002FD084908700846007805
:1026400004F0BCF930B106484078552802D104485E
:1026500002F08CFA10BD0000007C0040BD0000209C
:10266000BC0602202DE9F04790B007460C461546FF
:102670001E46DDE9199ADDF860802846FFF762FA08
:1026800000BF2846FFF721FB0028FAD100960194ED
:10269000CDF8088040200390CDF8109000200590E0
:1026A0004FF48060069000200790089009904FF446
:1026B00080300A9000200B9003200C9000200D9099
:1026C0000E9069462846FFF759FB0AF0FF008DF887
:1026D0003C0004208DF83D0000208DF83E000120D4
:1026E0008DF83F000FA800F0C5F801228021384680
:1026F00001F069FB00212846FFF718FA012210219A
:102700002846FFF71DFB10B0BDE8F08710B588B074
:1027100004460121102000F043FB0121880700F04E
:102720004FFB0121480500F03BFB0822072123480D
:10273000FFF772FC082211462048FFF76DFC4FF4AA
:10274000C070059002208DF8180000208DF81A0046
:1027500001208DF81B0002208DF8190005A91748EB
:10276000FFF712FC01940020ADF80800ADF80A0054
:10277000ADF80C00ADF810000C20ADF80E0001A96A
:102780000F4801F0F1FB01210D4801F010FB01227F
:1027900040F224410A4801F0C1FB52208DF81C0090
:1027A00002208DF81D0000208DF81E0001208DF8FC
:1027B0001F0007A800F05EF808B010BD001002402E
:1027C0000078004000B58BB00121082000F0F8FA35
:1027D0000121080200F0E4FA022200212148FFF75B
:1027E0001BFC0120099002208DF8280003208DF8A1
:1027F000290000208DF82A0001208DF82B0009A95E
:102800001848FFF7C1FB6020ADF804000120ADF8C7
:1028100006000020ADF8100001A9134801F07AF875
:102820000821114801F0B2F801210F4800F086FF9D
:1028300001210D4800F091FF42F22730ADF8180059
:102840000020ADF81A00C82007900020ADF8200045
:1028500006A9054801F0AEF80121034800F089FF00
:102860000BB000BD00200240000C004000BFFEE79E
:102870007047000070B5002100230F22C4781CB3FC
:10288000174C246804F4E064C4F5E064C4F3072141
:10289000C1F10404E3B20A4144789C40E1B2847877
:1028A000144021430C07210E0E4C05786155047825
:1028B00004F01F050124AC4005786D11AD0005F151
:1028C000E025C5F8004109E0047804F01F05012463
:1028D000AC40054D0678761145F8264070BD0000E5
:1028E0000CED00E000E400E080E100E0024901437B
:1028F000024A1160704700000000FA050CED00E08C
:10290000B0EE401A10B99FED790A704790ED100AA9
:1029100080ED110A90ED0F0A80ED100AC0ED060A55
:1029200080ED071A30EEC10A80ED0F0A0178002908
:1029300075D190ED010AD0ED0F1A20EE210A80ED3D
:10294000090A90ED0A0AD0ED021A90ED0F2A01EE65
:10295000820A80ED0A0A90ED0D0A80ED0E0A90EDD4
:102960000C0A80ED0D0A90ED0F0AD0ED101A30EE32
:10297000610A80ED0C0A90ED030AD0ED0C1A20EEEE
:10298000210A80ED0B0A90ED0A0AD0ED051AB4EE8B
:10299000E10AF1EE10FA04DD90ED050A80ED0A0A75
:1029A00010E090ED0A0AD0ED051AF1EE611AB4EECE
:1029B000E10AF1EE10FA05D290ED050AB1EE400AF7
:1029C00080ED0A0A90ED090AD0ED0A1A30EE210ACC
:1029D000D0ED0B1A30EE210A80ED080A90ED080ABE
:1029E000D0ED041AB4EEE10AF1EE10FA04DD90ED38
:1029F000040A80ED080A76E090ED080AD0ED041A8A
:102A0000F1EE611AB4EEE10AF1EE10FA6BD290ED3C
:102A1000040AB1EE400A80ED080A64E0FFE701789D
:102A2000012960D190ED0F0AD0ED101A30EE610A45
:102A3000D0ED011A20EE210A80ED090A90ED020A7C
:102A4000D0ED0F1A20EE210A80ED0A0A90ED0D0A52
:102A500080ED0E0A90ED0C0A80ED0D0A90ED0F0A44
:102A6000D0ED101AB0EE002A02EE610AD0ED111A74
:102A700030EE210A80ED0C0A90ED030AD0ED0C1A1D
:102A800020EE210A80ED0B0A90ED090AD0ED0A1A1A
:102A900030EE210AD0ED0B1A30EE210AD0ED081AE3
:102AA00030EE210A80ED080A90ED080AD0ED041AF4
:102AB000B4EEE10AF1EE10FA04DD90ED040A80EDC7
:102AC000080A10E090ED080AD0ED041AF1EE611A40
:102AD000B4EEE10AF1EE10FA05D290ED040AB1EE7F
:102AE000400A80ED080A90ED080A0EE70000000099
:102AF00003B52DED040B02460B46B0EE412A1AB980
:102B00009FED8E0A06B000BDB0EE420A694601A8EC
:102B1000FFF7D6FA92ED100A82ED110A92ED0F0A34
:102B200082ED100A9DED010A82ED060A9DED000A74
:102B300082ED070A9DED010ADDED000A30EE600A24
:102B400082ED0F0A1078002875D192ED010AD2EDBE
:102B50000F0A20EE200A82ED090A92ED0A0AD2ED50
:102B6000020A92ED0F1A00EE810A82ED0A0A92ED36
:102B70000D0A82ED0E0A92ED0C0A82ED0D0A92ED1D
:102B80000F0AD2ED100A30EE600A82ED0C0A92EDC7
:102B9000030AD2ED0C0A20EE200A82ED0B0A92ED18
:102BA0000A0AD2ED050AB4EEE00AF1EE10FA04DDED
:102BB00092ED050A82ED0A0A10E092ED0A0AD2EDC2
:102BC000050AF1EE600AB4EEE00AF1EE10FA05D261
:102BD00092ED050AB1EE400A82ED0A0A92ED090A69
:102BE000D2ED0A0A30EE200AD2ED0B0A30EE200AAE
:102BF00082ED080A92ED080AD2ED040AB4EEE00A6A
:102C0000F1EE10FA04DD92ED040A82ED080A76E096
:102C100092ED080AD2ED040AF1EE600AB4EEE00A81
:102C2000F1EE10FA6BD292ED040AB1EE400A82ED99
:102C3000080A64E0FFE71078012860D192ED0F0ADE
:102C4000D2ED100A30EE600AD2ED010A20EE200A21
:102C500082ED090A92ED020AD2ED0F0A20EE200A57
:102C600082ED0A0A92ED0D0A82ED0E0A92ED0C0A2F
:102C700082ED0D0A92ED0F0AD2ED100AB0EE001AA5
:102C800001EE600AD2ED110A30EE200A82ED0C0A44
:102C900092ED030AD2ED0C0A20EE200A82ED0B0A17
:102CA00092ED090AD2ED0A0A30EE200AD2ED0B0AA3
:102CB00030EE200AD2ED080A30EE200A82ED080A32
:102CC00092ED080AD2ED040AB4EEE00AF1EE10FA31
:102CD00004DD92ED040A82ED080A10E092ED080A84
:102CE000D2ED040AF1EE600AB4EEE00AF1EE10FA59
:102CF00005D292ED040AB1EE400A82ED080A92ED87
:102D0000080AB5EEC00AF1EE10FA02DD92ED080AEB
:102D100003E092ED080AB1EE400A00EE903AF8EEB8
:102D2000E00AB4EEE00AF1EE10FA03D29FED030AD6
:102D300082ED080A92ED080AE4E6000000000000B7
:102D400000B102B97047017092ED001A80ED011ACE
:102D500092ED011A80ED021A92ED021A80ED031A2B
:102D600080ED040AC0ED050A9FED0C1A80ED0E1AE5
:102D700080ED0D1A80ED0C1A9FED081A80ED081AEF
:102D800080ED0B1A80ED0A1A80ED091A80ED111AF8
:102D900080ED101A80ED0F1A00BFD3E7000000008D
:102DA00029B1064A12680243044B1A6004E0034A40
:102DB00012688243014B1A607047000030380240AD
:102DC00029B1064A12680243044B1A6004E0034A20
:102DD00012688243014B1A6070470000403802407D
:102DE00029B1064A12680243044B1A6004E0034A00
:102DF00012688243014B1A6070470000203802407D
:102E000029B1064A12680243044B1A6004E0034ADF
:102E100012688243014B1A60704700004438024038
:102E200029B1064A12680243044B1A6004E0034ABF
:102E300012688243014B1A60704700002438024038
:102E4000F0B5002100220024022500260223324F83
:102E50003F6807F00C0121B1042905D0082937D1BA
:102E600005E02E4F076036E02D4F076033E02A4F14
:102E70003F1F3F68C7F38056274F3F1F3F6807F04B
:102E80003F036EB1264FB7FBF3F7DFF88CC0ACF110
:102E9000040CDCF800C0CCF3881C07FB0CF40CE03D
:102EA0001E4FB7FBF3F7DFF870C0ACF1040CDCF891
:102EB00000C0CCF3881C07FB0CF4174F3F1F3F6882
:102EC000C7F301477F1C7D00B4FBF5F7076002E004
:102ED000124F076000BF00BF0F4F3F6807F0F001BF
:102EE0000909104F7A5C0768D74047600A4F3F686E
:102EF00007F4E051890A0B4F7A5C4768D740876036
:102F0000054F3F6807F46041490B064F7A5C4768FC
:102F1000D740C760F0BD0000083802400024F4002C
:102F2000001BB7001400002070B590B004460E4698
:102F3000154601214A48FFF733FF01211020FFF712
:102F40005FFF01211020FFF76BFF00211020FFF72A
:102F500067FF072211464348FFF75EF880200E9076
:102F600002208DF83C0000208DF83E0003208DF8F3
:102F70003D0000208DF83F000EA93A48FFF704F805
:102F8000394800F029FF39480A900020ADF82C009C
:102F9000ADF82E004FF48060ADF830000420ADF89D
:102FA00032000020ADF834000AA92F4800F0DCFF01
:102FB000012240212C4800F006FF10212A4800F091
:102FC000EDFE012240F22441274800F0A7FF012135
:102FD000254800F0ECFE25208DF83C0004208DF8FB
:102FE0003D0000208DF83E0001208DF83F000FA825
:102FF000FFF740FC1E48FEF7A5FD4FF00060019072
:103000001948001D02900394002004900595069035
:103010004FF4806007900020089009904FF4807072
:103020000A904FF440300B9000200C900D900E90C1
:103030000F9001A90E48FEF7A1FE002231460C4870
:10304000FEF737FE01210A48FEF728FE0021084856
:10305000FEF76CFD01210648FEF768FD10B070BD5B
:10306000020040000004024000100140A086010060
:103070004064024000B101B970470278437842EAE7
:103080000322C2F30A020A804278D210837842EA0D
:103090004312C2F30A024A8082789211C37842EA4C
:1030A0008302037942EA8322C2F30A028A80027908
:1030B0005210437942EAC312C2F30A02CA8042792B
:1030C000C2F301128A72427912119308CB7282798B
:1030D000C37942EA032212B28A81027A437A42EA2F
:1030E000032213B201F10C02CB81827AC37A42EA45
:1030F000032213B201F10C020B82037B8B74437B1E
:10310000CB74827BC37B42EA03228A82027C437CAB
:1031100042EA032212B20A810A88A2F5806212B240
:103120000A804A88A2F5806212B24A808A88A2F593
:10313000806212B28A80CA88A2F5806212B2CA8006
:103140000A89A2F5806212B20A8100BF94E70000EA
:1031500000B587B001212020FFF722FE01210805DC
:10316000FFF74EFE4FF46070059002208DF81800B6
:1031700000208DF81A0001208DF81B0003208DF827
:10318000190005A92048FEF7FFFE052207211E4869
:10319000FEF742FF052208211B48FEF73DFF0522EE
:1031A00009211948FEF738FF01210805FFF738FE0D
:1031B00000214FF48010FFF733FE0020ADF800002F
:1031C0004FF48270ADF802000020ADF80400022038
:1031D000ADF806000120ADF808004002ADF80A0085
:1031E0003820ADF80C000020ADF80E000720ADF837
:1031F00010006946054800F0FCF80121034800F082
:10320000D5F807B000BD0000001402400050014096
:103210000A4A12884FF2C7731A40084B1A801A469E
:10322000128802431A801A4612880A431A801A46E4
:10323000128842F040021A8070470000005001409E
:1032400010B5044600211848FEF770FC002116480E
:103250001830FEF76BFC00BF1348FEF736FD002860
:10326000FAD100BF10481830FEF72FFD0028F9D121
:103270000E490D481830FEF725FC0D490A48FEF7A7
:1032800021FC21460848FEF7A5FD214606481830D6
:10329000FEF7A0FD012104481830FEF747FC01218C
:1032A0000148FEF743FC10BD70640240000C002092
:1032B0003000002070B590B005460E46144601213E
:1032C0008805FFF76DFD44208DF83C0005208DF842
:1032D0003D0000208DF83E0001208DF83F000FA832
:1032E000FFF7C8FA2F48FEF72DFC00BF2D48FEF768
:1032F000ECFC0028FAD14FF0606000902A48019061
:10330000029600200390049405904FF4806006908C
:1033100000200790089009904FF440300A90002058
:103320000B900C900D900E9069461E48FEF726FDFE
:10333000012210211B48FEF703FD00211948FEF76A
:10334000F5FB18481838FEF7FDFB00BF1548183884
:10335000FEF7BBFC0028F9D14FF0806000901248C6
:1033600001900295402003900494002005904FF4B2
:103370008060069000200790089009904FF48030FC
:103380000A9000200B900C900D900E906946054815
:103390001838FEF7F3FC002102481838FEF7C6FB88
:1033A00010B070BD886402400C50014021B1028809
:1033B00042F04002028004E002884FF6BF731A40D8
:1033C000028070471AB183880B43838002E08388B0
:1033D0008B43838070470246002013890B400BB15A
:1033E000012000E0002070470146888970478181F4
:1033F000704710B50022028802F441520B884C88B5
:1034000023438C882343CC8823430C8923434C8952
:1034100023438C892343CC8923431A430280838B23
:103420004FF2FF74234083830B8A038210BD000098
:1034300030B500228B071C0F0F2303FA04F20B4B4D
:103440008C1053F824309343084C8D1044F82530E9
:1034500023468C1053F824308C07240F00FA04F410
:103460002343024C8D1044F8253030BD083801400C
:103470000CB50020019000904148006840F4803075
:103480003F49086000BF3E48006800F400300090EB
:103490000198401C0190009818B90198B0F5A04F10
:1034A000F1D13748006800F4003010B101200090DD
:1034B00001E0002000900098012860D130484030A1
:1034C000006840F080502E49403108602D48006867
:1034D00040F440402B4908602948083000682849DA
:1034E000083108600846006840F40040086008465B
:1034F000006840F4A05008602348091F0860081FB6
:10350000006840F08070091F086000BF1C48006818
:1035100000F000700028F9D01A48006840F48030AC
:103520001849086000BF1748406800F48030002840
:10353000F9D01448006840F400301249086000BF18
:103540001048406800F400300028F9D040F20570BF
:103550000E4908600A480830006820F00300084956
:10356000083108600846006840F00200086000BFAB
:1035700003480830006800F00C000828F8D10CBDA2
:103580000038024000700040062D4008003C024018
:10359000042808D14FF0E021096941F004014FF0FF
:1035A000E022116107E04FF0E021096921F00401F8
:1035B0004FF0E0221161704710B506F029FA01289A
:1035C00001D005F081FE10BD10B51548006840F42B
:1035D0007000134908601348006840F00100114969
:1035E000086000200F49083108600E4800680E4945
:1035F00008400C4908600D48091D0860081F006854
:1036000020F48020091F0860002006490C31086062
:10361000FFF72EFF4FF0006001498039086010BDB0
:1036200088ED00E000380240FFFFF6FE1030002475
:1036300010B50121084800F0ABF860B1012106483F
:1036400000F088F8054802684068521C40F100000C
:1036500002490A60486010BD000400409800002044
:1036600030B58BB005460C4601210220FFF7A8FBC0
:1036700001210220FFF794FB022205212D48FEF7CD
:10368000CBFC01210220FFF7ABFB00210220FFF75A
:10369000A7FB1D208DF8140005208DF815000020D3
:1036A0008DF8160001208DF8170005A8FFF7E2F845
:1036B000681E0990601E80B2ADF820000020ADF8B1
:1036C0002200ADF82800012211461B4800F071F8D5
:1036D00008A9194800F06EF92020069002208DF804
:1036E0001C0003208DF81D0000208DF81E00022014
:1036F0008DF81F0006A90F48FEF746FC6020ADF8C4
:1037000000000120ADF802000020ADF80C00694671
:10371000094800F09FF80821074800F0EDF8012162
:10372000054800F00BF80121034800F016F80BB033
:1037300030BD0000000402400004004021B10288B6
:1037400042F08002028004E002884FF67F731A4044
:1037500002807047CA430282704721B1028842F05A
:103760000102028004E002884FF6FE731A400280D4
:10377000704731B1B0F8442042F40042A0F8442030
:1037800005E0B0F84420C2F30E02A0F844207047D0
:1037900030B50246002000230024158A05EA010303
:1037A000958905EA010413B10CB1012000E0002065
:1037B00030BD1AB183890B43838102E083898B4337
:1037C0008381704770B5002400220023058C4FF6DA
:1037D000FE7635400584028C8388048B4FF68F7506
:1037E0002C40B51E2C400D882C43751E2A408D8917
:1037F0002A434D882A43104DA84202D00F4DA842BB
:1038000013D14FF6F7752A40CD892A434FF6FB7541
:103810002A408D882A434FF6FF652B404FF6FF550F
:103820002B400D8A2B434D8A2B43838004838D6864
:103830004563028470BD00000000014000040140A7
:103840000A460021018B4FF6F7731940114301839B
:103850007047000070B5002400220023058C4FF64D
:10386000EF7635400584028C8388048B48F6FF751B
:103870002C404FF6FF452C400D884FF6FF7606EAA8
:1038800005252C434FF6DF752A408D8906EA05157C
:103890002A434D8806EA05152A43154DA84202D051
:1038A000144DA8421DD14FF67F752A40CD894FF6A1
:1038B000FF7606EA05152A434FF6BF752A408D8824
:1038C00006EA05152A434FF6FF352B404FF2FF75E8
:1038D0002B400D8A06EA85052B434D8A06EA8505AD
:1038E0002B43838004838D688563028470BD000050
:1038F00000000140000401400A460021018B4FF204
:10390000FF7319404FF6FF7303EA02231943018343
:103910007047000070B5002200230024058C4EF68D
:10392000FF7635400584038C8488828B48F6FF75CA
:103930002A404FF6FF452A400D884FF6FF7606EAEB
:1039400005252A434DF6FF752B408D8906EA05357E
:103950002B434D8806EA05352B430A4DA84202D079
:10396000094DA84208D14BF6FF752C400D8A4FF641
:10397000FF7606EA85152C43848082838D68056472
:10398000038470BD00000140000401400A4600218C
:10399000818B4FF2FF7319404FF6FF7303EA022346
:1039A00019438183704741637047816370470164A5
:1039B0007047000000220288184B98420ED0184B26
:1039C00098420BD0B0F1804F08D0164B984205D0EA
:1039D000154B984202D0154B984204D14FF68F7385
:1039E0001A404B881A43124B984207D0114B984209
:1039F00004D04FF6FF431A400B891A4302804B68EC
:103A0000C3620B880385054B984202D0044B984251
:103A100001D18B7A03860123838270470000014025
:103A2000000401400004004000080040000C004079
:103A3000001000400014004010B540F2255103482A
:103A400000F042FA08B1FEF7F3FD10BD007C004023
:103A500000B587B001211020FFF7A2F90121C807A6
:103A6000FFF7AEF9082200212548FEF7D5FA082213
:103A700001212348FEF7D0FA0320059002208DF89B
:103A8000180003208DF8190000208DF81A0001207D
:103A90008DF81B0005A91A48FEF776FA4FF4E130BD
:103AA00001900020ADF80800ADF80A00ADF80C0058
:103AB000ADF810000C20ADF80E0001A9114800F07F
:103AC00053FA01210F4800F072F940210D4800F02F
:103AD00065F9012240F225510A4800F01FFA5320EF
:103AE0008DF8000003208DF8010002208DF80200FF
:103AF00001208DF803006846FEF7BCFE07B000BD4C
:103B000000100240007C004010B540F225513148C1
:103B100000F0DAF918B12F4800F090FA59E040F2BD
:103B200024412C4800F0D0F9002852D0294800F058
:103B300085FA2948FEF7D7F828BB00212648FDF76B
:103B4000F5FF2548FEF7CBF8C0F124002349088093
:103B500024212148FEF73EF91F48006840F4002068
:103B60001D4908601E491C48FDF7ACFF01211A4899
:103B7000FDF7DCFF1948008812282AD119491A4894
:103B8000FFF778FA25E000211348FDF7CFFF124830
:103B9000FEF7A5F8C0F124001049088024210E4842
:103BA000FEF718F90C48006820F400200A49086064
:103BB0000B490948FDF786FF01210748FDF7B6FFCD
:103BC00006480088122804D1064907482430FFF728
:103BD00051FA10BD0010014040640240AC000020CA
:103BE00000003010040602201A06022010B5114809
:103BF0000088114908700F48001F008808700021D4
:103C00000E48FDF793FF0E4803F062F80D490B488C
:103C1000FDF758FF00BF0948FEF757F80028FAD112
:103C2000FF210648FEF7D6F801210448FDF77EFF84
:103C300010BD0000044800406001002028600240E0
:103C4000BC0F02200000301000B597B00121082001
:103C5000FFF7A6F802208DF8580000208DF85A00D2
:103C60004FF44070159001208DF85B0003208DF813
:103C7000590015A94548FEF787F915A94348FEF7ED
:103C800083F9072209214148FEF7C6F907220821D6
:103C90003E48FEF7C1F901218804FFF791F84FF47F
:103CA000E13011900020ADF850000C20ADF84E002E
:103CB0000020ADF84C00ADF84A00ADF8480011A95D
:103CC000334800F051F901224021314800F07BF8DF
:103CD000012240F224412E4800F020F901212C4815
:103CE00000F065F84FF44070FEF700FE27208DF8D5
:103CF000400001208DF8430007208DF8410000208E
:103D00008DF8420010A8FEF7B5FD012240F22441D3
:103D10001F4800F003F901214805FFF741F81D484D
:103D2000FDF710FF00BF1B48FDF7CFFF0028FAD1B9
:103D30004FF0006001901648001D02901648039055
:103D400000200490FF200590002006904FF4806032
:103D500007900020099008900A904FF440300B9093
:103D600000200C9003200D9000200E900F9001A9D0
:103D70000848FEF703F801210648FDF7D7FE0122A7
:103D80004021034800F01FF817B000BD000C0240AE
:103D90000048004028600240BC0F022001F400727D
:103DA000B2F5007F00D100BFCA430280704721B145
:103DB000828942F40052828104E082894DF6FF73C9
:103DC0001A40828170471AB1838A0B43838202E0D2
:103DD000838A8B438382704710B5044632488442FD
:103DE00008D101211020FFF71BF800211020FFF758
:103DF00017F857E02D48844209D101214804FEF705
:103E0000EFFF00214FF40030FEF7EAFF4AE02848B8
:103E1000844209D101218804FEF7E2FF00214FF41A
:103E20008020FEF7DDFF3DE02248844209D10121D8
:103E3000C804FEF7D5FF00214FF40020FEF7D0FFA5
:103E400030E01D48844209D101210805FEF7C8FF72
:103E500000214FF48010FEF7C3FF23E0174884428F
:103E600008D101212020FEF7DBFF00212020FEF7F2
:103E7000D7FF17E01248844209D101218807FEF7D5
:103E8000AFFF00214FF08040FEF7AAFF0AE00D4887
:103E9000844207D101214005FEF7A2FF0021600501
:103EA000FEF79EFF10BD00000010014000440040DE
:103EB00000480040004C0040005000400014014009
:103EC00000780040007C004070B5024600240023CA
:103ED0000025002040F66A16B14200D100BFC1F3B0
:103EE000421501F01F03012606FA03F3012D02D14A
:103EF0009689334006E0022D02D1168A334001E054
:103F0000968A33400C12012606FA04F416883440CF
:103F100013B10CB1012000E0002070BDF0B50346E4
:103F2000002400260025002040F66A17B94200D17F
:103F300000BF1846C1F3421401F01F06012707FA1B
:103F400006F5012C01D10C3004E0022C01D1103017
:103F500000E014301AB107682F43076002E00768D9
:103F6000AF430760F0BD00002DE9FF4705460E4650
:103F70000024A14600BFA046B08900B100BF2C8A32
:103F800024F44054F08804432C82AC8941F20C6044
:103F90008443B08831890843718908430443AC8164
:103FA000AC8A24F44074B0890443AC826846FEF7BE
:103FB00047FF2048854202D01F48854202D1DDF8E4
:103FC0000C9001E0DDF80890A88900F4004040B1B1
:103FD00009EBC90000EB091031684900B0FBF1F7AB
:103FE00007E009EBC90000EB091031688900B0FB5C
:103FF000F1F76420B7FBF0F004012009642101FB14
:104000001078A88900F4004040B1322000EBC800CD
:10401000B0FBF1F000F00700044308E0322000EBB1
:1040200008106421B0FBF1F000F00F0004432C8174
:10403000BDE8FF8700100140001401400146888858
:10404000C0F30800704700BFFEE7000002F0D6FF93
:1040500003F0CCF80EE003F039F8642004F02CFEF5
:1040600003F02AF8642004F027FE002004F0CEFCC0
:1040700001490860EFE70000B401002070B5054673
:104080000C4600260DB1022C01D8002070BDA11EE7
:10409000094802882846FDF7E7FF0646F1B2A01E50
:1040A000285C814206D1601E285CB0EB162F01D13E
:1040B0000120EBE70020E9E7B201002070B50546DA
:1040C0000C4600260DB1022C01D8002070BD611EE7
:1040D000FF222846FDF7E2FF0646601E285CB0423C
:1040E00001D10120F2E70020F0E700002DED048B64
:1040F00000F0C8F801F0A0FE3D49086001F0A0FE04
:104100003C49086073E000201CE000EBC0013A4A23
:1041100002EB8101B1F90410002906DD00EBC001BA
:1041200002EB8101B1F9041007E000EBC001324A53
:1041300002EB8101B1F90410494209B22F4A22F879
:104140001010401C0428E0DB2C49B1F900102B4A68
:10415000B2F902201144294AB2F904201144274A35
:10416000B2F906208818FCF763FA41EC190B9FEDB1
:10417000240B53EC102BFCF7E9F941EC180BFCF77E
:104180009AFA21490860214890ED000A204880ED04
:10419000000A1E4890ED010A1D4880ED010A1B48E7
:1041A00090ED020A1A4880ED020A1A48B0F9C401DB
:1041B00000EE100AB8EEC00A154880ED030A164852
:1041C000B0F9040000EE100AB8EEC00A104880ED05
:1041D000040A00F027F81C211048FDF7FEFD01201D
:1041E00004F06AFD002004F011FC0D4908608AE724
:1041F0001C02002020020020780702200C02002070
:104200000135B56CAD2F623F140200205C13022013
:10421000A8120220740802205407022028600240DD
:104220000802002030B50446002217E004EB8200AB
:10423000D0ED000AB0EE600A1148FDF751FE0020F3
:1042400008E00F49095C00EB82030D4D1C3DE95469
:10425000411CC8B20328F4DD501CC2B2052AE5DDBA
:10426000002009E00649091D0A5C00F11801044B11
:104270001C3B5A54411CC8B20328F3DD30BD00007A
:10428000DC1202200020074981F8200000210548A7
:1042900080F82110802180F822107F2180F82310DF
:1042A00070470000C01202204100080218BF04201D
:1042B0000A0E18BF40F001004FF07F4232EA0101C0
:1042C00008BF40F00200012808BF05207047000029
:1042D00010B54FF00E402DED028BB0EE408A18EE77
:1042E000104A00EB4400B0F1506F4AD84FF0FC4048
:1042F000B0EB440F22D2B0EEC80AF7EE000A30EE5F
:10430000C00AF6EE000A60EE208A18EE900A04F069
:10431000D9F901EE100A14F0004F1DBFDFED2D0A90
:104320009FED2D0AB1EE411ADFED2C0A08BF9FED7B
:104330002C0AF8EE001A21EE218A05E0DFED290AA9
:1043400068EE088AB0EE600A9FED271ADFED271AA3
:1043500030EE080A48EE811A9FED251A08EEA11AE0
:10436000DFED241A48EE811A9FED231A08EEA11AF8
:1043700068EE281ABDEC028B01EE810A30EE200AAD
:1043800010BD4FF0E440B0EB440F0CD918EE100A0A
:10439000FFF78AFF042808BF00F066F9B0EE480A6C
:1043A000BDEC028B10BD4FF07F40B0EB440F07D245
:1043B000B0EE480ABDEC028BBDE8104000F046B9F3
:1043C000012000F069F9BDEC028BBDE8104000F05F
:1043D00043B900000000C9BF22AAFDB90000C93FCF
:1043E00022AAFD390000000024FE1C3DC78AD83CEB
:1043F0001E67383D1B93993DAFAA2A3E10EE100A66
:1044000010B510EE901A4FF0684202EB40032DED0C
:10441000028BB3F1654F3CBF02EB4102B2F1654F35
:104420007CD200BFC0F3C753C1F3C7529A1A1B2AEC
:1044300009DD10F0004F14BF9FED6E0A9FED6E0A6C
:10444000BDEC028B10BD12F11A0F1BDA11F0004FF8
:1044500009D010F0004F0CBF9FED680A9FED680A6D
:10446000BDEC028B10BD80EE208A18EE100AFFF71B
:104470001BFF042808BF00F0F7F8B0EE480ABDECB7
:10448000028B10BD4200B2EB410F37D910F0004F44
:1044900019BFDFED5C1A9FED5C1ADFED5C1A9FED32
:1044A0005C1AB0EE602A0A46F1EE400A80F0004144
:1044B000B0EE420A10460A1A5200B2F1807F34D29E
:1044C000484010F0004FDFED532A9FED533A1DBFD7
:1044D000BEEE002A71EEE21A31EE431AB6EE002A61
:1044E00004BF71EEA21A31EE031AF0EE402A42EE3A
:1044F000602A40EE020A82EEA02A18E011F0004F76
:1045000004BF9FED461AF0EE411AD4D010F0004FD0
:104510001CBFDFED431A9FED431A00E026E004BF05
:10452000DFED411A9FED411AC5E780EE202A22EE09
:10453000020ADFED3F0ADFED3F2ABDEC028B40EEC1
:10454000202ADFED3D0A40EE220ADFED3C2A40EE54
:10455000202ADFED3B0A40EE220A22EE000A00EE9E
:10456000201A31EE020A30EE210A10BD4FF07F42D0
:10457000B2EB400F28BFB2EB410F05D2BDEC028B6E
:10458000BDE8104000F065B840EA01035B0008BFD9
:1045900041F0FF410BD0B2EB400F08BFB2EB410F2F
:1045A00008D120F0804000EE100A21F0804100EE9A
:1045B000901A37E7B2EB400F12BF5FEA410240F0BA
:1045C000FF4001F000413FF42DAF4A0092EA400362
:1045D0003FF528AF002AACBF9FED1A1A9FED1A1ABB
:1045E00020EE010A60EE810A10EE100A10EE901A19
:1045F00018E70000DB0FC9BFDB0FC93FDB0F4940E5
:10460000DB0F49C00000C9BF22AAFDB90000C93FA5
:1046100022AAFD390060ED3EC30ACE37000000003B
:10462000000049C022AA7DBA0000494022AA7D3A72
:104630002DAD65BD8FB8D53D0FB511BE61C84C3EDF
:10464000A8AAAABE0000804F0000802F30EE000A0A
:10465000704730EE200A7047DFED020A80EEA00AB4
:1046600070470000000000009FED020A20EE000AE3
:10467000704700000000001002E008C8121F08C1C7
:10468000002AFAD170477047002001E001C1121FD3
:10469000002AFBD170470000014908607047000004
:1046A000B402002070B52DED028B8AB005460C4691
:1046B00016460DB104B11EB90AB0BDEC028B70BD37
:1046C00094ED000AB5EEC00AF1EE10FA0DD194EDAA
:1046D000010AB5EEC00AF1EE10FA06D194ED020A15
:1046E000B5EEC00AF1EE10FA7DD09FED600AB0EE93
:1046F000408A002007900890099004900590069049
:104700005B4A07CA01AB07C395ED010AD5ED030A61
:1047100020EE200AD5ED000A95ED021A00EEC10A3E
:10472000F0EE000A20EE200A8DED070A95ED000A52
:10473000D5ED010A20EE200AD5ED020A95ED031A07
:1047400000EE810AF0EE000A20EE200A8DED080A44
:1047500095ED000A20EE000AD5ED030A95ED031A47
:1047600000EE810AF7EE000AB0EE001A51EE000AE0
:10477000CDED090A01AB22463146284600F07AF811
:10478000D4ED000A60EEA00A94ED011AD4ED011AEE
:1047900041EE210A94ED021AD4ED021A41EE210AEB
:1047A000B0EE600AFCF710FBB0EE408A94ED000A10
:1047B00020EE080A84ED000A94ED010A20EE080AB2
:1047C00084ED010A94ED020A20EE080A84ED020A43
:1047D00094ED010ADDED090A20EE200AD4ED020A6B
:1047E0009DED081A00E03EE000EEC10A8DED040ADE
:1047F00094ED020ADDED070A20EE200AD4ED000A4E
:104800009DED091A00EEC10A8DED050A94ED000A2E
:10481000DDED080A20EE200AD4ED010A9DED071A0D
:1048200000EEC10A8DED060A96ED000ADDED010AE3
:104830009DED041A00EE810A86ED000A96ED010A4C
:10484000DDED020A9DED051A00EE810A86ED010AF2
:1048500096ED020ADDED030A9DED061A00EE810ACF
:1048600086ED020A00BF00BF26E70000000000003E
:10487000D0A200082DE9F0412DED048B07460D462E
:1048800014461E469FED580AB0EE409A9FED560A18
:10489000B0EE408A9FED540AF0EE408AD4ED000A53
:1048A00060EEA00A94ED011AD4ED011A41EE210A3E
:1048B00094ED021AD4ED021A41EE210AB0EE600A1C
:1048C000FCF782FAF7EE000A80EE801AB0EE419A09
:1048D000D5ED000AB0EE600AFCF70AF9F0EE409A56
:1048E000D5ED010AB0EE600AFCF702F979EE809A84
:1048F000D5ED020AB0EE600AFCF7FAF839EE800A4C
:10490000F0EE408A3948D0ED000A79EE600AB0EE48
:10491000600AFCF7EDF8B0EE408A9FED350AB4EE80
:10492000C08AF1EE10FA06DC9FED320AF4EEC08A7E
:10493000F1EE10FA53DD9FED2C2AB0EE420A9FED06
:104940002A2AF0EE421AB7EE002AF0EE420A9FED54
:10495000262AB0EE421AB5EEC08AF1EE10FA05DD55
:104960009FED232AC2EE082AB0EE620A9FED222AAA
:10497000B4EEC20AF1EE10FA03D29FED1B2AB0EE9C
:10498000420AF5EEC08AF1EE10FA05DD9FED192A14
:10499000C2EE282AF0EE621AB7EE002AB4EEC20A7E
:1049A000F1EE10FA03D220EE802AF0EE420AB7EEC2
:1049B000002AF4EEC21AF1EE10FA03D220EEA12A78
:1049C000F0EE420A9FED0D2A20EE822AB0EE421A46
:1049D00086ED001A86ED011A86ED021A00BFBDECC5
:1049E000048BBDE8F081000000000000B002002050
:1049F000CDCCCC3D8FC2F53D9A99993ECDCC4C3E65
:104A000010B52DED048B86B00446B0EE408AF0EE72
:104A1000608AB0EE419A00200390049005900090C7
:104A200001900290B0EE000AC8EE000AF0EE609A23
:104A3000B0EE690AFCF750F88DED030AB0EE000AFB
:104A4000C8EE800AF0EE609AB0EE690AFCF744F80E
:104A50008DED040AB0EE000AC9EE000AF0EE609A8D
:104A6000B0EE690AFCF738F88DED050AB0EE000AE1
:104A7000C8EE000AF0EE609AB0EE690AFCF7C2F9DF
:104A80008DED000AB0EE000AC8EE800AF0EE609AE2
:104A9000B0EE690AFCF7B6F98DED010AB0EE000A36
:104AA000C9EE000AF0EE609AB0EE690AFCF7AAF9C6
:104AB0008DED020A9DED050ADDED040A20EE200AC7
:104AC000DDED030A20EE200ADDED020A9DED011A5C
:104AD00060EE810A9DED001A00EE810A84ED000A65
:104AE0009DED020ADDED040A20EE200ADDED030A49
:104AF00020EE200ADDED050A9DED011A60EE810A27
:104B00009DED001A00EEC10A84ED010A9DED050A33
:104B1000DDED010A20EE200ADDED030A20EE200A79
:104B2000DDED020A9DED041A60EE810A9DED001A8A
:104B300000EE810A84ED020A9DED050ADDED040A0E
:104B400020EE200ADDED000A20EE200ADDED020A4B
:104B50009DED011A60EE810A9DED031A00EEC10A77
:104B600084ED030A06B0BDEC048B10BD81780129E9
:104B70003CD14179090209B20279114300EE101AC1
:104B8000F8EEC00A9FED1A1AC0EE811ADFED190A7D
:104B900061EEA00A1849C1ED000AC179090209B203
:104BA0008279114300EE101AF8EEC00ADFED101AF8
:104BB00080EEA11ADFED0F0A61EE200A0E49C1ED69
:104BC000010A417A090209B2027A114300EE101A71
:104BD000B8EEC01ADFED061AC1EE210A9FED051AE4
:104BE00060EE810A0449C1ED020A00BF704700006F
:104BF00000000047000034436406022030B58BB04B
:104C000005460C4601214020FEF7DAF801218020FC
:104C1000FEF7C6F801214020FEF7E2F8002140200F
:104C2000FEF7DEF8092206212048FDF7F5F94020BD
:104C3000099002208DF8280003208DF8290000201B
:104C40008DF82A0002208DF82B0009A91748FDF7DE
:104C50009BF96020ADF804000120ADF806000020AB
:104C6000ADF8100001A91248FEF7ACFD082110486C
:104C7000FEF7E6FD01210E48FEF760FD681E079075
:104C8000601E80B2ADF818000020ADF81A00ADF833
:104C9000200006A90648FEF78DFE01210448FEF714
:104CA0005CFD00F007F80BB030BD0000001C0240B6
:104CB0000018004010B500210148FEF774FE10BD39
:104CC0000018004070B504460D460448048029468B
:104CD00002482838FEF767FE70BD00002818004023
:104CE000F0B585B004460D4616461F464FF40070D9
:104CF000009000208DF808008DF8090008208DF83C
:104D00000A00200A8DF80B00E1B28DF80C10290A78
:104D10008DF80D10E9B28DF80E10310A8DF80F10D4
:104D2000F1B28DF81010390A8DF81110F9B28DF822
:104D3000121069460248FCF7E2FD05B0F0BD000024
:104D4000006400402DE9F04104460D4616461F461A
:104D500040F2FF100E4908600020087248720820D7
:104D60008872200AC87208460473290A4173857341
:104D7000310AC1730674390A4174877401460548C3
:104D8000FCF7BDFD02490448FCF7B9FDBDE8F08120
:104D9000E006022000680040006400402DE9F04178
:104DA00004460D4616461F464FF400700C49086035
:104DB00000200872487208208872200AC8720846CB
:104DC0000473290A41738573310AC1730674390A61
:104DD0004174877401460348FCF791FDBDE8F081FA
:104DE000F40602200068004070B504460D462A48CB
:104DF000B0F9260000EE900AF8EEE00AB0EE600A84
:104E0000604200EE900AF8EEE00A2448FDF778FDD3
:104E1000BDEEC00A10EE100A00B2214948801E48BB
:104E2000B0F9020000EE900AF8EEE00AB0EE600A77
:104E300000EE904AF8EEE00A18484838FDF760FDA9
:104E4000BDEEC00A10EE100A00B2154908801548E0
:104E5000B0F9020000EE900AF8EEE00AB0EE600A47
:104E6000684200EE900AF8EEE00A0F48FDF748FDB0
:104E7000BDEEC00A10EE100A00B20C490880084AC4
:104E8000B2F90010B2F902000023084AB2F900207A
:104E9000FFF784FF70BD000008080220DC0C022030
:104EA000E800002050080220040C0220EC00002042
:104EB00010B502F095F81B481B49086000F0BCFFD4
:104EC0001A4908600846006890ED000A184880ED0D
:104ED000000A00241AE004EBC401164A02EBC100E8
:104EE000DFED150A9FED150A154A0021FDF728FF91
:104EF00004EBC401134A02EBC100DFED130A9FED7E
:104F0000130A134A0021FDF71BFF641C042CE2DB8B
:104F1000DFED100A9FED100A104A00211048FDF73E
:104F20000FFF10BD74120220F0000020F4000020DA
:104F3000F8000020340D022000007A4400401C4696
:104F4000709F0008540E022000007A4500803B4507
:104F50007C9F00080080BB4500409C46889F00085D
:104F6000740F022010B52DED048BFE48007848B96F
:104F7000002004E00021FC4A22F81010401C042804
:104F8000F8DB48E3F748007801287CD1F749096845
:104F9000B1F90010494201EB8100FBF749FB41ECFC
:104FA000190B9FEDF30B53EC102BFBF7CFFA41ECF1
:104FB000180BFBF74EFB00B2EF490880EB48006886
:104FC0004088404200EB800000B2EC490880E7488E
:104FD0000068808800EB800000B2E9490880E6485C
:104FE000B0F900004042E549B1F900100844E44935
:104FF000B1F90010084400EE100AB8EEC00AE1480A
:1050000080ED000ADC48B0F900004042DB49B1F90C
:105010000010401ADA49B1F90010084400EE100AF5
:10502000B8EEC00AD74880ED010AD348B0F90000B5
:10503000D249B1F90010401AD149B1F90010084421
:1050400000EE100AB8EEC00ACE4880ED020ACA4847
:10505000B0F90000C949B1F900100844C849B1F9D4
:105060000010084400EE100AB8EEC00AC54880EDF2
:10507000030A90ED001AF0EE410AC348B0F90200AD
:1050800001EE100A00E059E0B8EEC11AB0EE410A94
:10509000BE48FDF735FCBDEEC00A10EE100A00B2A6
:1050A000B1490880B74890ED011AF0EE410AB648C0
:1050B000B0F9260001EE100AB8EEC11AB0EE410AAE
:1050C000B2484830FDF71CFCBDEEC00A10EE100AD5
:1050D00000B2A5494880AB4890ED021AF0EE410AB3
:1050E000A948B0F94A0001EE100AB8EEC11AB0EEB4
:1050F000410AA6489030FDF703FCBDEEC00A10EE51
:10510000100A00B2984988809E4890ED031AF0EE8C
:10511000410A9D48B0F96E0001EE100AB8EEC11ABE
:10512000B0EE410A9948D830FDF7EAFBBDEEC00A5F
:1051300010EE100A00B28C49C8806CE289480078F1
:1051400002287DD19248008800EE900AF8EE600AAD
:10515000B0EE600A9FED8F1A3221DFED8F0A8F4883
:10516000FDF7C6FC8E4880ED000A8748B0F90200C2
:1051700000EE900AF8EEE00AB0EE600A8848D0ED42
:10518000000A8848FDF7BCFB874880ED000A774994
:105190000968B1F90010494201EB8100FBF748FAB8
:1051A00041EC190B9FED720B53EC102BFBF7CEF972
:1051B00041EC180BFBF74DFA00B26F4908806B48C1
:1051C00000684088404200EB800000B26B490880D4
:1051D000754890ED000ABDEEC00A10EE100A00B24C
:1051E000674908806448B0F9000040426349B1F95A
:1051F000001008446249B1F90010084400EE100A9A
:10520000B8EEC00A5F4880ED000A5B48B0F90000C4
:1052100040425A49B1F90010401A5949B1F90010F9
:10522000084400EE100AB8EEC00A564880ED010AA4
:105230005148B0F900005149B1F90010401A00E09E
:105240007FE04F49B1F90010084400EE100AB8EEB3
:10525000C00A4C4880ED020A4748B0F900004749AF
:10526000B1F9001008444649B1F90010084400EEB5
:10527000100AB8EEC00A434880ED030A90ED001A08
:10528000F0EE410A4048B0F9020001EE100AB8EE13
:10529000C11AB0EE410A3D48FDF732FBBDEEC00A2F
:1052A00010EE100A00B230490880364890ED011A1D
:1052B000F0EE410A3448B0F9260001EE100AB8EECB
:1052C000C11AB0EE410A31484830FDF719FBBDEE76
:1052D000C00A10EE100A00B223494880294890ED18
:1052E000021AF0EE410A2848B0F94A0001EE100A0D
:1052F000B8EEC11AB0EE410A24489030FDF700FB29
:10530000BDEEC00A10EE100A00B2174988801D4891
:1053100090ED031AF0EE410A1B48B0F96E0001EE61
:10532000100AB8EEC11AB0EE410A1848D830FDF79D
:10533000E7FABDEEC00A10EE100A00B20A49C880B2
:1053400069E10848007804287ED11148008800EE01
:10535000100AB8EE400A10EE101A0846FBF798F94A
:10536000124A25E01001002036010020F000002044
:10537000000000000000E03F1201002014010020A6
:1053800016010020240D022078070220340D02208F
:105390003007022000F8FF4500405345740F0220FB
:1053A00024010020540E02202801002008010020C2
:1053B00003C29FEDFD0B53EC102BFD4890ED000B4D
:1053C00051EC100BFBF7BCF841EC180B9FEDF90BFF
:1053D00053EC102BFBF7BAF8F54A03C2F44890EDF2
:1053E000000B51EC100BFBF766F908EE100AB0EE5B
:1053F000480AFAF797FFF14880ED000AEC4890ED73
:10540000000B51EC100BFBF756F908EE100AB0EE4A
:10541000480AFAF74BFFEA4880ED000AE9480068BD
:105420004088400000B2E8490880E64800680088EB
:10543000400000B2E5490880E348B0F9000000EE02
:10544000100AB8EEC00A00E0E6E0DC48D0ED000A41
:1054500020EE200A0846B0F9000000EE900AF8EEAF
:10546000E00AD74890ED001A00EEC10ABDEEC00A6E
:1054700010EE100A00B2D6490880D348B0F90000F7
:1054800000EE100AB8EEC00ACD48D0ED000A20EEBA
:10549000200ACE48B0F9000000EE900AF8EEE00ACB
:1054A000C64890ED001A00EE810ABDEEC00A10EE6B
:1054B000100A00B2C74908800020C7490880C448C4
:1054C000B0F900004042C349B1F90010401AC24986
:1054D000B1F90010084400EE100AB8EEC00ABF4847
:1054E00080ED000ABA48B0F900004042B949B1F96C
:1054F00000100844B849B1F90010084400EE100A41
:10550000B8EEC00AB54880ED010AB148B0F9000014
:10551000B049B1F900100844AF49B1F9001008448E
:1055200000EE100AB8EEC00AAC4880ED020AA848A6
:10553000B0F90000A749B1F90010401AA649B1F925
:105540000010084400EE100AB8EEC00AA34880ED2F
:10555000030A90ED001AF0EE410AA148B0F90200EA
:1055600001EE100AB8EEC11AB0EE410A9D48FDF7EF
:10557000C7F9BDEEC00A10EE100A00B29A490880C1
:10558000964890ED011AF0EE410A9548B0F92600D0
:1055900001EE100AB8EEC11AB0EE410A9148483047
:1055A000FDF7AEF9BDEEC00A10EE100A00B28E494A
:1055B00048808A4890ED021AF0EE410A8848B0F916
:1055C0004A0001EE100AB8EEC11AB0EE410A854851
:1055D0009030FDF795F9BDEEC00A10EE100A00B24A
:1055E000814988807D4890ED031AF0EE410A7C489D
:1055F000B0F96E0001EE100AB8EEC11AB0EE410A21
:105600007848D830FDF77CF9BDEEC00A10EE100ADC
:1056100000B27549C880C2E2744800780328FAD104
:105620007348808A00F4807010B1012071490880AD
:1056300070480088012815D16D48808A00F4807078
:1056400080B96D480088012803D100206A4908808C
:1056500005E06948008810B90120674908800020EA
:10566000644908806248007D00F0100028B1B0EE67
:10567000080A624880ED000A0FE05D48007D00F0F6
:10568000200028B1B6EE000A5C4880ED000A04E074
:10569000B7EE000A594880ED000A5549888A4FF450
:1056A000FA630422564901F045FC5348008801285A
:1056B00079D15448008800EE100AB8EE400A10EE86
:1056C000101A0846FAF7E4FF394A03C29FED360B79
:1056D00053EC102B364890ED000B51EC100BFAF701
:1056E0002FFF41EC180B9FED330B53EC102BFAF707
:1056F0002DFF2F4A03C22E4890ED000B51EC100BEA
:10570000FAF7D9FF08EE100AB0EE480AFAF70AFED7
:105710002A4880ED000A264890ED000B51EC100B52
:10572000FAF7C9FF08EE100AB0EE480AFAF7BEFD14
:10573000234880ED000A3248C08831494988401A20
:1057400000EE100AB8EEC00A2C48D0ED000A20EE98
:10575000200ABDEEC00A10EE100A00B21B490880F4
:105760002748008826498988401A00EE100AB8EEBA
:10577000C00A2248D0ED000A20EE200ABDEEC00A81
:1057800010EE100A00B2104908800846B0F9000077
:1057900000EE100AB8EEC00A0848D0ED000A20EE6C
:1057A000200A0A4830E064E0000000000068AA40D7
:1057B0000801002000000060FB21493F4801002053
:1057C0004C010020F00000201E0100201C010020E0
:1057D000120100201401002016010020240D0220D7
:1057E00078070220340D022036010020100100202D
:1057F0007412022054010020560100202C010020C8
:105800008A12022030070220B0F9000000EE900A50
:10581000F8EEE00AE94890ED001A00EEC10ABDEE8C
:10582000C00A10EE100A00B2E5490880E548B0F958
:10583000000000EE100AB8EEC00AE048D0ED000A01
:1058400020EE200AE048B0F9000000EE900AF8EEE1
:10585000E00ADE4890ED001A00EE810ABDEEC00AB3
:1058600010EE100A00B2DA4908800020D9490880F9
:10587000E9E0D94800880028FAD1D848008800EE2D
:10588000100AB8EE400A10EE101A0846FAF700FFA8
:10589000D34A03C21FED3C0B53EC102BD04890EDC4
:1058A000000B51EC100BFAF74BFE41EC180B1FEDFF
:1058B0003F0B53EC102BFAF749FEC94A03C2C84804
:1058C00090ED000B51EC100BFAF7F5FE08EE100A04
:1058D000B0EE480AFAF726FDBC4880ED000AC04841
:1058E00090ED000B51EC100BFAF7E5FE08EE100AF4
:1058F000B0EE480AFAF7DAFCB04880ED000AB74883
:10590000008800EE900AF8EE600AB0EE600A9FEDA3
:10591000B51A5021DFEDB40AB448FDF7E9F8B448F0
:1059200080ED000AB348B0F9020000EE900AF8EEEC
:10593000E00AB0EE600AAE48D0ED000AAE48FCF7CF
:10594000DFFFAE4880ED000AAD484088AC4AD288FF
:10595000801A00EE100AB8EEC00AAA48D0ED000A7C
:1059600020EE200A10EE101A0846FAF791FE41ECDC
:10597000190B9FEDA50B53EC102BFAF7E7FD41EC4B
:10598000180BFAF766FE00B28F4908809C48008821
:105990009B498988401A00EE100AB8EEC00A99485F
:1059A000D0ED000A20EE200ABDEEC00A10EE100A6B
:1059B00000B2844908800846B0F9000000EE100AE1
:1059C000B8EEC00A8148D0ED000A20EE200A7E48D9
:1059D000B0F9000000EE900AF8EEE00A774890ED8A
:1059E000001A00EEC10ABDEEC00A10EE100A00B2A5
:1059F000734908807348B0F9000000EE100AB8EE51
:105A0000C00A6E48D0ED000A20EE200A6E48B0F9B8
:105A1000000000EE900AF8EEE00A6C4890ED001AE3
:105A200000EE810ABDEEC00A10EE100A00B268490D
:105A30000880724890ED000ABDEEC00A10EE100A10
:105A400000B2644908805E48B0F9000040426049F5
:105A5000B1F90010401A5F49B1F90010084400EE96
:105A6000100AB8EEC00A6A4880ED000A5448B0F93E
:105A7000000040425649B1F9001008445549B1F9B7
:105A80000010084400EE100AB8EEC00A604880ED2D
:105A9000010A4B48B0F900004D49B1F90010084423
:105AA0004C49B1F90010084400EE100AB8EEC00AE3
:105AB000574880ED020A4248B0F900004449B1F964
:105AC0000010401A4349B1F90010084400EE100AD2
:105AD000B8EEC00A4E4880ED030A90ED001AF0EED1
