:020000040800F2
:100000000017022079020008CD2B0008BD2400084B
:10001000C92B000829110008E7440008000000006F
:10002000000000000000000000000000C101000806
:10003000C52100080000000015020008D1390008A1
:100040009D0200089D0200089D0200089D02000814
:100050009D0200089D0200089D0200089D02000804
:100060009D0200089D0200089D0200089D020008F4
:100070009D0200089D0200089D0200089D020008E4
:100080009D020008CD1D00089D0200089D02000889
:100090002D1100089D0200089D020008C7210008DC
:1000A0009D0200089D0200089D0200089D020008B4
:1000B0009D020008493A00089D0200089D020008C0
:1000C0009D0200089D0200089D0200089D02000894
:1000D0009D020008513E00089D020008353F0008BF
:1000E0009D0200089D0200089D0200089D02000874
:1000F0009D0200089D0200089D0200089D02000864
:100100009D0200089D0200089D0200089D02000853
:100110009D0200089D0200089D0200089D02000843
:100120009D0200089D0200089D0200089D02000833
:100130009D0200089D0200089D0200089D02000823
:100140009D020008E11300089D0200089D020008BE
:10015000011E00089D0200089D020008E9400008F9
:100160009D0200089D0200089D0200089D020008F3
:100170009D0200089D0200089D020008000000008A
:100180009D0200089D0200089D0200089D020008D3
:100190009D0200089D0200089D0200089D020008C3
:1001A00000000000000000009D020008DFF80CD0F5
:1001B00000F0B2FB004800477D76000800170220DF
:1001C0002A4B19680868B0E8F04F80F30988BFF33C
:1001D0006F8F4FF0000080F311887047000000001F
:1001E00006480068006880F3088862B661B6BFF30D
:1001F0004F8FBFF36F8F00DF00BF00BF08ED00E03F
:10020000DFF80C00016841F470010160704700BF25
:1002100088ED00E0EFF30980BFF36F8F134B1A688E
:100220001EF0100F08BF20ED108A20E9F04F10607B
:1002300008B44FF0500080F31188BFF34F8FBFF325
:100240006F8F09F0EFFA4FF0000080F3118808BCBF
:1002500019680868B0E8F04F1EF0100F08BFB0EC46
:10026000108A80F30988BFF36F8F70472400002045
:10027000EFF30580704700000948016841F4700100
:1002800001600848804708480047FEE7FEE7FEE7B0
:10029000FEE7FEE7FEE7FEE7FEE7FEE7FEE700001B
:1002A00088ED00E0E1390008AD0100089FED1A1A61
:1002B000F5EE000A40EE010ABDEEE00AF5EEC00AD6
:1002C00010EE100AF1EE10FA38BF401E00EE100AD0
:1002D0001349F7EE001AB8EEC00A30EEC00ADFED9F
:1002E0000F0A20EE200AFCEEC00A10EE900AC0F3BE
:1002F000080000EE900A01EB8000F8EE600A90ED35
:10030000011A70EE600A90ED000A71EEE01A21EE1B
:10031000800A00EE810A704783F9223E0000004403
:1003200078AA0008DFED1D0AB5EEC00A60EE200ACB
:10033000BDEEE01A11EE100AF1EE10FA38BF401EC1
:1003400000EE100AB8EEC00A30EEC00ADFED140A63
:1003500020EE200AB4EEE00AF1EE10FAA8BF30EE6B
:10036000600AFCEEC00A0F49F7EE001A10EE900A80
:10037000C0F3080000EE900A01EB8000F8EE600A7E
:1003800090ED011A70EE600A90ED000A71EEE01A2D
:1003900021EE800A00EE810A7047000083F9223EB8
:1003A0000000004478AA000840EA01039B0703D03C
:1003B00009E008C9121F08C0042AFAD203E011F8A4
:1003C000013B00F8013B521EF9D27047D2B201E066
:1003D00000F8012B491EFBD270470022F6E710B54A
:1003E00013460A4604461946FFF7F0FF204610BDA3
:1003F000421C10F8011B0029FBD1801A70472DE91F
:10040000FE4F804681EA0300C00F0C46009021F0A9
:10041000004123F00045B8EB0200A94105D2404657
:10042000214690461C460B46024623F000401043EE
:1004300047D0270DC7F30A00C3F30A510290401AB0
:10044000019040286BDAC3F3130040F4801B00983E
:10045000924620B10023D2EB030A63EB0B0B019809
:100460005946C0F14002504600F091F906460D464B
:1004700050465946019A00F0A9F910EB0800614175
:10048000002487EA115284EAE7731A4340D0009AA5
:1004900062B3019A012A4FEA075215DC001B61EB97
:1004A00002014FF0004202EA0752CDE90042001C6F
:1004B00041F5801132462B4600F0E0F903B0BDE86B
:1004C000F08F40462146F9E7001B61EB0201001C5A
:1004D00041F5801300185B412018A2F5001747EB87
:1004E000030140EAD570B6196D4111E06D084FEA7D
:1004F000360645EAC0754FEA0752001B61EB020160
:10050000001C41F5801149084FEA300000195141A3
:1005100032462B4603B0BDE8F04F00F0A0B900987A
:10052000012240000023D0EB020263EBE07300984D
:1005300021464FEAE074B8EB000061EB0401E9E703
:1005400083F000435BE781F0004158E72DE9FE4F5F
:1005500081EA030404F0004421F0004100944FF0CC
:10056000000B23F0004350EA01045ED052EA03047A
:100570005BD0C3F30A54C1F30A552C44A4F2F334FC
:100580000194A0FB0254C1F3130141F48011C3F3A1
:10059000130343F4801301FB024400FB034E840A5F
:1005A000970A44EA815447EA8357A4FB07680295F7
:1005B0008D0A05FB07854FEA932C04FB0C54270595
:1005C000029D4FEA065847EA1637B5EB08056EEB71
:1005D000070C870E920E47EA811742EA8312A7FBA7
:1005E0000201B6EB0B0164EB00042B0D43EA0C3364
:1005F0005E1844EB1C50DA465146E7FB0201C5F396
:1006000013044FEA0B3343EA14534FEA0432019CBC
:1006100043EA0603A4F10C040294009CCDE900B463
:1006200000F02CF903B0BDE8F08F00200146F9E797
:100630002DE9F04D81EA030404F0004B21F0004560
:1006400014464FF0000A23F0004150EA050220D082
:1006500054EA01021DD0C5F30A570246C5F313033D
:10066000C1F31300C1F30A5640F4801543F480131C
:10067000A7EB0608101BD64608F2FD3873EB050001
:1006800002D308F1010801E092185B41B8F1000FB4
:1006900003DA00200146BDE8F08D00204FF4801100
:1006A000064684460EE0171B73EB050705D3121BA5
:1006B00063EB050306434CEA010C49084FEA30009E
:1006C00092185B4150EA0107EDD152EA030012D0C3
:1006D00082EA040083EA0501084305D0101BAB4100
:1006E00006D20122002306E000224FF0004302E080
:1006F0006FF0010253101AEB06004CEB085110EB9F
:100700000A0041EB0B01BDE8F04D00F0A8B80EB5B2
:10071000C10F80EAE0700844CA07002140F2334369
:100720008DE80E000A460B4600F0A8F803B000BDA5
:1007300000F0004230F000400AD0C10D01F56071B8
:10074000C0F3160042EA0151C20840071143704746
:1007500000200146704701F0004330B421F0004111
:1007600050EA010206D00A0DA2F56072C1F313012E
:10077000002A02DC30BC00207047440F44EAC10468
:10078000C100E01830BC00EBC25000F031B8202AA4
:1007900004DB203A00FA02F1002070479140C2F1D8
:1007A000200320FA03F3194390407047202A04DB0A
:1007B000203A21FA02F00021704721FA02F3D040DA
:1007C000C2F120029140084319467047202A06DBF7
:1007D000CB17203A41FA02F043EAE07306E041FA0F
:1007E00002F3D040C2F120029140084319467047FD
:1007F0000029A8BF7047401C490008BF20F0010035
:10080000704710B4B0FA80FC00FA0CF050EA010412
:1008100004BF10BC704749B1CCF1200421FA04F4A4
:1008200011FA0CF118BF012121430843A3EB0C017D
:10083000CB1D4FEA00614FEA102042BF002010BCE0
:10084000704700EBC35010440029A4BF10BC704790
:10085000401C490008BF20F0010010BC704710B5D3
:10086000141E73F1000408DA401C41F100019218D3
:100870005B411A4301D120F0010010BD2DE9F04D7C
:1008800092469B4611B1B1FA81F202E0B0FA80F2D1
:1008900020329046FFF77BFF04460F4640EA0A00ED
:1008A00041EA0B0153465A46084313D0114653EA16
:1008B000010019D0C8F140025046FFF777FF054606
:1008C0000E46504659464246FFF761FF084305D0A1
:1008D000012004E020463946BDE8F08D00200543A4
:1008E00046EAE0762C4337430A986305E40AA0EB16
:1008F00008000022FD0A44EA47540A3002D50020CD
:100900000146E9E7010510196941DDE908450019CB
:100910006941BDE8F04DA2E7064C074D06E0E068EE
:1009200040F0010394E8070098471034AC42F6D336
:10093000FFF740FC70B3000890B300082DE9F04DBC
:1009400000231A461B1A8A4103DB00200146BDE83A
:10095000F08DC1F30A52C1F3130141F480154FF039
:10096000000BD10702D100186D41521E002704462A
:1009700040F2FF11384601EB620A3E4680460246CD
:1009800000204FF48011FFF711FFC2197141BB180D
:1009900046EB0100B4EB030C75EB000C04D3E41A36
:1009A00065EB000517460E46241908F101006D415C
:1009B00080463428E3DDF91946EB0600091BA841FF
:1009C00003D24FF0FF32134601E0002213461BEB27
:1009D000070046EB0A51BDE8F04DFFF740BF70B588
:1009E0008C1810F8015B15F0070301D110F8013BDA
:1009F0002A1106D110F8012B03E010F8016B01F861
:100A0000016B5B1EF9D12B0705D40023521E0DD4B8
:100A100001F8013BFAE710F8013BCB1A921C03E006
:100A200013F8015B01F8015B521EF9D5A142D8D33E
:100A3000002070BDCA430260704721B1826842F055
:100A40000102826003E0826822F001028260704746
:100A50000021084A1168084A1140D0E900231A43CE
:100A600083681A43C3681A431143044AC2F8041343
:100A70007047000004230140E030FCFF00200140EB
:100A80000146C86C80B270470246002013680B40D4
:100A90000BB1012000E000207047000030B5024695
:100AA000002000235068104C20400D790C6844EA67
:100AB00005242043506090680C4C2040D1E9035439
:100AC0002C438D682C434D7944EA450420439060C3
:100AD000D06A20F470000C7D641EE4B2234340EA27
:100AE0000350D06230BD0000FFFEFFFCFDF7FFC0E9
:100AF000F0B504460D4600200021092D11DDE06807
:100B0000A5F10A0606EB4607072606FA07F1884311
:100B1000A5F10A0606EB460603FA06F10843E06073
:100B20000CE0206905EB4507072606FA07F1884324
:100B300005EB450603FA06F108432061072A0FDAA0
:100B4000606B561E06EB86071F2606FA07F18843E0
:100B5000561E06EB860605FA06F10843606322E09E
:100B60000D2A0FDA206BD61F06EB86071F2606FA22
:100B700007F18843D61F06EB860605FA06F10843FF
:100B8000206310E0E06AA2F10D0606EB86071F263F
:100B900006FA07F18843A2F10D0606EB860605FA70
:100BA00006F10843E062F0BD816841F08041816058
:100BB0007047000038B10849096841F40001074A4C
:100BC000C2F8041306E00449096821F40001034A4D
:100BD000C2F80413704700000423014000200140C4
:100BE00010B52DED028BB0EE408AB0EE480A03F04E
:100BF0006BFFBDEC028B10BD10B52DED028BB0EE7E
:100C0000408AF0EE608AF0EE680AB0EE480A04F01E
:100C100057FABDEC028B10BD10B52DED028BB0EE76
:100C2000408AB0EE480AFFF741FBBDEC028B10BDD5
:100C3000F0EE400AF5EEC00AF1EE10FA02DDB0EE79
:100C4000600A7047B1EE600AFBE7000018B19FED43
:100C5000020A80ED000A70470000000018B19FED05
:100C6000020A80ED000A7047DF8FB44170B52DEDA8
:100C70000C8B84B006460C4615469FED990AF0EEA3
:100C8000408A9FED970AB0EE409A9FED950AF0EEEC
:100C900040BA9FED930AF0EE409A9FED910AB0EEB4
:100CA00040AA0EB104B11DB904B0BDEC0C8B70BDEF
:100CB0008C48FFF7CBFF8C48FFF7D0FF8A48D0ED78
:100CC000000A9FED8A1A60EE810AB0EE600A00F019
:100CD00039F9F0EE408A28EEA80AF0EE408A824800
:100CE000D0ED000AB0EE001A60EE810A9FED7F1A87
:100CF00060EE810AB0EE600A00F024F9B0EE409A8E
:100D000029EE090AB0EE409ADFED790AB7EE000A43
:100D100000EEA80ADFED770A00EEC90ADFED760AD9
:100D200020EE200A754880ED000A6E4890ED000A1A
:100D3000DFED730A80EE201AB7EE000A31EE000AEA
:100D400020EE000A6D48D0ED000A80EE801A6D4852
:100D500080ED001A94ED000AB5EEC00AF1EE10FA2B
:100D60000DD194ED010AB5EEC00AF1EE10FA06D1EC
:100D700094ED020AB5EEC00AF1EE10FA46D09FEDEE
:100D8000580AB0EE408A0020019002900390D4ED02
:100D9000000A60EEA00A94ED011AD4ED011A41EEAA
:100DA000210A94ED021AD4ED021A41EE210AB0EEA6
:100DB000600A00F0A9F8B0EE408A94ED000A20EE37
:100DC000080A8DED010A94ED010A20EE080A8DED66
:100DD000020A94ED020A20EE080A8DED030ADDED09
:100DE000010AF1EE600AB0EE600AFFF7F9FEF0EEDC
:100DF000409A9DED031AF0EE410A9DED021AB0EE05
:100E0000410AFFF7F9FEB0EE40AA07E09FED340A71
:100E1000F0EE409A9FED320AB0EE40AA95ED000A3E
:100E2000B5EEC00AF1EE10FA0DD195ED010AB5EE5E
:100E3000C00AF1EE10FA06D195ED020AB5EEC00A2D
:100E4000F1EE10FA3CD0B0EE690A00F07BF8B0EE9B
:100E5000408AB0EE690AFFF7DFFEB0EE40DAB0EE8E
:100E60004A0A00F06FF8F0EE40AAB0EE4A0AFFF727
:100E7000D3FEB0EE40BA28EE2A0AD5ED010A20EEE4
:100E8000200AD5ED000A0DEE200A68EE0B0A95ED5A
:100E9000021A00EE810AB0EE40CA95ED010A20EE7A
:100EA0000B0AD5ED020A0AEEE00AF0EE40CAF0EEB7
:100EB0006C0AB0EE4C0AFFF79FFEF0EE40BA03E07A
:100EC0009FED070AF0EE40BAB0EE4A1AF0EE690A5A
:100ED000B0EE6B0A304604F0A5FC00BFE4E600006B
:100EE00000000000E8020020EC02002035FA8E3CF1
:100EF000C1BFAD3B9DF8C5362F7C1C41F0020020E0
:100F0000506CC24AF4020020F0EE400AF6EE001ADD
:100F100060EEA11AB0EE611AB0EE600A10EE100A8F
:100F20000749A1EB600000EE100A21EE002AF7EE5F
:100F3000081A42EE401A61EE801AB0EE610A70475C
:100F4000DF59375F10B52DED028BB0EE408AB0EE61
:100F5000480AFFF7E7F9BDEC028B10BD2DE9F0411F
:100F60002DED028B9AB00546B0EE408A0E4617462C
:100F7000984600201790189019901490159016908C
:100F80004DB146B13FB1B8F1000F04D0B5EEC08A03
:100F9000F1EE10FA05D100201AB0BDEC028BBDE8CD
:100FA000F08196ED000A8DED170A96ED010A8DEDA0
:100FB000180A96ED020A8DED190A97ED000A8DEDDB
:100FC000140A97ED010A8DED150A97ED020A8DEDD1
:100FD000160A17AA14A9284604F076FA402104A894
:100FE000FFF7FBF90020009001900290039000248D
:100FF00017A904A808F04AF800BF30E004A800EBE5
:10100000041090ED000AD5ED000A20EE200A04A895
:1010100000EB0410D0ED010A95ED011A00EE810AF3
:1010200004A800EB0410D0ED020A95ED021A00EEC0
:10103000810A04A800EB0410D0ED030A95ED031A11
:1010400000EE810A20EE080AF0EE000A80EE201A77
:10105000684600EB840080ED001A601CC4B2042CCA
:10106000CCDB002410E005EB840090ED000A68461C
:1010700000EB8400D0ED000A30EE200A05EB84007E
:1010800080ED000A601CC4B2042CECDB284607F09B
:101090007BFB012080E700000EB54FF4407001F0AB
:1010A000D3FD4FF47A7004F0CBFD06F07FFA06F022
:1010B0004BFA07F087FF01F059F85A2147F23050F8
:1010C00004F06EFC07F046FC002005231A460121BF
:1010D000009000F0FDF8002005231A460121009041
:1010E00000F0C0F902F0E2F901F018FD4FF4E13030
:1010F00003F04AF802F04CFF4FF4E13001F0B4FC89
:1011000011201C21054A4FF00063CDE90021029017
:10111000034A0449081F01F053FC0EBDB811022018
:10112000A06002400444004000BFFEE710B5022169
:10113000084800F0F9FA58B10221064800F01CFAFC
:10114000054A0021034800F012FC034800F006F8AD
:1011500010BD0000006400401007022030B50446B6
:10116000607A022800D130BD40F201622068811A05
:10117000904240D013DCB0F5017F22D007DCA0F212
:101180000120D8B101281AD0022827D118E0A0F2F6
:10119000052020B3A0F2FB300028F6D124E010296E
:1011A0004BD006DC01292DD0022932D00F29ECD1F9
:1011B00036E0112957D012297FD16AE000BF00BF65
:1011C00000BF2078401E3E490870097801EBC1013C
:1011D0003C4A02EB8100214604F068FE6DE02146A6
:1011E000394804F0AFFE68E0207BE17A40EA01254F
:1011F0003648058061E0207BE17A40EA01253348EA
:1012000045805AE0207BE17A40EA01252F4885801D
:1012100053E0207BE17A40EA01252C48C5804CE070
:10122000207BE17A40EA012528480581A17B607B8B
:1012300041EA0025254845813FE0207BE17A40EAEC
:10124000012528B221490882A17B607B41EA002563
:1012500028B21E498881217CE07B41EA002528B222
:101260001A49C88129E0207BE17A40EA012528B2A9
:101270001649C882A17B607B41EA002528B2134948
:101280004882217CE07B41EA002528B20F49888210
:1012900013E0207BE17A40EA012528B20B4908835C
:1012A000A17B607B41EA002508484583217CE07BE7
:1012B00041EA00250548858300BF00BF00BF52E713
:1012C000F000002080070220380702208C0802204E
:1012D0002DE9F0418AB004460D4616461F46DDF85A
:1012E00040800121082001F009FF0121480601F09A
:1012F00015FF0121480601F021FF00214FF0007089
:1013000001F01CFF0320089002208DF8240000202B
:101310008DF8260003208DF8250001208DF8270088
:1013200008A92D4801F000F8092200212A4801F0FF
:1013300043F809220121284801F03EF800208DF8E9
:101340001A0001208DF81B0000208DF81C008DF87C
:101350001D008DF81E008DF81F008DF816808DF889
:1013600017408DF818608DF81950ADF8147005A964
:101370001A4800F072FA00208DF80E008DF80F0068
:1013800001208DF810000020ADF80400ADF8060033
:10139000ADF80800ADF80A00ADF80C0001208DF89A
:1013A000110001A800F03CF9012202210B4800F0D5
:1013B0004BFA14208DF8000004208DF80100002065
:1013C0008DF8020001208DF80300684601F000FC52
:1013D00000200AB0BDE8F081000C0240006400402B
:1013E00010B51021084800F09FF958B110210648A7
:1013F00000F0C2F8054A0121034800F0B8FA03489A
:1014000000F006F810BD000000680040240702202C
:1014100010B504462068A0F2012050B101280DD07B
:10142000022811D0052814D121460B4804F08AFD6A
:1014300010E02146094804F085FD0BE021460748ED
:10144000243804F07FFD05E02146054804F07AFDCC
:1014500000E000BF00BF10BD5C070220340802207E
:10146000580802202DE9F0418AB004460D46164680
:101470001F46DDF840800121022001F03FFE0121DE
:10148000880601F04BFE0121880601F057FE00217D
:101490004FF0806001F052FE4FF44050089002205F
:1014A0008DF8240000208DF8260003208DF82500FB
:1014B00001208DF8270008A92D4800F035FF0922EA
:1014C0000C212B4800F078FF09220D21284800F05C
:1014D00073FF00208DF81A0001208DF81B000020FA
:1014E0008DF81C008DF81D008DF81E008DF81F0072
:1014F0008DF816808DF817408DF818608DF819500A
:10150000ADF8147005A91B4800F0A7F90E208DF85E
:101510000E0000208DF80F0001208DF81000002033
:10152000ADF80400ADF80600ADF80800ADF80A000B
:101530000120ADF80C008DF8110001A800F070F842
:10154000012210210B4800F07FF941208DF80000A6
:1015500004208DF8010000208DF8020001208DF894
:101560000300684601F034FB00200AB0BDE8F081BA
:101570000004024000680040B1F5007F3AD00FDC63
:10158000202928D006DC01291CD004291DD00829D7
:1015900040D11DE0402921D0B1F5807F3AD126E02D
:1015A000B1F5004F31D006DCB1F5806F25D0B1F533
:1015B000006F2FD124E0B1F5803F12D0B1F5003F8C
:1015C00028D111E0154A826025E00822C26022E09D
:1015D0001022C2601FE0082202611CE0102202619A
:1015E00019E00822426016E01022426013E0042253
:1015F000426010E0042242600DE0042242600AE0F2
:10160000002282610422426005E0002282610422FD
:10161000426000E000BF00BF704700000101010010
:1016200010B50021837A012202FA03F13D4A1268C3
:1016300042F001023B4B1A603A4A1C3212688A435C
:10164000384B1C331A60027BCAB9364A0C32126816
:101650008A43344B0C331A604288C38842EA0343FE
:10166000304A4032847A42F834300288838842EA31
:1016700003432C4A4032847A02EBC4025360027B5B
:10168000012A19D1274A0C3212680A43254B0C3320
:101690001A604288038842EA0343224A4032847A2D
:1016A00042F83430C288838842EA03431D4A4032FC
:1016B000847A02EBC4025360C27A3AB9194A121D05
:1016C00012688A43174B1B1D1A6006E0154A121D4B
:1016D00012680A43134B1B1D1A60028932B9114A62
:1016E000143212688A430F4B14331A600289012A9C
:1016F00006D10C4A143212680A430A4B14331A609A
:10170000427B012A06D1074A1C3212680A43054B64
:101710001C331A60034A126822F00102014B1A605E
:1017200010BD00000066004070B504460D4600265E
:1017300060692840002871D0B5F5807F5CD010DC4E
:10174000082D35D006DC012D20D0022D24D0042D0B
:1017500072D127E0102D31D0202D35D0402D6BD106
:1017600038E0B5F5004F60D009DCB5F5007F49D011
:10177000B5F5806F4CD0B5F5006F5DD14FE0B5F594
:10178000803F2DD0B5F5003F56D12FE0A0682D4900
:1017900000F0D4FA064651E0E068032100F0CEFAEA
:1017A00006464BE0E068082100F0C8FA064645E02E
:1017B000E068102100F0C2FA06463FE020690321EC
:1017C00000F0BCFA064639E02069082100F0B6FABC
:1017D000064633E02069102100F0B0FA06462DE0FD
:1017E0006068082100F0AAFA064627E06068102128
:1017F00000F0A4FA064621E0A069012100F09EFA5B
:1018000006461BE0A069022100F098FA064615E0A2
:10181000A069042100F092FA06460FE00FE0A069EB
:10182000702100F08BFA064608E06068042100F0A1
:1018300085FA064602E0FFE7002600BF00E000262A
:10184000304670BD010101001AB143690B43436189
:1018500002E043698B434361704730B50246002084
:101860000023146824F002041460146844F0010496
:10187000146000E05B1C546804F001041CB94FF6CE
:10188000FF74A342F6D1546804F001040CB900209F
:101890006CE08C79012C04D1146844F0800414604D
:1018A00003E0146824F080041460CC79012C04D186
:1018B000146844F04004146003E0146824F0400409
:1018C00014600C7A012C04D1146844F020041460D4
:1018D00003E0146824F0200414604C7A012C04D135
:1018E000146844F01004146003E0146824F0100439
:1018F00014608C7A012C04D1146844F0080414603C
:1019000003E0146824F008041460CC7A012C04D19C
:10191000146844F00404146003E0146824F0040420
:1019200014608C78A407CD7844EA05640D7944EA04
:1019300005444D7944EA05540D886D1E2C43D4614D
:10194000146824F001041460002300E05B1C546858
:1019500004F001041CB14FF6FF74A342F6D15468A1
:1019600004F001040CB1002000E0012030BD10B5EE
:1019700000F5D87303EB01131B6803F00403137223
:10198000137A53B900F5D87303EB01131B6840F2C7
:10199000FF7404EA5353136009E000F5D87303EBB6
:1019A00001131B686FF0604404EAD303536000F531
:1019B000D87303EB01131B6803F00203537200F5A5
:1019C000D87303EB01135B6803F00F03937200F508
:1019D000D87303EB01135B681B0AD37400F5D8734B
:1019E00003EB01139B68D37200F5D87303EB01136B
:1019F0009B681C0A147300F5D87303EB01139B68F2
:101A00001C0C547300F5D87303EB01139B681B0E79
:101A1000937300F5D87303EB0113DB68D37300F500
:101A2000D87303EB0113DB681C0A147400F5D87338
:101A300003EB0113DB681C0C547400F5D87303EB43
:101A40000113DB681B0E937421B9C36843F02003B4
:101A5000C36003E0036943F02003036110BD10B5C8
:101A600002460020936803F08063B3F1806F00D1D9
:101A700010E0936803F00063B3F1006F01D101201F
:101A800008E0936803F08053B3F1805F01D1022036
:101A900000E00420042874D002F5C07303EB0013A7
:101AA0001B6803F0010402F5C07303EB00131C6014
:101AB0000B7A7BB94B7A0C8843EA445302F5C07425
:101AC00004EB00142468234302F5C07404EB0014F3
:101AD000236010E00B7A4C6843EAC4034C7A23433A
:101AE00002F5C07404EB00142468234302F5C074AB
:101AF00004EB001423608B7A03F00F038B7202F562
:101B0000C07303EB00135B6823F00F0402F5C0738E
:101B100003EB00135C6002F5C07303EB00135B681A
:101B20008C7A234302F5C07404EB001463608B7B52
:101B30001C064B7B44EA03440B7B44EA0323CC7A28
:101B4000234302F5C07404EB0014A3608B7C1C06D5
:101B50004B7C44EA03440B7C44EA0323CC7B2343C1
:101B600002F5C07404EB0014E36002F5C07303EBEC
:101B700000131B6843F0010402F5C07303EB00136C
:101B80001C6010BD10B5044664480078401C6349D1
:101B9000087008460078032815DD002008706048AA
:101BA00090ED021AF0EE410A0068008801EE100A7A
:101BB000B8EE411AB0EE410A5948643001F04EF8CF
:101BC000574880ED050A564890ED051AF0EE410A97
:101BD0000068B0F9020001EE100AB8EEC11AB0EECA
:101BE000410A4F481C3001F039F8BDEEC00A10EE32
:101BF000100A00B24A49A1F81402012007F0EEFBD6
:101C0000062C7ED2DFE804F07D033536620400BF87
:101C1000444890ED021AF0EE410A0068008801EE97
:101C2000100AB8EE411AB0EE410A9FED3F1A0021AA
:101C30003C48643001F00AF93A4880ED050A90ED1D
:101C4000051AF0EE410A0068B0F9020001EE100A30
:101C5000B8EEC11AB0EE410A32481C3000F0FEFF67
:101C6000BDEEC00A10EE100A00B22E49A1F814020F
:101C700047E000BF29480078022810DD294890ED90
:101C8000020AF0EE400A9FED281A0021274890ED45
:101C9000000A274801F0DAF8224880ED050A2148B9
:101CA00090ED051AF0EE410A224890ED051AB0EECB
:101CB000410A1F48483800F0D1FFBDEEC00A10EEBF
:101CC000100A00B21749A1F814021AE0154800687A
:101CD000008800EE900AF8EE600AB0EE600A9FED10
:101CE000121A0021DFED140A1148903001F0AEF80D
:101CF000BDEEC00A10EE100A00B20A49A1F81402A3
:101D000000BF00BF064AB2F91412064AB2F9140223
:101D100000231A4603F0B6FE10BD00001C0100208F
:101D2000C40A0220AC08022000F8FF45040100208C
:101D3000E8090220D0060220004053450246002058
:101D400002EA01030BB1012000E00020704700000F
:101D500039B1084A1268012383401A43054B1A60BF
:101D600006E0044A1268012383409A43014B1A603B
:101D7000704700000074004030B5002200230A4C78
:101D8000226840F6FE748440A243D1E900452C430A
:101D90008D682C43CD6844EA050303FA00F422431E
:101DA000014C226030BD00000074004008B50022E4
:101DB0000092054A009200F10802009B1A4400922A
:101DC000009A116008BD00000074004010B5094978
:101DD000094800F05DF958B10649074800F03CF8A1
:101DE0000021054800F06CF80449034800F04EF863
:101DF00010BD000000002020A060024000802020D4
:101E000010B51049104800F043F9C8B10D490E480B
:101E100000F022F805F058FC08F0D8F901280FD09E
:101E20000A490B48006807F087FB0848006838B18A
:101E30004FF0805007490860BFF34F8FBFF36F8F9B
:101E400010BD00000008002088640240E402002069
:101E50006802002004ED00E00246094B9A4201D2DC
:101E6000084801E00648103801F000531BB1064B4A
:101E70000B40C36002E0044B0B40836070470000DE
:101E800010640240006002407D0F7D0F0246094B46
:101E90009A4201D2084801E00648103801F0005388
:101EA0001BB1064B0B40C36002E0044B0B40836048
:101EB0007047000010640240006002407D0F7D0FFB
:101EC00021B1026842F00102026003E0026822F0E0
:101ED0000102026070470000016821F00101016009
:101EE0000021016041608160C16001612121416187
:101EF0004A49884204D13D21484A103A91608CE019
:101F000046491831884205D14FF47461434A103A6A
:101F1000916082E041493031884205D14FF474111B
:101F20003E4A103A916078E03C494831884205D1F8
:101F30004FF07461394A103A91606EE03749603170
:101F4000884204D13649354A103AD16065E03349B8
:101F50007831884204D13349304A103AD1605CE08C
:101F60002E499031884204D12F492C4A103AD16031
:101F700053E02A49A831884205D14FF03D51274A04
:101F8000103AD16049E02949884204D13D21274ACD
:101F9000083A116041E025491831884205D14FF4D3
:101FA0007461224A083A116037E020493031884292
:101FB00005D14FF474111D4A083A11602DE01B49F8
:101FC0004831884205D14FF07461184A083A1160CF
:101FD00023E016496031884204D11149134A121F87
:101FE00011601AE011497831884204D10D490F4A35
:101FF000121F116011E00D499031884204D10A4945
:102000000A4A121F116008E00849A831884204D129
:102010004FF03D51054A121F116070471060024099
:102020003D000020400F002000003D2010640240D1
:1020300021B1026842F48022026003E0026822F4C7
:1020400080220260704722B1036843F400230360DA
:1020500003E0036823F40023036001617047014635
:1020600000200A6802F001020AB1012000E000200D
:1020700070470146486880B27047014600200A68F0
:1020800002F400220AB1012000E0002070470000A5
:1020900030B503460A46002000240B4DAB4201D266
:1020A0000A4901E00849103902F000550DB14C68A9
:1020B00000E00C68064D2C4004EA02050DB1012039
:1020C00000E0002030BD00001064024000600240CB
:1020D0007D0F7D0F10B501F080034BB122B1436934
:1020E00043F08003436103E0436923F080034361CD
:1020F00080290BD02AB1036801F01E04234303603A
:1021000004E0036801F01E04A343036010BD000057
:1021100010B500220268134B1A40CC680B682343A9
:102120004C6923438C692343CC6923430C6A2343C2
:102130004C6A23438C6A23434C6B23438C6B2343AD
:102140001A430260426922F00702D1E90B342343AB
:102150001A4342610B6943604B6883608B68C360BC
:1021600010BD00003F801CF04160704700B587B093
:102170000121084600F0C2FF0121480700F0CEFF10
:102180001020059003208DF8180002208DF81B0008
:1021900005A90B4800F0C8F80020019002900390B8
:1021A0000220049001A90020FFF7E6FD0121002094
:1021B000FFF7CEFD00210846FFF7F8FD07B000BD90
:1021C00000000240704710B54FF4807000F012F824
:1021D00040B14FF4807000F007F805F07DFA172049
:1021E00001F03AFA10BD0000014908607047000094
:1021F000143C014001460020034A12680A400AB11B
:10220000012000E000207047143C014000212349D8
:102210008279002A3AD00A46126803689A430B462C
:102220001A600A1D126803689A430B1D1A6002792E
:1022300011440A6803681A430A60184A083212688F
:1022400003689A43154B08331A601A1D1268036815
:102250009A43124B0C331A604279102A0ED11A1F7E
:10226000126803681A430D4B08331A601A1D12686E
:1022700003681A43094B0C331A600DE00749427991
:1022800011440A6803681A430A6005E002791144A0
:102290000A6803689A430A6070470000003C0140E6
:1022A00000B585B00121022000F028FF012188033C
:1022B00000F054FF0821012001F0C6FA4FF48070AD
:1022C000009000208DF8040001208DF80600002009
:1022D0008DF8070003208DF805006946114800F0CD
:1022E00023F84FF48070029000208DF80C00082035
:1022F0008DF80D0001208DF80E0002A8FFF786FF73
:1023000017208DF8100005208DF8110000208DF8A1
:10231000120001208DF8130004A800F059FC05B04C
:1023200000BD000000040240F0B50A460021002371
:10233000002400BF3DE0012505FA01F3156805EA18
:1023400003049C4234D105684F000326BE40B543C8
:10235000056015794E00B54006683543056015796E
:10236000012D02D01579022D16D185684F00032664
:10237000BE40B543856055794E00B540866835430B
:102380008560456801268E40B5434560456896796D
:102390008E40B6B235434560C5684F000326BE4047
:1023A000B543C560D5794E00B540C6683543C560B4
:1023B000491C1029BFD3F0BDF0B5002300244D0700
:1023C000ED0E02FA05F3CE1000F1200555F8265067
:1023D0004E07F70E0F26BE40B543CF1000F1200682
:1023E00046F82750CE1000F1200555F8265045EA52
:1023F0000304CE1000F1200545F82640F0BD4183CE
:10240000704701837047000030B5034613B94FF69B
:10241000FF7030BD09E013F8014B82EA0400C0B23E
:10242000054D35F8100080EA2222081EA1F10101B5
:10243000F1D11046EDE700003AA8000830B5034698
:1024400005E013F8010B80EA02040448025D081E4F
:10245000A1F10101F5D1104630BD000039A70008F7
:10246000B0EE001AC0EE010A90ED001AD1ED001A8C
:1024700031EE611AF4EEC10AF1EE10FA06D2D1ED96
:10248000000A70EE800AC1ED000A16E0F0EE000AC4
:1024900080EE201AF1EE410A90ED001AD1ED001AFB
:1024A00031EE611AF4EEC10AF1EE10FA05DDD1ED5C
:1024B000000A70EEC00AC1ED000A704700BFFEE7D7
:1024C000F0B50546059C00207FE093ED050A00EB82
:1024D0004006404F07EB8606D6ED000A20EE200AA4
:1024E000D3ED060A00EB400607EB860696ED011ACF
:1024F00000EE810AD3ED070A00EB400607EB8606E3
:1025000096ED021A00EE810A334E06EB8006D6EDF8
:10251000000A30EE200A05EB800686ED000A93EDF6
:10252000010A00EB40062D4F07EB8606D6ED000AA8
:1025300020EE200AD3ED020A00EB400607EB8606E8
:1025400096ED011A00EE810AD3ED030A00EB400676
:1025500007EB860696ED021A00EE810A204E06EB86
:102560008006D6ED000A30EE200A01EB800686EDEB
:10257000000A94ED010A00EB40061A4F07EB8606AD
:10258000D6ED000A20EE200AD4ED020A00EB400648
:1025900007EB860696ED011A00EE810AD4ED030AD8
:1025A00000EB400607EB860696ED021A00EE810A64
:1025B0000D4E06EB8006D6ED000A30EE200A02EB47
:1025C000800686ED000A461CF0B20328FFF67DAFB8
:1025D000F0BD0000700200202012022094020020B2
:1025E0002C120220B80200204812022010B52DED56
:1025F000028BB0EE408A2348007818B303F06EFDDA
:10260000F0EE408AF0EE680AB0EE480A1E4800F08C
:1026100025FB1D4890ED080AB5EEC00AF1EE10FA50
:1026200003D29FED1A0A80ED080A174890ED080AB8
:10263000BCEEC00A10EE100A84B22146144801F024
:10264000C0FB1CE003F04AFDB4EEC80AF1EE10FA3C
:1026500010D210480078401C0E49087008460078D7
:10266000C82807DD0120074908709FED0B0A0648BE
:1026700080ED0A0A41F28731054801F0A2FBBDEC6A
:10268000028B10BDDC02002094120220000000002A
:1026900000040040E002002000401C4508B507206F
:1026A00006F09CFE00BF05F04DF80028FBD100BFEE
:1026B00004F0B2FD0028FBD105F08AF9044607F0CA
:1026C00033FDA5490860FFF7EBFD1722A349A44895
:1026D00000F0FCFF01221146A24801F07FF8012220
:1026E0000221A04801F07AF80021102000F09CFFA0
:1026F00031E100BF4FF0FF31012006F08DFC0128D1
:10270000F8D199499548401C05F08AF897499348B3
:10271000103004F0C9FD9548934B954A95490090B7
:102720009548FFF7CDFE9048007800F001000028A2
:1027300046D092480078E8BB012141F2883001F090
:102740009BF9DFED8F0A9FED8F0A8F4A01218F4899
:1027500000F0A4FC864A87498D48FEF787FA8D4B26
:102760001A1F111F8A4803F02DFB824890ED000AC2
:10277000894880ED000A894880ED000A884880ED8C
:10278000000A7C4890ED010A834880ED010A8348E5
:1027900080ED010A824880ED010A764890ED020A38
:1027A0007D4880ED020A7D4880ED020A7C4880ED7C
:1027B000020A00E005E071480078401C6F4908708B
:1027C000BAE0764890ED000A754880ED000A72483C
:1027D00090ED000A714880ED000A90ED000A714802
:1027E000D0ED000A20EE200A6D48D0ED000A6D48B9
:1027F00090ED011A00EE810A5E48D0ED000A6948AA
:1028000090ED021A00EE810A634880ED000A6348E9
:1028100090ED010A624880ED010A5F4890ED010ADF
:102820005E4880ED010A90ED010A5E48D0ED000A95
:1028300020EE200A5A48D0ED010A5A4890ED011ABC
:1028400000EE810A4B48D0ED010A564890ED021A7D
:1028500000EE810A504880ED010A504890ED020ACE
:102860004F4880ED020A4C4890ED020A4B4880ED3B
:10287000020A90ED020A4B48D0ED000A20EE200A31
:102880004748D0ED020A474890ED011A00EE810A50
:102890003848D0ED020A434890ED021A00EE810A52
:1028A0003D4880ED020A324B024633499FED3E0A15
:1028B0003748FEF753FB374B1A1F111F344803F0FC
:1028C00081FA3A480088B8B9394890ED000A394889
:1028D00080ED000A364890ED010A364880ED010A85
:1028E000334890ED020A334880ED020A2F480088F1
:1028F000401C2E4908801FE02C480088B0F5FA7F64
:102900000EDA0021084603F0AFF82B48007898B1A2
:1029100015480278254B1849264803F061FF0BE063
:1029200022480088B0F5FA7F06D103F095F81F48D9
:102930000088401C1D4908800B48D0ED040AB0EE09
:10294000600AFFF753FE002006F0F2FB1B49086007
:10295000012006F043FDCCE668020020DC110220D5
:102960003CAA000800500140F41102203812022055
:102970006C1202206012022054120220DD0200209C
:102980000080894500A08C4554AA000894120220BA
:102990008412022080120220F4120220E812022087
:1029A000DC12022060AA00086F12833ADE020020C7
:1029B0001412022020120220DC0200206C020020EF
:1029C0002DE9F04790B007460C4615461E46DDE956
:1029D000199ADDF860802846FFF77EFA00BF284686
:1029E000FFF73DFB0028FAD100960194CDF808804E
:1029F00040200390CDF81090002005904FF48060A7
:102A0000069000200790089009904FF480300A90BB
:102A100000200B9003200C9000200D900E90694632
:102A20002846FFF775FB0AF0FF008DF83C000220F6
:102A30008DF83D0004208DF83E0001208DF83F0008
:102A40000FA800F0C5F801228021384601F00BFCE8
:102A500000212846FFF734FA012210212846FFF70B
:102A600039FB10B0BDE8F08710B588B004460121ED
:102A7000084600F043FB0121480400F04FFB012110
:102A8000480500F03BFB072202212248FFF794FC97
:102A9000072203211F48FFF78FFC0C20059002201E
:102AA0008DF8180000208DF81A0001208DF81B0009
:102AB00002208DF8190005A91648FFF735FC01948E
:102AC0000020ADF80800ADF80A00ADF80C00ADF834
:102AD00010000820ADF80E0001A90F4801F094FC89
:102AE00001210D4801F0B3FB012240F224410A48C4
:102AF00001F064FC26208DF81C0004208DF81D00D8
:102B00008DF81E0001208DF81F0007A800F060F866
:102B100008B010BD000002400044004000B58BB07A
:102B20000121082000F0FAFA0121080200F0E6FA7B
:102B3000022200212248FFF73FFC012009900220D9
:102B40008DF8280003208DF8290000208DF82A0038
:102B500001208DF82B0009A91948FFF7E5FB42F287
:102B60002730ADF81800C82007900020ADF81A00F3
:102B7000192003906020ADF804000120ADF8060094
:102B80000020ADF8100001A90E4801F0CFF808218F
:102B90000C4801F007F901210A4800F0DBFF012190
:102BA000084800F0E6FF0020ADF8200006A905481F
:102BB00001F00CF90121034800F0E7FF0BB000BD64
:102BC00000200240000C004000BFFEE770470000FC
:102BD00070B5002100230F22C4781CB3174C246861
:102BE00004F4E064C4F5E064C4F30721C1F1040413
:102BF000E3B20A4144789C40E1B284781440214316
:102C00000C07210E0E4C05786155047804F01F0561
:102C10000124AC4005786D11AD0005F1E025C5F843
:102C2000004109E0047804F01F050124AC40054D83
:102C30000678761145F8264070BD00000CED00E0E6
:102C400000E400E080E100E002490143024A116033
:102C5000704700000000FA050CED00E0B0EE401AED
:102C600010B99FED790A704790ED100A80ED110AB6
:102C700090ED0F0A80ED100AC0ED060A80ED071AEC
:102C800030EEC10A80ED0F0A0178002975D190ED70
:102C9000010AD0ED0F1A20EE210A80ED090A90ED0D
:102CA0000A0AD0ED021A90ED0F2A01EE820A80ED99
:102CB0000A0A90ED0D0A80ED0E0A90ED0C0A80EDE7
:102CC0000D0A90ED0F0AD0ED101A30EE610A80ED7A
:102CD0000C0A90ED030AD0ED0C1A20EE210A80EDCB
:102CE0000B0A90ED0A0AD0ED051AB4EEE10AF1EEF6
:102CF00010FA04DD90ED050A80ED0A0A10E090ED6F
:102D00000A0AD0ED051AF1EE611AB4EEE10AF1EE0D
:102D100010FA05D290ED050AB1EE400A80ED0A0ADC
:102D200090ED090AD0ED0A1A30EE210AD0ED0B1A07
:102D300030EE210A80ED080A90ED080AD0ED041A61
:102D4000B4EEE10AF1EE10FA04DD90ED040A80ED34
:102D5000080A76E090ED080AD0ED041AF1EE611A47
:102D6000B4EEE10AF1EE10FA6BD290ED040AB1EE86
:102D7000400A80ED080A64E0FFE70178012960D18C
:102D800090ED0F0AD0ED101A30EE610AD0ED011A65
:102D900020EE210A80ED090A90ED020AD0ED0F1A0B
:102DA00020EE210A80ED0A0A90ED0D0A80ED0E0A50
:102DB00090ED0C0A80ED0D0A90ED0F0AD0ED101A7F
:102DC000B0EE002A02EE610AD0ED111A30EE210AAF
:102DD00080ED0C0A90ED030AD0ED0C1A20EE210ACA
:102DE00080ED0B0A90ED090AD0ED0A1A30EE210AA7
:102DF000D0ED0B1A30EE210AD0ED081A30EE210A80
:102E000080ED080A90ED080AD0ED041AB4EEE10A4C
:102E1000F1EE10FA04DD90ED040A80ED080A10E0EE
:102E200090ED080AD0ED041AF1EE611AB4EEE10A51
:102E3000F1EE10FA05D290ED040AB1EE400A80EDF1
:102E4000080A90ED080A0EE70000000003B52DED1A
:102E5000040B02460B46B0EE412A1AB99FED8E0ACA
:102E600006B000BDB0EE420A694601A8FFF7F8FAC5
:102E700092ED100A82ED110A92ED0F0A82ED100A0E
:102E80009DED010A82ED060A9DED000A82ED070A1A
:102E90009DED010ADDED000A30EE600A82ED0F0AB9
:102EA0001078002875D192ED010AD2ED0F0A20EEBC
:102EB000200A82ED090A92ED0A0AD2ED020A92ED89
:102EC0000F1A00EE810A82ED0A0A92ED0D0A82EDD8
:102ED0000E0A92ED0C0A82ED0D0A92ED0F0AD2ED68
:102EE000100A30EE600A82ED0C0A92ED030AD2ED70
:102EF0000C0A20EE200A82ED0B0A92ED0A0AD2EDAE
:102F0000050AB4EEE00AF1EE10FA04DD92ED050ACE
:102F100082ED0A0A10E092ED0A0AD2ED050AF1EEFE
:102F2000600AB4EEE00AF1EE10FA05D292ED050A5D
:102F3000B1EE400A82ED0A0A92ED090AD2ED0A0AC0
:102F400030EE200AD2ED0B0A30EE200A82ED080A9C
:102F500092ED080AD2ED040AB4EEE00AF1EE10FA9E
:102F600004DD92ED040A82ED080A76E092ED080A8B
:102F7000D2ED040AF1EE600AB4EEE00AF1EE10FAC6
:102F80006BD292ED040AB1EE400A82ED080A64E0C9
:102F9000FFE71078012860D192ED0F0AD2ED100AF8
:102FA00030EE600AD2ED010A20EE200A82ED090A15
:102FB00092ED020AD2ED0F0A20EE200A82ED0A0AF3
:102FC00092ED0D0A82ED0E0A92ED0C0A82ED0D0AC9
:102FD00092ED0F0AD2ED100AB0EE001A01EE600A6F
:102FE000D2ED110A30EE200A82ED0C0A92ED030AAE
:102FF000D2ED0C0A20EE200A82ED0B0A92ED090AAE
:10300000D2ED0A0A30EE200AD2ED0B0A30EE200A89
:10301000D2ED080A30EE200A82ED080A92ED080A85
:10302000D2ED040AB4EEE00AF1EE10FA04DD92EDFE
:10303000040A82ED080A10E092ED080AD2ED040AB3
:10304000F1EE600AB4EEE00AF1EE10FA05D292ED6C
:10305000040AB1EE400A82ED080A92ED080AB5EEC4
:10306000C00AF1EE10FA02DD92ED080A03E092EDDB
:10307000080AB1EE400A00EE903AF8EEE00AB4EE2B
:10308000E00AF1EE10FA03D29FED030A82ED080A7E
:1030900092ED080AE4E600000000000000B102B969
:1030A0007047017092ED001A80ED011A92ED011A3D
:1030B00080ED021A92ED021A80ED031A80ED040AE7
:1030C000C0ED050A9FED0C1A80ED0E1A80ED0D1A69
:1030D00080ED0C1A9FED081A80ED081A80ED0B1A8E
:1030E00080ED0A1A80ED091A80ED111A80ED101A90
:1030F00080ED0F1A00BFD3E70000000029B1064A97
:1031000012680243044B1A6004E0034A12688243C7
:10311000014B1A60704700003038024029B1064A5E
:1031200012680243044B1A6004E0034A12688243A7
:10313000014B1A60704700004038024029B1064A2E
:1031400012680243044B1A6004E0034A1268824387
:10315000014B1A60704700002038024029B1064A2E
:1031600012680243044B1A6004E0034A1268824367
:10317000014B1A60704700004438024029B1064AEA
:1031800012680243044B1A6004E0034A1268824347
:10319000014B1A607047000024380240F0B500214E
:1031A00000220024022500260223324F3F6807F048
:1031B0000C0121B1042905D0082937D105E02E4F93
:1031C000076036E02D4F076033E02A4F3F1F3F680E
:1031D000C7F38056274F3F1F3F6807F03F036EB18C
:1031E000264FB7FBF3F7DFF88CC0ACF1040CDCF82A
:1031F00000C0CCF3881C07FB0CF40CE01E4FB7FB9F
:10320000F3F7DFF870C0ACF1040CDCF800C0CCF3CD
:10321000881C07FB0CF4174F3F1F3F68C7F301479B
:103220007F1C7D00B4FBF5F7076002E0124F0760DA
:1032300000BF00BF0F4F3F6807F0F0010909104FB2
:103240007A5C0768D74047600A4F3F6807F4E0514F
:10325000890A0B4F7A5C4768D7408760054F3F6803
:1032600007F46041490B064F7A5C4768D740C76056
:10327000F0BD0000083802400024F400001BB70035
:103280001400002070B590B004460E46154601218A
:103290004A48FFF733FF01211020FFF75FFF0121AC
:1032A0001020FFF76BFF00211020FFF767FF0722B8
:1032B00011464348FFF780F880200E9002208DF8D9
:1032C0003C0000208DF83E0003208DF83D000020DA
:1032D0008DF83F000EA93A48FFF726F8394800F06C
:1032E000CBFF39480A900020ADF82C00ADF82E0035
:1032F0004FF48060ADF830000420ADF832000020BB
:10330000ADF834000AA92F4801F07EF801224021CF
:103310002C4800F0A8FF10212A4800F08FFF01225E
:1033200040F22441274801F049F80121254800F0E6
:103330008EFF25208DF83C0004208DF83D000020F4
:103340008DF83E0001208DF83F000FA8FFF740FCEC
:103350001E48FEF7C1FD4FF0006001901948001DA6
:103360000290039400200490059506904FF480602D
:1033700007900020089009904FF480700A904FF455
:1033800040300B9000200C900D900E900F9001A9F2
:103390000E48FEF7BDFE002231460C48FEF753FEF4
:1033A00001210A48FEF744FE00210848FEF788FD87
:1033B00001210648FEF784FD10B070BD02004000F8
:1033C0000004024000100140A08601004064024059
:1033D00000B101B970470278437842EA0322C2F390
:1033E0000A020A804278D210837842EA4312C2F37A
:1033F0000A024A8082789211C37842EA83020379F2
:1034000042EA8322C2F30A028A8002795210437987
:1034100042EAC312C2F30A02CA804279C2F301121D
:103420008A72427912119308CB728279C37942EA87
:10343000032212B28A81027A437A42EA032213B249
:1034400001F10C02CB81827AC37A42EA032213B2E1
:1034500001F10C020B82037B8B74437BCB74827B68
:10346000C37B42EA03228A82027C437C42EA032233
:1034700012B20A810A88A2F5806212B20A804A88D2
:10348000A2F5806212B24A808A88A2F5806212B2E6
:103490008A80CA88A2F5806212B2CA800A89A2F51F
:1034A000806212B20A8100BF94E7000000B587B0C5
:1034B00001211020FFF722FE01214803FFF74EFEF5
:1034C0004FF48350059002208DF8180000208DF8ED
:1034D0001A0003208DF8190001208DF81B0005A9A2
:1034E0001F48FEF721FF052211461D48FEF764FF25
:1034F000052206211A48FEF75FFF05220C21184815
:10350000FEF75AFF01214803FFF738FE00214FF470
:103510000050FFF733FE0020ADF800004FF482703A
:10352000ADF802000020ADF80400ADF80600ADF8DB
:1035300008004FF40070ADF80A001020ADF80C0040
:103540000020ADF80E000A20ADF8100069460548CD
:1035500000F05BF90121034800F034F907B000BD29
:10356000001002400034014000B587B00121202046
:10357000FFF7C4FD01210805FFF7F0FD4FF460706F
:10358000059002208DF8180000208DF81A00012007
:103590008DF81B0003208DF8190005A92048FEF7BF
:1035A000C3FE052207211E48FEF706FF052208215B
:1035B0001B48FEF701FF052209211948FEF7FCFE12
:1035C00001210805FFF7DAFD00214FF48010FFF715
:1035D000D5FD0020ADF800004FF48270ADF8020078
:1035E0000020ADF804000220ADF806000120ADF87F
:1035F00008004002ADF80A003820ADF80C000020A9
:10360000ADF80E000720ADF810006946054800F03F
:10361000FCF80121034800F0D5F807B000BD000018
:1036200000140240005001400A4A12884FF2C7734A
:103630001A40084B1A801A46128802431A801A460A
:1036400012880A431A801A46128842F040021A80F1
:10365000704700000050014010B504460021184892
:10366000FEF72EFC002116481830FEF729FC00BF9B
:103670001348FEF7F4FC0028FAD100BF10481830B8
:10368000FEF7EDFC0028F9D10E490D481830FEF781
:10369000E3FB0D490A48FEF7DFFB21460848FEF729
:1036A00063FD214606481830FEF75EFD01210448FF
:1036B0001830FEF705FC01210148FEF701FC10BDA2
:1036C00070640240000C00203000002070B590B003
:1036D00005460E46144601218805FFF70FFD4420DC
:1036E0008DF83C0005208DF83D0000208DF83E004F
:1036F00001208DF83F000FA8FFF76AFA2F48FEF768
:10370000EBFB00BF2D48FEF7AAFC0028FAD14FF0D2
:10371000606000902A480190029600200390049473
:1037200005904FF480600690002007900890099063
:103730004FF440300A9000200B900C900D900E90AA
:1037400069461E48FEF7E4FC012210211B48FEF7E3
:10375000C1FC00211948FEF7B3FB18481838FEF7E2
:10376000BBFB00BF15481838FEF779FC0028F9D1DB
:103770004FF0806000901248019002954020039025
:103780000494002005904FF480600690002007907C
:10379000089009904FF480300A9000200B900C9014
:1037A0000D900E90694605481838FEF7B1FC0021CF
:1037B00002481838FEF784FB10B070BD88640240E0
:1037C0000C50014021B1028842F04002028004E026
:1037D00002884FF6BF731A40028070471AB183887F
:1037E0000B43838002E083888B43838070470246CB
:1037F000002013890B400BB1012000E0002070472E
:103800000146888970478181704710B5002202887F
:1038100002F441520B884C8823438C882343CC8884
:1038200023430C8923434C8923438C892343CC892C
:1038300023431A430280838B4FF2FF742340838318
:103840000B8A038210BD000030B500228B071C0FCD
:103850000F2303FA04F20B4B8C1053F824309343DC
:10386000084C8D1044F8253023468C1053F8243032
:103870008C07240F00FA04F42343024C8D1044F803
:10388000253030BD083801400CB500200190009073
:103890004148006840F480303F49086000BF3E481E
:1038A000006800F4003000900198401C01900098DE
:1038B00018B90198B0F5A04FF1D13748006800F46D
:1038C000003010B10120009001E00020009000982D
:1038D000012860D130484030006840F080502E49C7
:1038E000403108602D48006840F440402B49086092
:1038F00029480830006828490831086008460068EF
:1039000040F4004008600846006840F4A050086099
:103910002348091F0860081F006840F08070091FD5
:10392000086000BF1C48006800F000700028F9D053
:103930001A48006840F480301849086000BF1748F2
:10394000406800F480300028F9D01448006840F442
:1039500000301249086000BF1048406800F4003091
:103960000028F9D040F205700E4908600A48083076
:10397000006820F003000849083108600846006824
:1039800040F00200086000BF03480830006800F003
:103990000C000828F8D10CBD00380240007000402F
:1039A000062D4008003C0240042808D14FF0E021D9
:1039B000096941F004014FF0E022116107E04FF086
:1039C000E021096921F004014FF0E0221161704704
:1039D00010B506F0FBFB012801D006F053F810BD2E
:1039E00010B51548006840F470001349086013488A
:1039F000006840F001001149086000200F490831BB
:103A000008600E4800680E4908400C4908600D48DF
:103A1000091D0860081F006820F48020091F086045
:103A2000002006490C310860FFF72EFF4FF00060C0
:103A300001498039086010BD88ED00E0003802407F
:103A4000FFFFF6FE1030002410B50121084800F0F9
:103A5000ABF860B10121064800F088F8054802681B
:103A60004068521C40F1000002490A60486010BDE5
:103A7000000400409800002030B58BB005460C468D
:103A800001210220FFF74AFB01210220FFF736FB4C
:103A9000022205212D48FEF78FFC01210220FFF7AD
:103AA0004DFB00210220FFF749FB1D208DF814007B
:103AB00005208DF8150000208DF8160001208DF8E6
:103AC000170005A8FFF784F8681E0990601E80B2F1
:103AD000ADF820000020ADF82200ADF8280001224A
:103AE00011461B4800F071F808A9194800F06EF95A
:103AF0002020069002208DF81C0003208DF81D0068
:103B000000208DF81E0002208DF81F0006A90F4826
:103B1000FEF70AFC6020ADF800000120ADF80200BD
:103B20000020ADF80C006946094800F09FF8082114
:103B3000074800F0EDF80121054800F00BF80121DD
:103B4000034800F016F80BB030BD0000000402403E
:103B50000004004021B1028842F08002028004E0AB
:103B600002884FF67F731A4002807047CA43028270
:103B7000704721B1028842F00102028004E002880D
:103B80004FF6FE731A400280704731B1B0F84420FE
:103B900042F40042A0F8442005E0B0F84420C2F30B
:103BA0000E02A0F84420704730B5024600200023E2
:103BB0000024158A05EA0103958905EA010413B179
:103BC0000CB1012000E0002030BD1AB183890B4305
:103BD000838102E083898B438381704770B5002421
:103BE00000220023058C4FF6FE7635400584028CBA
:103BF0008388048B4FF68F752C40B51E2C400D88A2
:103C00002C43751E2A408D892A434D882A43104D26
:103C1000A84202D00F4DA84213D14FF6F7752A40A3
:103C2000CD892A434FF6FB752A408D882A434FF6EB
:103C3000FF652B404FF6FF552B400D8A2B434D8AD5
:103C40002B43838004838D684563028470BD00002C
:103C500000000140000401400A460021018B4FF69C
:103C6000F7731940114301837047000070B50024B9
:103C700000220023058C4FF6EF7635400584028C38
:103C80008388048B48F6FF752C404FF6FF452C4087
:103C90000D884FF6FF7606EA05252C434FF6DF75B3
:103CA0002A408D8906EA05152A434D8806EA05153E
:103CB0002A43154DA84202D0144DA8421DD14FF6FB
:103CC0007F752A40CD894FF6FF7606EA05152A430F
:103CD0004FF6BF752A408D8806EA05152A434FF630
:103CE000FF352B404FF2FF752B400D8A06EA850504
:103CF0002B434D8A06EA85052B43838004838D6818
:103D00008563028470BD0000000001400004014092
:103D10000A460021018B4FF2FF7319404FF6FF73E3
:103D200003EA0223194301837047000070B50022A3
:103D300000230024058C4EF6FF7635400584038C65
:103D40008488828B48F6FF752A404FF6FF452A404B
:103D50000D884FF6FF7606EA05252A434DF6FF75D6
:103D60002B408D8906EA05352B434D8806EA05353B
:103D70002B430A4DA84202D0094DA84208D14BF668
:103D8000FF752C400D8A4FF6FF7606EA85152C4309
:103D9000848082838D680564038470BD00000140C7
:103DA000000401400A460021818B4FF2FF73194045
:103DB0004FF6FF7303EA022319438183704741637F
:103DC00070478163704701647047000000220288D9
:103DD000184B98420ED0184B98420BD0B0F1804F40
:103DE00008D0164B984205D0154B984202D0154B7F
:103DF000984204D14FF68F731A404B881A43124BE6
:103E0000984207D0114B984204D04FF6FF431A4016
:103E10000B891A4302804B68C3620B880385054BEC
:103E2000984202D0044B984201D18B7A0386012339
:103E300083827047000001400004014000040040FC
:103E400000080040000C004000100040001400403A
:103E500010B540F22551314800F086FA18B12F48CC
:103E600000F03CFB59E040F224412C4800F07CFA81
:103E7000002852D0294800F031FB2948FEF7FDF810
:103E800028BB00212648FEF71BF82548FEF7F1F86D
:103E9000C0F124002349088024212148FEF764F959
:103EA0001F48006840F400201D4908601E491C4856
:103EB000FDF7D2FF01211A48FEF702F819480088E1
:103EC00012282AD119491A48FFF782FA25E0002161
:103ED0001348FDF7F5FF1248FEF7CBF8C0F12400B8
:103EE0001049088024210E48FEF73EF90C4800686E
:103EF00020F400200A4908600B490948FDF7ACFF8F
:103F000001210748FDF7DCFF06480088122804D18C
:103F1000064907482430FFF75BFA10BD0010014046
:103F200040640240AC00002000003010480602202F
:103F30005E06022010B511480088114908700F482C
:103F4000001F0088087000210E48FDF7B9FF0E48D9
:103F500003F0ECF90D490B48FDF77EFF00BF09485F
:103F6000FEF77DF80028FAD14FF4C8710548FEF736
:103F7000FBF801210348FDF7A3FF10BD04480040F2
:103F8000A001002028600240FC0D0220000C00105F
:103F900000B597B001210820FFF7B0F802208DF896
:103FA000580000208DF85A004FF440701590012001
:103FB0008DF85B0003208DF8590015A94648FEF7DF
:103FC000B3F915A94448FEF7AFF907220921424881
:103FD000FEF7F2F9072208213F48FEF7EDF901212B
:103FE0008804FFF79BF84FF4E13011900020ADF802
:103FF00050000C20ADF84E000020ADF84C00ADF89C
:104000004A00ADF8480011A9344800F0FDF901223A
:104010004021324800F027F9012240F224412F4884
:1040200000F0CCF901212D4800F011F94FF4407057
:10403000FEF70AFE27208DF8400001208DF843008E
:1040400007208DF8410000208DF8420010A8FEF7EF
:10405000BFFD012240F22441204800F0AFF90121C8
:104060004805FFF74BF81E48FDF736FF00BF1C4818
:10407000FDF7F5FF0028FAD14FF0006001901748D6
:10408000001D029017480390002004904FF4C87060
:104090000590002006904FF4806007900020099062
:1040A00008900A904FF440300B9000200C900320B1
:1040B0000D9000200E900F9001A90948FEF728F8F6
:1040C00001210748FDF7FCFE01224021034800F0D2
:1040D000CAF817B000BD0000000C024000480040C4
:1040E00028600240FC0D022010B540F22551214805
:1040F00000F03AF900283BD01E4800F0EFF9C4B2B6
:104100001D480088C0F30D001C490C541A48008853
:10411000401C194908800846008800F4004038BB5C
:1041200008460088802803DD0020088014490870B4
:104130001348007838B9AA2C05D111480078401CE2
:104140000F49087014E00E480078012810D1DD2CCA
:104150000ED10A490B4805F0B2FB0748008840F42D
:104160000040054908800020054908700249088080
:1041700010BD000000140140AE000020A606022081
:10418000B00000205E11022010B588B00446012165
:104190004020FEF7B3FF01212020FEF7DFFF0822B9
:1041A00009212448FEF708F908220E212148FEF7CC
:1041B00003F94FF48440069002208DF81C008DF81E
:1041C0001D0000208DF81E0001208DF81F0006A99B
:1041D0001848FEF7A9F802940020ADF80C00ADF8DD
:1041E0000E00ADF81000ADF814000C20ADF8120070
:1041F00002A9114800F008F901210F4800F027F842
:1042000040210D4800F01AF8012240F225510A48D9
:1042100000F0D4F847208DF8040003208DF8050045
:104220008DF8060001208DF8070001A8FEF7D0FCEC
:1042300008B010BD001802400014014001F40072E3
:10424000B2F5007F00D100BFCA430280704721B1A0
:10425000828942F40052828104E082894DF6FF7324
:104260001A40828170471AB1838A0B43838202E02D
:10427000838A8B438382704710B504463248844258
:1042800008D101211020FEF779FF00211020FEF750
:1042900075FF57E02D48844209D101214804FEF7FB
:1042A0004DFF00214FF40030FEF748FF4AE0284858
:1042B000844209D101218804FEF740FF00214FF418
:1042C0008020FEF73BFF3DE02248844209D10121D6
:1042D000C804FEF733FF00214FF40020FEF72EFF45
:1042E00030E01D48844209D101210805FEF726FF70
:1042F00000214FF48010FEF721FF23E0174884428D
:1043000008D101212020FEF739FF00212020FEF7EF
:1043100035FF17E01248844209D101218807FEF7D2
:104320000DFF00214FF08040FEF708FF0AE00D4826
:10433000844207D101214005FEF700FF00216005FE
:10434000FEF7FCFE10BD00000010014000440040DC
:1043500000480040004C0040005000400014014064
:1043600000780040007C004070B502460024002325
:104370000025002040F66A16B14200D100BFC1F30B
:10438000421501F01F03012606FA03F3012D02D1A5
:104390009689334006E0022D02D1168A334001E0AF
:1043A000968A33400C12012606FA04F4168834402B
:1043B00013B10CB1012000E0002070BDF0B5034640
:1043C000002400260025002040F66A17B94200D1DB
:1043D00000BF1846C1F3421401F01F06012707FA77
:1043E00006F5012C01D10C3004E0022C01D1103073
:1043F00000E014301AB107682F43076002E0076835
:10440000AF430760F0BD00002DE9FF4705460E46AB
:104410000024A14600BFA046B08900B100BF2C8A8D
:1044200024F44054F08804432C82AC8941F20C609F
:104430008443B08831890843718908430443AC81BF
:10444000AC8A24F44074B0890443AC826846FEF719
:10445000A5FE2048854202D01F48854202D1DDF8E2
:104460000C9001E0DDF80890A88900F4004040B10C
:1044700009EBC90000EB091031684900B0FBF1F706
:1044800007E009EBC90000EB091031688900B0FBB7
:10449000F1F76420B7FBF0F004012009642101FB6F
:1044A0001078A88900F4004040B1322000EBC80029
:1044B000B0FBF1F000F00700044308E0322000EB0D
:1044C00008106421B0FBF1F000F00F0004432C81D0
:1044D000BDE8FF87001001400014014001468888B4
:1044E000C0F30800704700BFFEE7000003F02CF89F
:1044F00003F028F9C0E061480068401C5F4908608B
:1045000008460068322190FBF1F201FB12000028FE
:1045100058D140F2126003F0C3FA5948B0F849008C
:10452000282805DB012143F6982003F091FA29E0C1
:104530005348B0F8490028280ADA5148B0F8490031
:104540001E2805DB012142F6E06003F081FA19E044
:104550004B48B0F849001E280ADA4948B0F849002B
:104560000F2805DB012141F2707003F071FA09E0B8
:104570004348B0F849000F2804DA01214FF47A606B
:1045800003F066FA3E48D0F8450000EE100ADFED71
:104590003D0AB4EEE00AF1EE10FA09DD00214FF415
:1045A000166003F093FA0021FA2003F029FA09E0DB
:1045B00000214FF4166003F089FA002140F24D10FB
:1045C00003F01EFA2D480068642190FBF1F201FB14
:1045D000120078B92C48007808B9012000E00020CA
:1045E000294908700846007810B103F01FF801E06F
:1045F00003F012F82548007D00F0200080B3234826
:10460000808A00F4004058B321480088401C2049AB
:10461000088008460088B0F57A7F25DB012080F30A
:10462000138800BF00BF00BF00BF00BF00BFBFF3C3
:104630004F8F00BF00BF00BF1648006800F4E06065
:1046400015490843001D1349086000BF00BF00BFA3
:10465000BFF34F8F00BF00BF00BF00E000BFFDE70A
:10466000FFE700200A490880012004F0B7FE00207F
:1046700004F05EFD094908603DE7000000020020EB
:104680009A0F022000004842040200206E1102200E
:10469000060200200CED00E00000FA05F801002001
:1046A00070B505460C4600260DB1022C01D800203D
:1046B00070BDA11E094802882846FDF7A5FE0646E2
:1046C000F1B2A01E285C814206D1601E285CB0EBCE
:1046D000162F01D10120EBE70020E9E7F4010020CB
:1046E00070B505460C4600260DB1022C01D80020FD
:1046F00070BD611EFF222846FDF7A0FE0646601E23
:10470000285CB04201D10120F2E70020F0E703B4B9
:1047100001984100009850EAC12018BF04204A0DBA
:1047200018BF40F0010040F2FF72B2EB515F08BFCA
:1047300040F00200012808BF052002B07047410088
:10474000080218BF04200A0E18BF40F001004FF005
:104750007F4232EA010108BF40F00200012808BF91
:10476000052070470000000070B5C1482DED020B18
:104770002DED0E8B82B0119D25F000449FEDBEDB28
:104780009FEDBFEB84423EDBA4F140511098A1F1B4
:104790007F6108430FD0BC48844202DC28D11098C6
:1047A00030B39DED100B02B0BDEC0E8B02B0BDE836
:1047B000704000F029BE9DED100B53EC1D2B51EC09
:1047C000100BFBF7C3FE9DED100B41EC180B53ECE7
:1047D0001E2B51EC100BFBF7B9FE53EC182BFBF71B
:1047E0000EFE41EC100B02B0BDEC0E8B02B070BDA2
:1047F000012000F063FE02B0BDEC0E8B02B0BDE8FC
:10480000704000F015BEA1489FEDA18B844256DA9E
:104810009DED100BB4F1795F0ADA51EC100BFFF744
:1048200076FF042808BF00F013FE9DED100BDAE7B9
:1048300053EC102B51EC100BFBF788FE41EC190BDD
:1048400095480621B0EE490AF0EE690A784400F076
:104850005FFD53EC192B51EC100BFBF777FE41EC8D
:104860001A0B8E48B0EE490AF0EE690A042178442A
:1048700000F04EFD53EC192B51EC100BFBF766FECC
:1048800053EC182BFBF7BBFD41EC100B51EC1A0B52
:1048900053EC102BFBF7CCFECDE900019DED000B96
:1048A00053EC102B9DED100B51EC100BFBF74EFE53
:1048B0009DED101B53EC112BFBF7A1FDD2E09DEDFC
:1048C000100B51EC100B01F041FA53EC182BFBF7D5
:1048D0003AFE9FED730BCDE9000153EC102B9DEDDB
:1048E000000B51EC100BFBF731FE41EC190B6E483D
:1048F0000621B0EE490AF0EE690A784400F008FD9E
:1049000053EC192B51EC100BFBF720FE41EC1B0B69
:104910006648B0EE490AF0EE690A0421784400F0D6
:10492000F7FC53EC192B51EC100BFBF70FFE53EC7B
:10493000182BFBF764FD41EC1C0B51EC190B04F038
:1049400032FA41EC180B5A489FED5BABA04222DCD7
:1049500053EC1C2B51EC1B0BFBF76AFECDE900015D
:104960009DED000B51EC180B53EC102BFBF7EEFDFB
:1049700053EC182BFBF743FD53EC1A2BFBF7E6FD2A
:1049800053EC1D2BFBF7DCFD53EC1E2BFBF7DBFD83
:1049900041EC100B5FE08DED008B002000909DED51
:1049A000000B51EC180B53EC102BFBF728FD9DED81
:1049B000000B41EC1E0B53EC102B51EC100BFBF7D2
:1049C000C5FD53EC192BFBF7BEFD53EC1E2BFBF77B
:1049D0002FFE41EC190B53EC1C2B51EC1B0BFBF77E
:1049E00027FE41EC1B0B53EC1A2B51EC190BFBF778
:1049F000ADFD53EC1D2BFBF7A6FD41EC190B53EC61
:104A00001A2B51EC180BFBF7A1FD53EC1B2BFBF7FA
:104A10009DFD53EC192BFBF793FD9DED000B41EC35
:104A2000180B53EC1A2B51EC100BFBF78FFD9FED7D
:104A3000249B53EC192BFBF786FD41EC100B51EC3A
:104A4000180B53EC102BFBF77BFD53EC192BFBF7EA
:104A50007AFD41EC100B002D3FF7C5AE51EC100B69
:104A600081F0004141EC100BBDE6000000000000A9
:104A70000000F03F00000000075C143326A6913CC4
:104A8000182D4454FB21F93F0000F07F0000E03F67
:104A9000000000000000F03F306A00003E6A0000A5
:104AA000000000000000E03F826900009069000003
:104AB0003333EF3F00000000000000000000004022
:104AC000182D4454FB21E93F10B54FF00E402DED59
:104AD000028BB0EE408A18EE104A00EB4400B0F1B1
:104AE000506F4AD84FF0FC40B0EB440F22D2B0EEEA
:104AF000C80AF7EE000A30EEC00AF6EE000A60EED1
:104B0000208A18EE900A04F085F901EE100A14F0DC
:104B1000004F1DBFDFED2D0A9FED2D0AB1EE411AAA
:104B2000DFED2C0A08BF9FED2C0AF8EE001A21EEEB
:104B3000218A05E0DFED290A68EE088AB0EE600AF6
:104B40009FED271ADFED271A30EE080A48EE811A8A
:104B50009FED251A08EEA11ADFED241A48EE811AFE
:104B60009FED231A08EEA11A68EE281ABDEC028BFD
:104B700001EE810A30EE200A10BD4FF0E440B0EBA8
:104B8000440F0CD918EE100AFFF7D9FD042808BF0E
:104B900000F07CFCB0EE480ABDEC028B10BD4FF07B
:104BA0007F40B0EB440F07D2B0EE480ABDEC028B59
:104BB000BDE8104000F05CBC012000F07FFCBDECC3
:104BC000028BBDE8104000F059BC00000000C9BFD6
:104BD00022AAFDB90000C93F22AAFD390000000049
:104BE00024FE1C3DC78AD83C1E67383D1B93993D67
:104BF000AFAA2A3E0000000070B59B482DED020BC5
:104C00002DED068B079D25F00044A04218DC974847
:104C1000844202DC0AD1069840B19DED060BBDEC42
:104C2000068B02B0BDE8704000F0EEBB002DCCBF9B
:104C30009FED8F0B9FED900BBDEC068B02B070BD0E
:104C40008F48A04215DD8F48A042D8BF4FF0FF34F7
:104C500058DD9DED060B51EC100BFFF758FD0428B5
:104C600008BF00F0F5FB9DED060BBDEC068B02B016
:104C700070BD9DED060B51EC100B01F067F8CDE90E
:104C8000060181489FED828BA0423CDD8248A04214
:104C90001FDD00249FED82AB9DED060B53EC1A2B1C
:104CA00051EC100BFBF7ABFB9DED060B41EC190B28
:104CB00053EC1A2B51EC100BFBF748FC53EC182B60
:104CC000FBF73EFC53EC192BFBF7B2FCCDE90601D8
:104CD00049E09DED060B012453EC182B51EC100B11
:104CE000FBF78DFB9DED060B41EC190B53EC182BDC
:104CF00051EC100BFBF724FC53EC192BFBF798FC41
:104D0000CDE906012FE06848A0421FDD02249FED97
:104D1000689B9DED060B53EC192B51EC100BFBF728
:104D200015FC53EC182BFBF76AFB9DED060B41ECD1
:104D3000180B53EC192B51EC100BFBF701FC53EC47
:104D4000182BFBF775FCCDE906010CE09DED060B79
:104D5000032453EC102B9FED580B51EC100BFBF779
:104D600067FCCDE906019DED060B53EC102B51ECD1
:104D7000100BFBF7EBFB41EC180B53EC182BFBF77C
:104D8000E5FB41EC190B4E480621B0EE490AF0EE66
:104D9000690A784400F0BCFA53EC182B51EC100B64
:104DA000FBF7D4FB41EC180B4648B0EE490AF0EE95
:104DB000690A0521784400F0ABFA53EC192B51EC49
:104DC000100BFBF7C3FB41EC100B51EC180B53EC31
:104DD000102B002C0EDAFBF712FB9DED061B53EC9B
:104DE000112BFBF7B3FB9DED061B53EC112BFBF7CF
:104DF000AAFB35E0FBF703FB9DED061B53EC112BE3
:104E0000FBF7A4FB41EC100B2F48784400EBC400E7
:104E100090ED001B51EC100B53EC112BFBF790FBAA
:104E20009DED061B53EC112BFBF78AFB41EC100B9D
:104E30002648784400EBC40090ED001B51EC100BA9
:104E400053EC112BFBF77FFB41EC100B002DA2BFA5
:104E5000BDEC068B02B070BD51EC100B81F000412F
:104E600041EC100B01E70000000010440000F07F4F
:104E7000182D4454FB21F93F182D4454FB21F9BF50
:104E80000000DC3F0000203E0000F33F0000000077
:104E9000000000000000F03F0000E63F00000000BE
:104EA00000000000000000400080034000000000FF
:104EB000000000000000F83F000000000000F0BF0C
:104EC000A265000058650000E26400009A640000DA
:104ED00070B56B4E2DED040B2DED028B82B0DDF81D
:104EE0001CC0DDE905235C422CF000411C4341EA73
:104EF000D474049D22F00040B44205D86C422C4387
:104F000040EAD474B4420BD99DED061B9DED040B11
:104F100002B0BDEC028B04B0BDE8704000F07EBA78
:104F2000ACF14054A4F17F641C430BD0022404EA8A
:104F3000AC7444EAD27405439FED538B9FED542B20
:104F400007D015E09DED040B51EC100B00F020FD97
:104F500042E0002C11BF012C9DED040B02B0BDEC12
:104F6000028B04BF04B070BD022C38D0032C3BD0A0
:104F70000B439FED491B9FED4A0B0AD0B14218D15C
:104F8000B04209D121F0804120F080400791059086
:104F90000FE0002A15DA10E0434B7B44002C08BFD9
:104FA00093ED000B0DD0012C10D0022C17D0032C48
:104FB0001AD0B0421DD1002A03DAB0EE410AF0EE59
:104FC000610A02B0BDEC028B04B070BD93ED000B22
:104FD00051EC100B81F0004141EC100BF1E7B0EE09
:104FE000480AF0EE680AECE7B0EE420AF0EE620A18
:104FF000E7E7401A00153C28C8BF8DED000B19DC0F
:10500000BCF1000FBEBF10F13C0F9FED290B8DEDE1
:10501000000B0FDB9DED060B53EC102B9DED040BED
:1050200051EC100BFBF704FB00F090FE00F0B0FC1D
:10503000CDE90001002C08BF9DED000BC1D0012C73
:1050400010D0022C9FED1C0B53EC102B9DED000B90
:1050500051EC100B0DD0FBF773FA53EC182BFBF748
:105060006FFAB9E7019880F0004001909DED000BC8
:10507000A7E7FBF765FA53EC182BFBF764FAABE7ED
:105080000000F07F00000000182D4454FB2109406F
:10509000182D4454FB2109C0182D4454FB21F9BF9D
:1050A000182D4454FB21F93FCA63000000000000A2
:1050B0000000000000000000075C143326A6A13C9D
:1050C00010EE100A10B510EE901A4FF0684202EB85
:1050D00040032DED028BB3F1654F3CBF02EB410263
:1050E000B2F1654F7CD200BFC0F3C753C1F3C752C2
:1050F0009A1A1B2A09DD10F0004F14BF9FED6E0AAB
:105100009FED6E0ABDEC028B10BD12F11A0F1BDA77
:1051100011F0004F09D010F0004F0CBF9FED680A4E
:105120009FED680ABDEC028B10BD80EE208A18EE60
:10513000100AFFF704FB042808BF00F0A7F9B0EE3F
:10514000480ABDEC028B10BD4200B2EB410F37D9CB
:1051500010F0004F19BFDFED5C1A9FED5C1ADFED18
:105160005C1A9FED5C1AB0EE602A0A46F1EE400A26
:1051700080F00041B0EE420A10460A1A5200B2F125
:10518000807F34D2484010F0004FDFED532A9FED6E
:10519000533A1DBFBEEE002A71EEE21A31EE431AF9
:1051A000B6EE002A04BF71EEA21A31EE031AF0EE39
:1051B000402A42EE602A40EE020A82EEA02A18E05F
:1051C00011F0004F04BF9FED461AF0EE411AD4D003
:1051D00010F0004F1CBFDFED431A9FED431A00E0B3
:1051E00026E004BFDFED411A9FED411AC5E780EECE
:1051F000202A22EE020ADFED3F0ADFED3F2ABDEC56
:10520000028B40EE202ADFED3D0A40EE220ADFED60
:105210003C2A40EE202ADFED3B0A40EE220A22EE35
:10522000000A00EE201A31EE020A30EE210A10BD0B
:105230004FF07F42B2EB400F28BFB2EB410F05D2D7
:10524000BDEC028BBDE8104000F015B940EA010347
:105250005B0008BF41F0FF410BD0B2EB400F08BF2D
:10526000B2EB410F08D120F0804000EE100A21F08F
:10527000804100EE901A37E7B2EB400F12BF5FEAB1
:10528000410240F0FF4001F000413FF42DAF4A00E1
:1052900092EA40033FF528AF002AACBF9FED1A1AEF
:1052A0009FED1A1A20EE010A60EE810A10EE100A34
:1052B00010EE901A18E70000DB0FC9BFDB0FC93FE3
:1052C000DB0F4940DB0F49C00000C9BF22AAFDB96E
:1052D0000000C93F22AAFD390060ED3EC30ACE3767
:1052E00000000000000049C022AA7DBA0000494029
:1052F00022AA7D3A2DAD65BD8FB8D53D0FB511BE43
:1053000061C84C3EA8AAAABE0000804F0000802FB2
:1053100070B504462DED028B4D1E00EBC500B0EEBE
:10532000408AF0EE608A90ED000B35F0060017D051
:1053300053EC182B51EC100BFBF708F941EC100B58
:105340006D1E04EBC50090ED001B51EC100B53ECEF
:10535000112BFBF754F841EC100B35F00600E7D1A8
:10536000022D36D0042D1CD0062D1CBFBDEC028BA7
:1053700070BD53EC182B51EC100BFBF7E7F894EDD4
:105380000A1B53EC112BFBF73AF853EC182BFBF7E5
:10539000DDF894ED081B53EC112BFBF730F841ECD2
:1053A000100B53EC182B51EC100BFBF7CFF894EDCE
:1053B000061B53EC112BFBF722F853EC182BFBF7D1
:1053C000C5F894ED040B53EC102BFBF718F841ECE7
:1053D000100B53EC182B51EC100BFBF7B7F894EDB6
:1053E000021B53EC112BFBF70AF853EC182BFBF7BD
:1053F000ADF894ED001B53EC112BFBF700F8BDEC5E
:10540000028B41EC100B70BD10B553EC102B51EC1E
:10541000100BFAF7F4FF41EC100B10BD10B553EC74
:10542000112B51EC100BFAF7EAFF41EC100B10BDF9
:105430009FED050B10B553EC102B51EC100BFBF747
:10544000F7F841EC100B10BD000000000000000058
:105450009FED050B10B553EC102B51EC100BFBF727
:1054600075F841EC100B10BD0000000000000010AA
:1054700030EE000A704730EE200A7047DFED020A76
:1054800080EEA00A70470000000000009FED020AB5
:1054900020EE000A704700000000001002E008C87B
:1054A000121F08C1002AFAD170477047002001E09E
:1054B00001C1121F002AFBD170470000014908609A
:1054C00070470000F802002070B52DED028B8AB005
:1054D00005460C4616460DB104B11EB90AB0BDEC26
:1054E000028B70BD94ED000AB5EEC00AF1EE10FA21
:1054F0000DD194ED010AB5EEC00AF1EE10FA06D115
:1055000094ED020AB5EEC00AF1EE10FA7DD09FEDDF
:10551000600AB0EE408A002007900890099004903D
:10552000059006905B4A07CA01AB07C395ED010AD7
:10553000D5ED030A20EE200AD5ED000A95ED021AFA
:1055400000EEC10AF0EE000A20EE200A8DED070AF7
:1055500095ED000AD5ED010A20EE200AD5ED020AEC
:1055600095ED031A00EE810AF0EE000A20EE200A03
:105570008DED080A95ED000A20EE000AD5ED030A2C
:1055800095ED031A00EE810AF7EE000AB0EE001A5C
:1055900051EE000ACDED090A01AB224631462846FC
:1055A00000F07AF8D4ED000A60EEA00A94ED011A3A
:1055B000D4ED011A41EE210A94ED021AD4ED021A3B
:1055C00041EE210AB0EE600AFBF79EFCB0EE408A85
:1055D00094ED000A20EE080A84ED000A94ED010A19
:1055E00020EE080A84ED010A94ED020A20EE080A72
:1055F00084ED020A94ED010ADDED090A20EE200A8D
:10560000D4ED020A9DED081A00E03EE000EEC10A6A
:105610008DED040A94ED020ADDED070A20EE200A62
:10562000D4ED000A9DED091A00EEC10A8DED050AC0
:1056300094ED000ADDED080A20EE200AD4ED010AFF
:105640009DED071A00EEC10A8DED060A96ED000ADF
:10565000DDED010A9DED041A00EE810A86ED000AD7
:1056600096ED010ADDED020A9DED051A00EE810AB4
:1056700086ED010A96ED020ADDED030A9DED061A9C
:1056800000EE810A86ED020A00BF00BF26E7000097
:10569000000000006CAA00082DE9F0412DED048BFC
:1056A00007460D4614461E469FED580AB0EE409A36
:1056B0009FED560AB0EE408A9FED540AF0EE408A04
:1056C000D4ED000A60EEA00A94ED011AD4ED011A9F
:1056D00041EE210A94ED021AD4ED021A41EE210A9C
:1056E000B0EE600AFBF710FCF7EE000A80EE801ABD
:1056F000B0EE419AD5ED000AB0EE600AFBF798FAD9
:10570000F0EE409AD5ED010AB0EE600AFBF790FA90
:1057100079EE809AD5ED020AB0EE600AFBF788FABE
:1057200039EE800AF0EE408A3948D0ED000A79EE71
:10573000600AB0EE600AFBF77BFAB0EE408A9FED9C
:10574000350AB4EEC08AF1EE10FA06DC9FED320A9B
:10575000F4EEC08AF1EE10FA53DD9FED2C2AB0EE84
:10576000420A9FED2A2AF0EE421AB7EE002AF0EE26
:10577000420A9FED262AB0EE421AB5EEC08AF1EE3B
:1057800010FA05DD9FED232AC2EE082AB0EE620A68
:105790009FED222AB4EEC20AF1EE10FA03D29FED79
:1057A0001B2AB0EE420AF5EEC08AF1EE10FA05DDD2
:1057B0009FED192AC2EE282AF0EE621AB7EE002AEF
:1057C000B4EEC20AF1EE10FA03D220EE802AF0EE17
:1057D000420AB7EE002AF4EEC21AF1EE10FA03D232
:1057E00020EEA12AF0EE420A9FED0D2A20EE822A39
:1057F000B0EE421A86ED001A86ED011A86ED021A05
:1058000000BFBDEC048BBDE8F0810000000000008B
:10581000F4020020CDCCCC3D8FC2F53D9A99993E43
:10582000CDCC4C3E10B52DED048B86B00446B0EEC9
:10583000408AF0EE608AB0EE419A00200390049016
:105840000590009001900290B0EE000AC8EE000AA8
:10585000F0EE609AB0EE690AFBF7DEF98DED030A0F
:10586000B0EE000AC8EE800AF0EE609AB0EE690A67
:10587000FBF7D2F98DED040AB0EE000AC9EE000A7A
:10588000F0EE609AB0EE690AFBF7C6F98DED050AF5
:10589000B0EE000AC8EE000AF0EE609AB0EE690AB7
:1058A000FBF750FB8DED000AB0EE000AC8EE800A4F
:1058B000F0EE609AB0EE690AFBF744FB8DED010A49
:1058C000B0EE000AC9EE000AF0EE609AB0EE690A86
:1058D000FBF738FB8DED020A9DED050ADDED040AAC
:1058E00020EE200ADDED030A20EE200ADDED020A9B
:1058F0009DED011A60EE810A9DED001A00EE810A0D
:1059000084ED000A9DED020ADDED040A20EE200A76
:10591000DDED030A20EE200ADDED050A9DED011AFA
:1059200060EE810A9DED001A00EEC10A84ED010AC5
:105930009DED050ADDED010A20EE200ADDED030AEA
:1059400020EE200ADDED020A9DED041A60EE810AC8
:105950009DED001A00EE810A84ED020A9DED050A14
:10596000DDED040A20EE200ADDED000A20EE200A1B
:10597000DDED020A9DED011A60EE810A9DED031A2C
:1059800000EEC10A84ED030A06B0BDEC048B10BD25
:1059900010B541EC100BFFF72FF951EC100B10BDB7
:1059A00030B58BB005460C4601214020FDF7B6FB13
:1059B00001218020FDF7A2FB01214020FDF7BEFB65
:1059C00000214020FDF7BAFB092206212048FCF700
:1059D000F3FC4020099002208DF8280003208DF868
:1059E000290000208DF82A0002208DF82B0009A93B
:1059F0001748FCF799FC6020ADF804000120ADF8D1
:105A000006000020ADF8100001A91248FEF7E6F8E4
:105A100008211048FEF720F901210E48FEF79AF8F8
:105A2000681E0790601E80B2ADF818000020ADF827
:105A30001A00ADF8200006A90648FEF7C7F90121B3
:105A40000448FEF796F800F007F80BB030BD0000F0
:105A5000001C02400018004010B500210148FEF76C
:105A6000AEF910BD0018004070B504460D4604485C
:105A70000480294602482838FEF7A1F970BD0000CD
:105A8000281800402DE9F04104460D4616461F46F1
:105A900040F2FF100E49086000200872487208208A
:105AA0008872200AC87208460473290A41738573F4
:105AB000310AC1730674390A417487740146054876
:105AC000FBF7CDFF02490448FBF7C9FFBDE8F081B1
:105AD000E806022000680040006400402DE9F04123
