:020000040800F2
:10000000F0190220790200085140000899320008D6
:100010004D400008B1110008F36600080000000020
:10002000000000000000000000000000C101000806
:10003000212A000800000000150200082D560008C3
:100040009D0200089D0200089D0200089D02000814
:100050009D0200089D0200089D0200089D02000804
:100060009D0200089D0200089D0200089D020008F4
:100070009D0200089D0200089D0200089D020008E4
:100080009D020008292600089D0200089D02000824
:10009000B51100089D0200089D0200084F2A0008C3
:1000A0009D0200089D0200089D0200089D020008B4
:1000B0009D020008A55600089D0200089D02000848
:1000C0009D0200089D0200089D0200089D02000894
:1000D0009D020008DD5F00089D020008C160000865
:1000E0009D0200089D0200089D0200089D02000874
:1000F0009D0200089D0200089D0200089D02000864
:100100009D0200089D0200089D0200089D02000853
:100110009D0200089D0200089D0200089D02000843
:100120009D0200089D0200089D0200089D02000833
:100130009D0200089D0200089D0200089D02000823
:100140009D020008691400089D0200089D02000835
:100150005D2600089D0200089D0200086D620008EF
:100160009D0200089D0200089D0200089D020008F3
:100170009D0200089D0200089D020008000000008A
:100180009D0200089D0200089D0200089D020008D3
:100190009D0200089D0200089D0200089D020008C3
:1001A00000000000000000009D020008DFF80CD0F5
:1001B00000F0C8FB00480047999D0008F019022094
:1001C0002A4B19680868B0E8F04F80F30988BFF33C
:1001D0006F8F4FF0000080F311887047000000001F
:1001E00006480068006880F3088862B661B6BFF30D
:1001F0004F8FBFF36F8F00DF00BF00BF08ED00E03F
:10020000DFF80C00016841F470010160704700BF25
:1002100088ED00E0EFF30980BFF36F8F134B1A688E
:100220001EF0100F08BF20ED108A20E9F04F10607B
:1002300008B44FF0500080F31188BFF34F8FBFF325
:100240006F8F0CF0A5F84FF0000080F3118808BC08
:1002500019680868B0E8F04F1EF0100F08BFB0EC46
:10026000108A80F30988BFF36F8F70472400002045
:10027000EFF30580704700000948016841F4700100
:1002800001600848804708480047FEE7FEE7FEE7B0
:10029000FEE7FEE7FEE7FEE7FEE7FEE7FEE700001B
:1002A00088ED00E03D560008AD0100089FED1A1AE8
:1002B000F5EE000A40EE010ABDEEE00AF5EEC00AD6
:1002C00010EE100AF1EE10FA38BF401E00EE100AD0
:1002D0001349F7EE001AB8EEC00A30EEC00ADFED9F
:1002E0000F0A20EE200AFCEEC00A10EE900AC0F3BE
:1002F000080000EE900A01EB8000F8EE600A90ED35
:10030000011A70EE600A90ED000A71EEE01A21EE1B
:10031000800A00EE810A704783F9223E0000004403
:100320002CD70008DFED1D0AB5EEC00A60EE200AEA
:10033000BDEEE01A11EE100AF1EE10FA38BF401EC1
:1003400000EE100AB8EEC00A30EEC00ADFED140A63
:1003500020EE200AB4EEE00AF1EE10FAA8BF30EE6B
:10036000600AFCEEC00A0F49F7EE001A10EE900A80
:10037000C0F3080000EE900A01EB8000F8EE600A7E
:1003800090ED011A70EE600A90ED000A71EEE01A2D
:1003900021EE800A00EE810A7047000083F9223EB8
:1003A000000000442CD7000840EA01039B0703D05B
:1003B00009E008C9121F08C0042AFAD203E011F8A4
:1003C000013B00F8013B521EF9D27047D2B201E066
:1003D00000F8012B491EFBD270470022F6E710B54A
:1003E00013460A4604461946FFF7F0FF204610BDA3
:1003F000421C10F8011B0029FBD1801A70472DE91F
:10040000FE4F804681EA0300C00F0C46009021F0A9
:10041000004123F00045B8EB0200A94105D2404657
:10042000214690461C460B46024623F000401043EE
:1004300047D0270DC7F30A00C3F30A510290401AB0
:10044000019040286BDAC3F3130040F4801B00983E
:10045000924620B10023D2EB030A63EB0B0B019809
:100460005946C0F14002504600F0A6F906460D4636
:1004700050465946019A00F0BEF910EB0800614160
:10048000002487EA115284EAE7731A4340D0009AA5
:1004900062B3019A012A4FEA075215DC001B61EB97
:1004A00002014FF0004202EA0752CDE90042001C6F
:1004B00041F5801132462B4600F0F5F903B0BDE856
:1004C000F08F40462146F9E7001B61EB0201001C5A
:1004D00041F5801300185B412018A2F5001747EB87
:1004E000030140EAD570B6196D4111E06D084FEA7D
:1004F000360645EAC0754FEA0752001B61EB020160
:10050000001C41F5801149084FEA300000195141A3
:1005100032462B4603B0BDE8F04F00F0B5B9009865
:10052000012240000023D0EB020263EBE07300984D
:1005300021464FEAE074B8EB000061EB0401E9E703
:1005400083F000435BE781F0004158E72DE9FE4F5F
:1005500081EA030404F0004421F0004100944FF0CC
:10056000000B23F0004350EA01045ED052EA03047A
:100570005BD0C3F30A54C1F30A552C44A4F2F334FC
:100580000194A0FB0254C1F3130141F48011C3F3A1
:10059000130343F4801301FB024400FB034E840A5F
:1005A000970A44EA815447EA8357A4FB07680295F7
:1005B0008D0A05FB07854FEA932C04FB0C54270595
:1005C000029D4FEA065847EA1637B5EB08056EEB71
:1005D000070C870E920E47EA811742EA8312A7FBA7
:1005E0000201B6EB0B0164EB00042B0D43EA0C3364
:1005F0005E1844EB1C50DA465146E7FB0201C5F396
:1006000013044FEA0B3343EA14534FEA0432019CBC
:1006100043EA0603A4F10C040294009CCDE900B463
:1006200000F041F903B0BDE8F08F00200146F9E782
:100630002DE9F04D81EA030404F0004B21F0004560
:1006400014464FF0000A23F0004150EA050220D082
:1006500054EA01021DD0C5F30A570246C5F313033D
:10066000C1F31300C1F30A5640F4801543F480131C
:10067000A7EB0608101BD64608F2FD3873EB050001
:1006800002D308F1010801E092185B41B8F1000FB4
:1006900003DA00200146BDE8F08D00204FF4801100
:1006A000064684460EE0171B73EB050705D3121BA5
:1006B00063EB050306434CEA010C49084FEA30009E
:1006C00092185B4150EA0107EDD152EA030012D0C3
:1006D00082EA040083EA0501084305D0101BAB4100
:1006E00006D20122002306E000224FF0004302E080
:1006F0006FF0010253101AEB06004CEB085110EB9F
:100700000A0041EB0B01BDE8F04D00F0BDB80EB59D
:1007100040F2334102910021CDE900110A460B4617
:1007200000F0C1F803B000BDC1F30A5210B5C1F327
:10073000130140F2FF3341F480119A4201DA0020A4
:1007400010BD40F233439A42A2F2334203DC5242DC
:1007500000F041F810BD904010BD00F0004230F0B4
:1007600000400AD0C10D01F56071C0F3160042EAE5
:100770000151C208400711437047002001467047ED
:1007800001F0004330B421F0004150EA010206D0EC
:100790000A0DA2F56072C1F31301002A02DC30BC1D
:1007A00000207047440F44EAC104C100E01830BC87
:1007B00000EBC25000F031B8202A04DB203A00FAE6
:1007C00002F1002070479140C2F1200320FA03F3A8
:1007D000194390407047202A04DB203A21FA02F0A6
:1007E0000021704721FA02F3D040C2F1200291406B
:1007F000084319467047202A06DBCB17203A41FAF6
:1008000002F043EAE07306E041FA02F3D040C2F19D
:10081000200291400843194670470029A8BF70473D
:10082000401C490008BF20F00100704710B4B0FA26
:1008300080FC00FA0CF050EA010404BF10BC7047C1
:1008400049B1CCF1200421FA04F411FA0CF118BFDB
:10085000012121430843A3EB0C01CB1D4FEA0061AA
:100860004FEA102042BF002010BC704700EBC3507D
:1008700010440029A4BF10BC7047401C490008BFA9
:1008800020F0010010BC704710B5141E73F1000475
:1008900008DA401C41F1000192185B411A4301D172
:1008A00020F0010010BD2DE9F04D92469B4611B19C
:1008B000B1FA81F202E0B0FA80F220329046FFF7FE
:1008C0007BFF04460F4640EA0A0041EA0B0153460B
:1008D0005A46084313D0114653EA010019D0C8F113
:1008E00040025046FFF777FF05460E4650465946F0
:1008F0004246FFF761FF084305D0012004E020468F
:100900003946BDE8F08D0020054346EAE0762C43E9
:1009100037430A986305E40AA0EB08000022FD0AA9
:1009200044EA47540A3002D500200146E9E70105B0
:1009300010196941DDE9084500196941BDE8F04D2C
:10094000A2E70000064C074D06E0E06840F0010316
:1009500094E8070098471034AC42F6D3FFF72AFC1E
:1009600020E0000840E000082DE9F04D00231A4681
:100970001B1A8A4103DB00200146BDE8F08DC1F35C
:100980000A52C1F3130141F480154FF0000BD10757
:1009900002D100186D41521E0027044640F2FF119B
:1009A000384601EB620A3E468046024600204FF47C
:1009B0008011FFF710FFC2197141BB1846EB01000F
:1009C000B4EB030C75EB000C04D3E41A65EB0005E3
:1009D00017460E46241908F101006D41804634285F
:1009E000E3DDF91946EB0600091BA84103D24FF0DD
:1009F000FF32134601E0002213461BEB070046EBD3
:100A00000A51BDE8F04DFFF73FBF70B58C1810F8E4
:100A1000015B15F0070301D110F8013B2A1106D143
:100A200010F8012B03E010F8016B01F8016B5B1E5D
:100A3000F9D12B0705D40023521E0DD401F8013B38
:100A4000FAE710F8013BCB1A921C03E013F8015BA4
:100A500001F8015B521EF9D5A142D8D3002070BD28
:100A6000CA430260704721B1826842F0010282608D
:100A700003E0826822F00102826070470021084A88
:100A80001168084A1140D0E900231A4383681A43C9
:100A9000C3681A431143044AC2F8041370470000A4
:100AA00004230140E030FCFF002001400146C86CF7
:100AB00080B270470246002013680B400BB1012042
:100AC00000E000207047000030B5024600200023FF
:100AD0005068104C20400D790C6844EA05242043EE
:100AE000506090680C4C2040D1E903542C438D6831
:100AF0002C434D7944EA450420439060D06A20F4A9
:100B000070000C7D641EE4B2234340EA0350D062BF
:100B100030BD0000FFFEFFFCFDF7FFC0F0B504464E
:100B20000D4600200021092D11DDE068A5F10A061F
:100B300006EB4607072606FA07F18843A5F10A06E1
:100B400006EB460603FA06F10843E0600CE0206974
:100B500005EB4507072606FA07F1884305EB45062E
:100B600003FA06F108432061072A0FDA606B561E6C
:100B700006EB86071F2606FA07F18843561E06EB8A
:100B8000860605FA06F10843606322E00D2A0FDAB3
:100B9000206BD61F06EB86071F2606FA07F188434F
:100BA000D61F06EB860605FA06F10843206310E01F
:100BB000E06AA2F10D0606EB86071F2606FA07F18A
:100BC0008843A2F10D0606EB860605FA06F10843F6
:100BD000E062F0BD816841F08041816070470000B3
:100BE00038B10849096841F40001074AC2F8041302
:100BF00006E00449096821F40001034AC2F804131D
:100C000070470000042301400020014010B52DED85
:100C1000028BB0EE408AB0EE480A06F0E9F8BDEC6F
:100C2000028B10BD10B52DED028BB0EE408AF0EEB8
:100C3000608AF0EE680AB0EE480A06F0D5FBBDEC1B
:100C4000028B10BD10B52DED028BB0EE408AB0EED8
:100C5000480AFFF72BFBBDEC028B10BDF0EE400AFB
:100C6000F5EEC00AF1EE10FA02DDB0EE600A704750
:100C7000B1EE600AFBE7000018B19FED020A80EDBB
:100C8000000A70470000000018B19FED020A80EDD5
:100C9000000A7047DF8FB44170B52DED0C8B84B026
:100CA00006460C4615469FED990AF0EE408A9FEDE8
:100CB000970AB0EE409A9FED950AF0EE40BA9FED8C
:100CC000930AF0EE409A9FED910AB0EE40AA0EB161
:100CD00004B11DB904B0BDEC0C8B70BD8C48FFF79E
:100CE000CBFF8C48FFF7D0FF8A48D0ED000A9FED7C
:100CF0008A1A60EE810AB0EE600A00F039F9F0EE6F
:100D0000408A28EEA80AF0EE408A8248D0ED000A18
:100D1000B0EE001A60EE810A9FED7F1A60EE810A44
:100D2000B0EE600A00F024F9B0EE409A29EE090A0C
:100D3000B0EE409ADFED790AB7EE000A00EEA80A9D
:100D4000DFED770A00EEC90ADFED760A20EE200A11
:100D5000754880ED000A6E4890ED000ADFED730AD9
:100D600080EE201AB7EE000A31EE000A20EE000AEB
:100D70006D48D0ED000A80EE801A6D4880ED001AB3
:100D800094ED000AB5EEC00AF1EE10FA0DD194ED23
:100D9000010AB5EEC00AF1EE10FA06D194ED020A8E
:100DA000B5EEC00AF1EE10FA46D09FED580AB0EE4B
:100DB000408A0020019002900390D4ED000A60EE7A
:100DC000A00A94ED011AD4ED011A41EE210A94ED26
:100DD000021AD4ED021A41EE210AB0EE600A00F0C8
:100DE000A9F8B0EE408A94ED000A20EE080A8DEDD5
:100DF000010A94ED010A20EE080A8DED020A94ED35
:100E0000020A20EE080A8DED030ADDED010AF1EE7B
:100E1000600AB0EE600AFFF7F9FEF0EE409A9DED31
:100E2000031AF0EE410A9DED021AB0EE410AFFF7F7
:100E3000F9FEB0EE40AA07E09FED340AF0EE409ACA
:100E40009FED320AB0EE40AA95ED000AB5EEC00A59
:100E5000F1EE10FA0DD195ED010AB5EEC00AF1EEF2
:100E600010FA06D195ED020AB5EEC00AF1EE10FABD
:100E70003CD0B0EE690A00F07BF8B0EE408AB0EEEC
:100E8000690AFFF7DFFEB0EE40DAB0EE4A0A00F082
:100E90006FF8F0EE40AAB0EE4A0AFFF7D3FEB0EECC
:100EA00040BA28EE2A0AD5ED010A20EE200AD5ED37
:100EB000000A0DEE200A68EE0B0A95ED021A00EE0C
:100EC000810AB0EE40CA95ED010A20EE0B0AD5ED7D
:100ED000020A0AEEE00AF0EE40CAF0EE6C0AB0EE4A
:100EE0004C0AFFF79FFEF0EE40BA03E09FED070AC1
:100EF000F0EE40BAB0EE4A1AF0EE690AB0EE6B0AB4
:100F0000304606F023FE00BFE4E6000000000000CB
:100F1000500300205403002035FA8E3CC1BFAD3B86
:100F20009DF8C5362F7C1C4158030020506CC24AE6
:100F30005C030020F0EE400AF6EE001A60EEA11A03
:100F4000B0EE611AB0EE600A10EE100A0749A1EB8C
:100F5000600000EE100A21EE002AF7EE081A42EEB9
:100F6000401A61EE801AB0EE610A7047DF59375FB0
:100F700010B52DED028BB0EE408AB0EE480AFFF7B7
:100F8000D1F9BDEC028B10BD2DE9F0412DED028BA6
:100F90009AB00546B0EE408A0E46174698460020A5
:100FA0001790189019901490159016904DB146B165
:100FB0003FB1B8F1000F04D0B5EEC08AF1EE10FADF
:100FC00005D100201AB0BDEC028BBDE8F08196ED92
:100FD000000A8DED170A96ED010A8DED180A96EDBF
:100FE000020A8DED190A97ED000A8DED140A97EDAE
:100FF000010A8DED150A97ED020A8DED160A17AA62
:1010000014A9284606F0F4FB402104A8FFF7E5F9EF
:1010100000200090019002900390002417A904A8DA
:101020000AF0EAFD00BF30E004A800EB041090EDE8
:10103000000AD5ED000A20EE200A04A800EB0410F7
:10104000D0ED010A95ED011A00EE810A04A800EB2B
:101050000410D0ED020A95ED021A00EE810A04A8F0
:1010600000EB0410D0ED030A95ED031A00EE810A9F
:1010700020EE080AF0EE000A80EE201A684600EB27
:10108000840080ED001A601CC4B2042CCCDB002468
:1010900010E005EB840090ED000A684600EB840048
:1010A000D0ED000A30EE200A05EB840080ED000A46
:1010B000601CC4B2042CECDB28460AF035F8012091
:1010C00080E7000070B505460C4600260DB1022CE5
:1010D00000D870BDA11E06480288284601F098FF7E
:1010E0000646A01E2E54310A601E295400BFF0E7A8
:1010F0000C02002070B505460C4600260DB1022CEE
:1011000000D870BD611EFF22284601F09BFF0646F5
:10111000601E2E5400BFF4E70EB54FF4407002F08D
:10112000D5FF4FF47A7007F031FA08F0EBFD08F0C4
:10113000B7FD0AF0FDFC01F047FC5A2147F23050A0
:1011400006F0C2FD08F072FF0AF0CCF8002005237B
:101150001A460121009000F0FFF8002005231A46EE
:101160000121009000F0C2F903F038FF09F072F994
:1011700004F0D4FF02F014FF4FF4E13005F0EAF878
:101180004FF4E13002F0A0FB11201C21054A4FF082
:101190000063CDE900210290034A0449081F02F0D0
:1011A0003FFB0EBD00140220A0600240044400403A
:1011B00000BFFEE710B50221084800F0F9FA58B167
:1011C0000221064800F01CFA054A0021034800F0FD
:1011D00012FC034800F006F810BD00000064004057
:1011E0007807022030B50446607A022800D130BD6D
:1011F00040F201622068811A904240D013DCB0F5C1
:10120000017F22D007DCA0F20120D8B101281AD03A
:10121000022827D118E0A0F2052020B3A0F2FB306D
:101220000028F6D124E010294BD006DC01292DD06E
:10123000022932D00F29ECD136E0112957D01229DA
:101240007FD16AE000BF00BF00BF2078401E3E494A
:101250000870097801EB81013C4A02EBC10021468C
:1012600007F026FB6DE02146394807F08DFB68E06A
:10127000207BE17A40EA01253648058061E0207B49
:10128000E17A40EA0125334845805AE0207BE17A43
:1012900040EA01252F48858053E0207BE17A40EA2F
:1012A00001252C48C5804CE0207BE17A40EA0125ED
:1012B00028480581A17B607B41EA002525484581BE
:1012C0003FE0207BE17A40EA012528B221490882EB
:1012D000A17B607B41EA002528B21E498881217CE0
:1012E000E07B41EA002528B21A49C88129E0207B29
:1012F000E17A40EA012528B21649C882A17B607BC9
:1013000041EA002528B213494882217CE07B41EA6A
:10131000002528B20F49888213E0207BE17A40EA59
:10132000012528B20B490883A17B607B41EA002597
:1013300008484583217CE07B41EA002505488583F8
:1013400000BF00BF00BF52E7F8000020F0070220F6
:10135000A0070220180902202DE9F0418AB00446B6
:101360000D4616461F46DDF840800121082003F097
:1013700063FA0121480603F06FFA0121480603F0E1
:101380007BFA00214FF0007003F076FA03200890FA
:1013900002208DF8240000208DF8260003208DF80F
:1013A000250001208DF8270008A92D4801F0D8FC60
:1013B000092200212A4801F01BFD092201212848A9
:1013C00001F016FD00208DF81A0001208DF81B0099
:1013D00000208DF81C008DF81D008DF81E008DF882
:1013E0001F008DF816808DF817408DF818608DF865
:1013F0001950ADF8147005A91A4800F072FA0020CF
:101400008DF80E008DF80F0001208DF810000020DF
:10141000ADF80400ADF80600ADF80800ADF80A001C
:10142000ADF80C0001208DF8110001A800F03CF986
:10143000012202210B4800F04BFA14208DF8000025
:1014400004208DF8010000208DF8020001208DF8A5
:101450000300684602F0FEFD00200AB0BDE8F081FE
:10146000000C02400064004010B51021084800F054
:101470009FF958B11021064800F0C2F8054A012131
:10148000034800F0B8FA034800F006F810BD000069
:10149000006800408C07022010B504462068A0F2C6
:1014A000012050B101280DD0022811D0052814D1F7
:1014B00021460B4807F068FA10E02146094807F07A
:1014C00063FA0BE021460748283807F05DFA05E08B
:1014D0002146054807F058FA00E000BF00BF10BDE4
:1014E000C8070220B8080220E00802202DE9F041D8
:1014F0008AB004460D4616461F46DDF8408001219D
:10150000022003F099F90121880603F0A5F90121D1
:10151000880603F0B1F900214FF0806003F0ACF9C8
:101520004FF44050089002208DF8240000208DF8E0
:10153000260003208DF8250001208DF8270008A93A
:101540002D4801F00DFC09220C212B4801F050FC24
:1015500009220D21284801F04BFC00208DF81A00CB
:1015600001208DF81B0000208DF81C008DF81D0057
:101570008DF81E008DF81F008DF816808DF817402D
:101580008DF818608DF81950ADF8147005A91B4836
:1015900000F0A7F90E208DF80E0000208DF80F0046
:1015A00001208DF810000020ADF80400ADF8060011
:1015B000ADF80800ADF80A000120ADF80C008DF878
:1015C000110001A800F070F8012210210B4800F072
:1015D0007FF941208DF8000004208DF801000020E3
:1015E0008DF8020001208DF80300684602F032FDFC
:1015F00000200AB0BDE8F08100040240006800400D
:10160000B1F5007F3AD00FDC202928D006DC012973
:101610001CD004291DD0082940D11DE0402921D02B
:10162000B1F5807F3AD126E0B1F5004F31D006DC2C
:10163000B1F5806F25D0B1F5006F2FD124E0B1F561
:10164000803F12D0B1F5003F28D111E0154A8260E9
:1016500025E00822C26022E01022C2601FE00822BA
:1016600002611CE01022026119E00822426016E0CB
:101670001022426013E00422426010E00422426023
:101680000DE0042242600AE00022826104224260EE
:1016900005E0002282610422426000E000BF00BF3A
:1016A000704700000101010010B50021837A01227A
:1016B00002FA03F13D4A126842F001023B4B1A6004
:1016C0003A4A1C3212688A43384B1C331A60027B38
:1016D000CAB9364A0C3212688A43344B0C331A604A
:1016E0004288C38842EA0343304A4032847A42F84F
:1016F00034300288838842EA03432C4A4032847A99
:1017000002EBC4025360027B012A19D1274A0C3232
:1017100012680A43254B0C331A604288038842EA58
:101720000343224A4032847A42F83430C2888388A4
:1017300042EA03431D4A4032847A02EBC4025360FA
:10174000C27A3AB9194A121D12688A43174B1B1DF7
:101750001A6006E0154A121D12680A43134B1B1D3E
:101760001A60028932B9114A143212688A430F4B47
:1017700014331A600289012A06D10C4A1432126805
:101780000A430A4B14331A60427B012A06D1074AE6
:101790001C3212680A43054B1C331A60034A126854
:1017A00022F00102014B1A6010BD000000660040EB
:1017B00070B504460D46002660692840002871D0A7
:1017C000B5F5807F5CD010DC082D35D006DC012D0E
:1017D00020D0022D24D0042D72D127E0102D31D03D
:1017E000202D35D0402D6BD138E0B5F5004F60D0BD
:1017F00009DCB5F5007F49D0B5F5806F4CD0B5F563
:10180000006F5DD14FE0B5F5803F2DD0B5F5003FBD
:1018100056D12FE0A0682D4900F0BEFE064651E0EB
:10182000E068032100F0B8FE06464BE0E0680821BE
:1018300000F0B2FE064645E0E068102100F0ACFE84
:1018400006463FE02069032100F0A6FE064639E087
:101850002069082100F0A0FE064633E0206910212F
:1018600000F09AFE06462DE06068082100F094FE24
:10187000064627E06068102100F08EFE064621E053
:10188000A069012100F088FE06461BE0A069022144
:1018900000F082FE064615E0A069042100F07CFEFF
:1018A00006460FE00FE0A069702100F075FE0646C5
:1018B00008E06068042100F06FFE064602E0FFE7E2
:1018C000002600BF00E00026304670BD0101010087
:1018D0001AB143690B43436102E043698B4343619F
:1018E000704730B5024600200023146824F002043B
:1018F0001460146844F00104146000E05B1C546838
:1019000004F001041CB94FF6FF74A342F6D15468E9
:1019100004F001040CB900206CE08C79012C04D196
:10192000146844F08004146003E0146824F0800418
:101930001460CC79012C04D1146844F04004146084
:1019400003E0146824F0400414600C7A012C04D1E4
:10195000146844F02004146003E0146824F02004A8
:1019600014604C7A012C04D1146844F01004146003
:1019700003E0146824F0100414608C7A012C04D164
:10198000146844F00804146003E0146824F00804A8
:101990001460CC7A012C04D1146844F0040414605F
:1019A00003E0146824F0040414608C78A407CD7854
:1019B00044EA05640D7944EA05444D7944EA055446
:1019C0000D886D1E2C43D461146824F0010414604A
:1019D000002300E05B1C546804F001041CB14FF6C6
:1019E000FF74A342F6D1546804F001040CB1002046
:1019F00000E0012030BD10B500F5D87303EB0113F2
:101A00001B6803F004031372137A53B900F5D873FB
:101A100003EB01131B6840F2FF7404EA5353136095
:101A200009E000F5D87303EB01131B686FF0604405
:101A300004EAD303536000F5D87303EB01131B686A
:101A400003F00203537200F5D87303EB01135B68D4
:101A500003F00F03937200F5D87303EB01135B6877
:101A60001B0AD37400F5D87303EB01139B68D37280
:101A700000F5D87303EB01139B681C0A147300F57F
:101A8000D87303EB01139B681C0C547300F5D873D7
:101A900003EB01139B681B0E937300F5D87303EBE4
:101AA0000113DB68D37300F5D87303EB0113DB6814
:101AB0001C0A147400F5D87303EB0113DB681C0CCB
:101AC000547400F5D87303EB0113DB681B0E937499
:101AD00021B9C36843F02003C36003E0036943F006
:101AE0002003036110BD10B502460020936803F087
:101AF0008063B3F1806F00D110E0936803F000635E
:101B0000B3F1006F01D1012008E0936803F0805326
:101B1000B3F1805F01D1022000E00420042874D0DA
:101B200002F5C07303EB00131B6803F0010402F518
:101B3000C07303EB00131C600B7A7BB94B7A0C88E3
:101B400043EA445302F5C07404EB001424682343B1
:101B500002F5C07404EB0014236010E00B7A4C68AB
:101B600043EAC4034C7A234302F5C07404EB001427
:101B70002468234302F5C07404EB001423608B7ABD
:101B800003F00F038B7202F5C07303EB00135B6865
:101B900023F00F0402F5C07303EB00135C6002F541
:101BA000C07303EB00135B688C7A234302F5C074A7
:101BB00004EB001463608B7B1C064B7B44EA0344FC
:101BC0000B7B44EA0323CC7A234302F5C07404EB75
:101BD0000014A3608B7C1C064B7C44EA03440B7C02
:101BE00044EA0323CC7B234302F5C07404EB0014C6
:101BF000E36002F5C07303EB00131B6843F00104BC
:101C000002F5C07303EB00131C6010BD70B50446F1
:101C100094ED500AB1EE400AD4ED510A30EE200A9C
:101C2000D4ED520A30EE200A84ED480A94ED500AB1
:101C3000B1EE400AD4ED510A30EE600AD4ED520AFA
:101C400030EE200A84ED490A94ED500AD4ED510A91
:101C500030EE600AD4ED520A30EE200A84ED4A0AD2
:101C600094ED500AD4ED510A30EE200AD4ED520A18
:101C700030EE200A84ED4B0A94ED481AF0EE410A4A
:101C80006068B0F9060001EE100AB8EEC11AB0EEB5
:101C9000410A04F1300002F045FA84ED4C0A94ED5B
:101CA000491AF0EE410AA068B0F9060001EE100AE8
:101CB000B8EEC11AB0EE410A04F1300002F032FA77
:101CC00084ED4D0A94ED4A1AF0EE410AE068B0F94D
:101CD000060001EE100AB8EEC11AB0EE410A04F196
:101CE000300002F01FFA84ED4E0A94ED4B1AF0EE2C
:101CF000410A2069B0F9060001EE100AB8EEC11AD7
:101D0000B0EE410A04F1300002F00CFA84ED4F0A03
:101D1000607D30BB9FED220A84ED480A9FED200ACA
:101D200084ED490A9FED1E0A84ED4A0A9FED1C0AC4
:101D300084ED4B0A9FED1A0A84ED4C0A9FED180AB8
:101D400084ED4D0A9FED160A84ED4E0A9FED140AAC
:101D500084ED4F0A00231A461946184606F068F922
:101D60001DE094ED4F0ABDEEC00A10EE105A2BB2E2
:101D700094ED4E0ABDEEC00A10EE105A2AB294ED50
:101D80004D0ABDEEC00A10EE105A29B294ED4C0A6D
:101D9000BDEEC00A10EE105A28B206F049F970BD27
:101DA0000000000010B52DED028B04462068B0F94C
:101DB0000000404200EE100AB8EEC00ADFED240A2F
:101DC00020EE200ADFED230A20EE200A84ED500ADF
:101DD0002068B0F90200404200EE100AB8EEC00AD6
:101DE000DFED1B0A20EE200A84ED510A6068B0F98D
:101DF0000610A068B0F906000144E068B0F90600DA
:101E000001442069B0F90600084400EE100AB8EE5B
:101E1000C00AF1EE000A80EE201AB0EE418A0E48A8
:101E2000008801EE100AB8EE411AF0EE410A94ED76
:101E30000B1AB0EE410ADFED091AB0EE481A04F1B0
:101E4000800002F04DF984ED520ABDEC028B10BD0A
:101E50009A99D940CDCC4C3FA007022000F8FF450D
:101E600070B52DED088B04467648008800EE100A08
:101E7000B8EE400A10EE101A0846FEF76EFCC4E9F0
:101E800012017148006890ED5B0A10EE101A0846C6
:101E9000FEF763FC41EC190B94ED121BB0EE410A06
:101EA000F0EE610A53EC102BFEF74DFB41EC180BE2
:101EB0009FED660B53EC102BFEF748FBC4E91201B3
:101EC00094ED121BB0EE410AF0EE610A51EC100BDA
:101ED000FEF756FC08EE100AB0EE480AFEF722FAAA
:101EE000B1EE400A10EE105A2846FEF736FCC4E95F
:101EF0000E0194ED121BB0EE410AF0EE610A51ECB6
:101F0000100BFEF73DFC08EE100AB0EE480AFEF793
:101F1000CDF9B1EE400A10EE105A2846FEF71DFC2E
:101F2000C4E910014B4800680068B0F9000000EEF9
:101F3000100AB8EEC00AF0EE000A20EE200A84ED86
:101F40000B0A444800680068B0F9020000EE100A6D
:101F5000B8EEC00AF0EE000A20EE200A84ED0C0A6A
:101F600094ED0B0A10EE101A0846FEF7F6FB41EC52
:101F70001B0B94ED101BB0EE410AF0EE610A53EC1E
:101F8000102BFEF7E3FA41EC190B94ED0C0AB1EEBD
:101F9000400A10EE101A0846FEF7DFFB41EC1B0B5F
:101FA00094ED0E1BB0EE410AF0EE610A53EC102BDB
:101FB000FEF7CCFA41EC1A0B53EC192BFEF71FFA83
:101FC00041EC180BFEF7DCFB206294ED0B0A10EEDF
:101FD000101A0846FEF7C1FB41EC1B0B94ED0E1BDB
:101FE000B0EE410AF0EE610A53EC102BFEF7AEFAA8
:101FF00041EC180B94ED0C0A10EE101A0846FEF78F
:10200000ACFB41EC1B0B94ED101BB0EE410AF0EE63
:10201000610A53EC102BFEF799FA41EC190B53ECC3
:10202000182BFEF7ECF941EC1A0BFEF7A9FB6062E6
:102030000948008801B204F1280002F0C1FCBDEC9F
:10204000088B70BDA00702204C010020000000603A
:10205000FB21493FFC0000200001002010B5044690
:102060002C48007820B102202075002029490870F2
:10207000204600F0B1F9204600F0E4F94FF4C770B3
:10208000005B00EE900AF8EE600A94ED641A60EED0
:10209000810AFCEEE00A10EE900A82B2D4ED650AE5
:1020A000B0EE600A94F88C1104F5B87001F0F2FDFE
:1020B00019480068407B022808D1207D1749087024
:1020C000002020750120164908700DE014480078A2
:1020D000012809D111480078012800D100E0022030
:1020E000207500200E490870207D012803D120466C
:1020F00000F072F80CE0207D20B904F5907000F03B
:1021000089F905E0207D022802D1204600F00AF876
:1021100010BD0000470100204C01002046010020B6
:102120004801002010B52DED028B04464FF4B97024
:10213000015B001D005B081A00EE100AB8EEC00A31
:10214000D4ED640A20EE200A84ED500A4FF4BA70F0
:10215000005BB4F87011401A00EE100AB8EEC00A25
:10216000D4ED640A20EE200A84ED510A6068B0F9CB
:102170000610A068B0F906000144E068B0F9060056
:1021800001442069B0F90600084400EE100AB8EED8
:10219000C00AF1EE000A80EE201AB0EE418A0C4827
:1021A000008801EE100AB8EE411AF0EE410A94EDF3
:1021B0000B1AB0EE410ADFED071AB0EE481A04F12F
:1021C000800001F08DFF84ED520ABDEC028B10BD42
:1021D000A007022000F8FF4570B52DED088B0446DE
:1021E0007848008800EE100AB8EE400A10EE101A87
:1021F0000846FEF7B2FA04F59072C2E9120172487D
:10220000006890ED5B0A10EE101A0846FEF7A5FA7A
:1022100041EC190B94ED5A1BB0EE410AF0EE610A45
:1022200053EC102BFEF78FF941EC180B9FED670B69
:1022300053EC102BFEF78AF904F59072C2E91201F3
:1022400094ED5A1BB0EE410AF0EE610A51EC100B0E
:10225000FEF796FA08EE100AB0EE480AFEF762F8AA
:10226000B1EE400A10EE105A2846FEF776FA04F551
:102270009072C2E90E0194ED5A1BB0EE410AF0EEE5
:10228000610A51EC100BFEF77BFA08EE100AB0EE73
:10229000480AFEF70BF810EE105A2846FEF75DFAD2
:1022A00004F59072C2E910014FF4BA70005BB4F803
:1022B0007011401A00EE100AB8EEC00A84ED530AFD
:1022C0004FF4B970015B001D005B081A00EE100AA4
:1022D000B8EEC00A84ED540A94ED530A10EE101AB9
:1022E0000846FEF73AFA41EC1B0B94ED581BB0EE92
:1022F000410AF0EE610A53EC102BFEF727F941EC8E
:10230000190B94ED540AB1EE400A10EE101A08466B
:10231000FEF723FA41EC1B0B94ED561BB0EE410A7D
:10232000F0EE610A53EC102BFEF710F941EC1A0B9A
:1023300053EC192BFEF763F841EC180BFEF720FA6B
:102340004FF4A071085194ED530A10EE101A08468C
:10235000FEF703FA41EC1B0B94ED561BB0EE410A5D
:10236000F0EE610A53EC102BFEF7F0F841EC190B7C
:1023700094ED540A10EE101A0846FEF7EEF941ECFF
:102380001B0B94ED581BB0EE410AF0EE610A53ECC2
:10239000102BFEF7DBF841EC1A0B53EC192BFEF770
:1023A0002EF841EC180BFEF7EBF94FF4A071085131
:1023B0000848008801B204F5A47002F001FBBDECEE
:1023C000088B70BDA00702204C01002000000060B7
:1023D000FB21493F000100200D49898A01F48061F9
:1023E00011B1012226210A542621095C01290ED1AE
:1023F0000749898A01F4806149B9002226210A54DB
:10240000017D022901D1012100E0022101757047FF
:10241000D013022010B504469FED090A84ED080A86
:102420009FED070A84ED090A9FED050A84ED0A0A6B
:1024300000231A461946184605F0FAFD10BD0000A3
:10244000000000000168097D01F0200121B19FED2D
:102450000A0A80ED640A0DE00168097D01F01001AF
:1024600021B19FED060A80ED640A03E0B7EE000A91
:1024700080ED640A704700003333B33FCDCC4C3F4E
:1024800000B502462848B0F90000404200EE100AAC
:10249000B8EEC00ADFED250A20EE200ADFED240A9F
:1024A00020EE200ABDEEC00A10EE100A00B221494B
:1024B00008801D48B0F90200404200EE100AB8EE54
:1024C000C00ADFED1A0A20EE200ABDEEC00A10EEA7
:1024D000100A00B2184908801348B0F9040000EE51
:1024E000100AB8EEC00ADFED110A20EE200ABDEE98
:1024F000C00A10EE100A00B2104908800D48B0F969
:10250000001002F1200002F05BFA0B48B0F9001055
:1025100002F1240002F054FA0848B0F9001002F168
:10252000280002F04DFA00BDD01302209A99D9403C
:10253000CDCC4C3F4001002042010020440100204E
:1025400010B504469FED130A84ED480A9FED110A69
:1025500084ED490A9FED0F0A84ED4A0A9FED0D0AAA
:1025600084ED4B0A9FED0B0A84ED4C0A9FED090A9E
:1025700084ED4D0A9FED070A84ED4E0A9FED050A92
:1025800084ED4F0A00231A461946184605F050FDFF
:1025900010BD0000000000000246002002EA010316
:1025A0000BB1012000E000207047000039B1084A5B
:1025B0001268012383401A43054B1A6006E0044A5F
:1025C0001268012383409A43014B1A607047000050
:1025D0000074004030B5002200230A4C226840F607
:1025E000FE748440A243D1E900452C438D682C43FE
:1025F000CD6844EA050303FA00F42243014C22604B
:1026000030BD00000074004008B500220092054A69
:10261000009200F10802009B1A440092009A116097
:1026200008BD00000074004010B50949094800F0D9
:102630005DF958B10649074800F03CF8002105480B
:1026400000F06CF80449034800F04EF810BD00009B
:1026500000002020A06002400080202010B510491A
:10266000104800F043F9C8B10D490E4800F022F8B7
:1026700007F09EFC0AF046FC01280FD00A490B48DF
:10268000006809F00FFD0848006838B14FF080502D
:1026900007490860BFF34F8FBFF36F8F10BD000075
:1026A000000800208864024048030020B402002093
:1026B00004ED00E00246094B9A4201D2084801E0CD
:1026C0000648103801F000531BB1064B0B40C360A5
:1026D00002E0044B0B40836070470000106402402E
:1026E000006002407D0F7D0F0246094B9A4201D2E5
:1026F000084801E00648103801F000531BB1064BB2
:102700000B40C36002E0044B0B4083607047000045
:1027100010640240006002407D0F7D0F21B102680D
:1027200042F00102026003E0026822F0010202604E
:1027300070470000016821F0010101600021016083
:1027400041608160C1600161212141614A49884243
:1027500004D13D21484A103A91608CE04649183135
:10276000884205D14FF47461434A103A916082E087
:1027700041493031884205D14FF474113E4A103A34
:10278000916078E03C494831884205D14FF074614E
:10279000394A103A91606EE037496031884204D17D
:1027A0003649354A103AD16065E03349783188427C
:1027B00004D13349304A103AD1605CE02E4990315F
:1027C000884204D12F492C4A103AD16053E02A495B
:1027D000A831884205D14FF03D51274A103AD160C7
:1027E00049E02949884204D13D21274A083A11602D
:1027F00041E025491831884205D14FF47461224ADD
:10280000083A116037E020493031884205D14FF451
:1028100074111D4A083A11602DE01B494831884265
:1028200005D14FF07461184A083A116023E0164947
:102830006031884204D11149134A121F11601AE015
:1028400011497831884204D10D490F4A121F116095
:1028500011E00D499031884204D10A490A4A121FF9
:10286000116008E00849A831884204D14FF03D5179
:10287000054A121F11607047106002403D000020A1
:10288000400F002000003D201064024021B102688A
:1028900042F48022026003E0026822F48022026097
:1028A000704722B1036843F40023036003E0036828
:1028B00023F40023036001617047014600200A6889
:1028C00002F001020AB1012000E000207047014639
:1028D000486880B27047014600200A6802F400226E
:1028E0000AB1012000E000207047000030B5034627
:1028F0000A46002000240B4DAB4201D20A4901E0F8
:102900000849103902F000550DB14C6800E00C6820
:10291000064D2C4004EA02050DB1012000E0002024
:1029200030BD000010640240006002407D0F7D0F4A
:1029300010B501F080034BB122B1436943F080032D
:10294000436103E0436923F08003436180290BD096
:102950002AB1036801F01E042343036004E0036806
:1029600001F01E04A343036010BD000010B5002257
:102970000268134B1A40CC680B6823434C6923430D
:102980008C692343CC6923430C6A23434C6A234359
:102990008C6A23434C6B23438C6B23431A430260A2
:1029A000426922F00702D1E90B3423431A43426102
:1029B0000B6943604B6883608B68C36010BD000087
:1029C0003F801CF04160704700B587B00121084688
:1029D00001F032FF0121480701F03EFF1020059071
:1029E00003208DF8180002208DF81B0005A90B4864
:1029F00000F0B6F9002001900290039002200490AC
:102A000001A90020FFF7E6FD01210020FFF7CEFD20
:102A100000210846FFF7F8FD07B000BD00000240A6
:102A2000704770B504460D4600212046FFF776FE3C
:102A300000BF2046FFF741FF0028FAD12946204673
:102A4000FFF7C0FF01212046FFF768FE70BD10B5FB
:102A50004FF4807000F012F840B14FF4807000F035
:102A600007F807F0ADFA172002F08EFB10BD00004A
:102A70000149086070470000143C014001460020F5
:102A8000034A12680A400AB1012000E000207047A2
:102A9000143C0140002123498279002A3AD00A4699
:102AA000126803689A430B461A600A1D126803688D
:102AB0009A430B1D1A60027911440A6803681A438D
:102AC0000A60184A0832126803689A43154B0833A3
:102AD0001A601A1D126803689A43124B0C331A606D
:102AE0004279102A0ED11A1F126803681A430D4B3F
:102AF00008331A601A1D126803681A43094B0C3315
:102B00001A600DE00749427911440A6803681A43C4
:102B10000A6005E0027911440A6803689A430A6072
:102B200070470000003C0140014908607047000008
:102B30000C3C024070B504460A460026092502B93D
:102B400009E0012A01D1160205E0022A01D116028C
:102B500001E04FF4407600F09FF80546092D28D19A
:102B60001548006820F44070134908600846006862
:102B7000304308600846006820F0F8000860084606
:102B8000006844F0020108430B49086008460068E9
:102B900040F48030086000F07FF805460648006881
:102BA00020F00200044908600846006820F0F800A0
:102BB0000860284670BD0000103C024009201349FF
:102BC000096801F48031B1F5803F01D101201CE09A
:102BD0000E49096801F0100109B1062015E00B4902
:102BE000096801F4807109B102200EE00749096803
:102BF00001F0E00109B1072007E00449096801F08C
:102C0000020109B1082000E0092070470C3C024095
:102C10000348006840F00040014908607047000028
:102C2000103C024030B502460C46092500F034F84D
:102C30000546092D19D10E48006820F440700C4952
:102C400008600846006840F40070086008460068A4
:102C500040F001000860146000F01EF805460448CA
:102C6000006820F0010002490860284630BD0000DD
:102C7000103C02400548006800F0004028B10448BC
:102C800002490C390860034808607047103C024054
:102C900023016745AB89EFCD08B509200090FFF708
:102CA0008DFF009002E0FFF789FF00909DF8000083
:102CB0000128F8D09DF8000008BD08B58DED000A88
:102CC000009901700099090A41700099090C8170FE
:102CD0000099090EC17008BD00B585B00121022020
:102CE00001F0AAFD0121880301F0D6FD0821012091
:102CF00002F042FB4FF48070009000208DF8040039
:102D000001208DF8060000208DF8070003208DF8C3
:102D100005006946114800F023F84FF480700290D6
:102D200000208DF80C0008208DF80D0001208DF892
:102D30000E0002A8FFF7AEFE17208DF81000052048
:102D40008DF8110000208DF8120001208DF813007D
:102D500004A801F07FF905B000BD000000040240A6
:102D6000F0B50A4600210023002400BF3DE0012504
:102D700005FA01F3156805EA03049C4234D105689D
:102D80004F000326BE40B543056015794E00B5409F
:102D90000668354305601579012D02D01579022D9D
:102DA00016D185684F000326BE40B543856055792E
:102DB0004E00B540866835438560456801268E40E3
:102DC000B5434560456896798E40B6B23543456057
:102DD000C5684F000326BE40B543C560D5794E0097
:102DE000B540C6683543C560491C1029BFD3F0BD46
:102DF000F0B5002300244D07ED0E02FA05F3CE10C6
:102E000000F1200555F826504E07F70E0F26BE405C
:102E1000B543CF1000F1200646F82750CE1000F140
:102E2000200555F8265045EA0304CE1000F1200590
:102E300045F82640F0BD418370470183704700008C
:102E4000014600205C4A914203D2B1F1006F00D3E9
:102E5000B0E05A4A914204D2574A914201D3082025
:102E6000A8E0574A914204D2544A914201D310201B
:102E7000A0E0544A914204D2514A914201D3182011
:102E800098E0514A914204D24E4A914201D3202007
:102E900090E04E4A914204D24B4A914201D32820FD
:102EA00088E04B4A914204D2484A914201D33020F3
:102EB00080E0484A914204D2454A914201D33820E9
:102EC00078E0454A914204D2424A914201D34020DF
:102ED00070E0424A914204D23F4A914201D34820D5
:102EE00068E03F4A914204D23C4A914201D35020CB
:102EF00060E0B1F1016F04D2394A914201D3582008
:102F000058E0384A914204D2B1F1016F01D38020D8
:102F100050E0354A914204D2324A914201D388208E
:102F200048E0324A914204D22F4A914201D3902084
:102F300040E02F4A914204D22C4A914201D398207A
:102F400038E02C4A914204D2294A914201D3A02070
:102F500030E0294A914204D2264A914201D3A82066
:102F600028E0264A914204D2234A914201D3B0205C
:102F700020E0234A914204D2204A914201D3B82052
:102F800018E0204A914204D21D4A914201D3C02048
:102F900010E01D4A914204D21A4A914201D3C8203E
:102FA00008E01A4A914204D2174A914201D3D02034
:102FB00000E0D820704700000040000800800008B2
:102FC00000C000080000010800000208000004081A
:102FD000000006080000080800000A0800000C08AD
:102FE00000000E08004010080080100800C0100803
:102FF0000000110800001208000014080000160864
:103000000000180800001A0800001C0800001E0834
:1030100030B5034613B94FF6FF7030BD09E013F821
:10302000014B82EA0400C0B2054D35F8100080EA79
:103030002222081EA1F10101F1D11046EDE70000A6
:10304000ECD4000830B5034605E013F8010B80EA24
:1030500002040448025D081EA1F10101F5D11046E9
:1030600030BD0000EBD30008014600205D4A9142CC
:1030700004D2B1F1006F01D31046B2E05A4A914236
:1030800004D2584A914201D35748AAE0574A914284
:1030900004D2554A914201D35448A2E0544A914285
:1030A00004D2524A914201D351489AE0514A914286
:1030B00004D24F4A914201D34E4892E04E4A914287
:1030C00004D24C4A914201D34B488AE04B4A914288
:1030D00004D2494A914201D3484882E0484A914289
:1030E00004D2464A914201D345487AE0454A91428A
:1030F00004D2434A914201D3424872E0424A91428B
:1031000004D2404A914201D33F486AE03F4A91428B
:1031100004D23D4A914201D33C4862E0B1F1016FD3
:1031200005D23A4A914202D34FF0016059E0384A41
:10313000914204D2B1F1016F01D3104651E0354AFA
:10314000914204D2324A914201D3324849E0324A94
:10315000914204D22F4A914201D32F4841E02F4A95
:10316000914204D22C4A914201D32C4839E02C4A96
:10317000914204D2294A914201D3294831E0294A97
:10318000914204D2264A914201D3264829E0264A98
:10319000914204D2234A914201D3234821E0234A99
:1031A000914204D2204A914201D3204819E0204A9A
:1031B000914204D21D4A914201D31D4811E01D4A9B
:1031C000914204D21A4A914201D31A4809E01A4A9C
:1031D000914204D2174A914201D3174801E04FF0BF
:1031E00002607047004000080080000800C000082E
:1031F00000000108000002080000040800000608A2
:103200000000080800000A0800000C0800000E0872
:10321000004010080080100800C0100800001108CD
:10322000000012080000140800001608000018082A
:1032300000001A0800001C0800001E08B0EE001A6A
:10324000C0EE010A90ED001AD1ED001A31EE611ABC
:10325000F4EEC10AF1EE10FA06D2D1ED000A70EEDA
:10326000800AC1ED000A16E0F0EE000A80EE201A96
:10327000F1EE410A90ED001AD1ED001A31EE611A1B
:10328000F4EEC10AF1EE10FA05DDD1ED000A70EEA0
:10329000C00AC1ED000A704700BFFEE7F0B5054661
:1032A000059C00207FE093ED050A00EB4006404FAF
:1032B00007EB8606D6ED000A20EE200AD3ED060ABB
:1032C00000EB400607EB860696ED011A00EE810A38
:1032D000D3ED070A00EB400607EB860696ED021ACF
:1032E00000EE810A334E06EB8006D6ED000A30EE82
:1032F000200A05EB800686ED000A93ED010A00EB3B
:1033000040062D4F07EB8606D6ED000A20EE200A78
:10331000D3ED020A00EB400607EB860696ED011A94
:1033200000EE810AD3ED030A00EB400607EB8606A8
:1033300096ED021A00EE810A204E06EB8006D6EDCD
:10334000000A30EE200A01EB800686ED000A94EDBB
:10335000010A00EB40061A4F07EB8606D6ED000A7D
:1033600020EE200AD4ED020A00EB400607EB8606A9
:1033700096ED011A00EE810AD4ED030A00EB400637
:1033800007EB860696ED021A00EE810A0D4E06EB5B
:103390008006D6ED000A30EE200A02EB800686EDAC
:1033A000000A461CF0B20328FFF67DAFF0BD000016
:1033B000BC02002008150220E002002014150220A3
:1033C000040300203015022010B52DED028BB0EE65
:1033D000408A2348007818B305F0A4FBF0EE408A39
:1033E000F0EE680AB0EE480A1E4800F09BFE1D4849
:1033F00090ED0A0AB5EEC00AF1EE10FA03D29FED85
:103400001A0A80ED0A0A174890ED0A0ABCEEC00AB3
:1034100010EE100A84B22146144802F000FB1CE0B2
:1034200005F080FBB4EEC80AF1EE10FA10D2104895
:103430000078401C0E49087008460078C82807DD4F
:103440000120074908709FED0B0A064880ED0C0A21
:1034500041F28731054802F0E2FABDEC028B10BD63
:10346000280300207C15022000000000000400401A
:103470004403002000401C4508B5072008F064FD07
:1034800000BF06F0D3FD0028FBD100BF06F0C2FA52
:103490000028FBD106F010FF044609F0E1FCA34927
:1034A0000860FFF719FC1722A149A24801F0A6FE07
:1034B00001221146A04801F029FF012202219E4865
:1034C00001F024FF0021102001F046FE2DE100BF95
:1034D0004FF0FF31012008F055FB0128F8D1974942
:1034E0009348401C06F010FE95499148103006F0B4
:1034F000D9FA9348914B934A934900909348FFF728
:10350000CDFE8E48007800F00100002842D090489F
:103510000078E8BB012141F2883002F0DBF88D4AE7
:1035200001218D4801F04EF9864A87498B48FDF705
:10353000B3FB8B4B1A1F111F884805F045F98248D1
:1035400090ED000A874880ED000A874880ED000A68
:10355000864880ED000A7C4890ED010A814880EDA4
:10356000010A814880ED010A804880ED010A764811
:1035700090ED020A7B4880ED020A7B4880ED020A4A
:103580007A4880ED020A72480078401C704900E0D9
:1035900001E00870BAE0744890ED000A734880EDCD
:1035A000000A704890ED000A6F4880ED000A90ED27
:1035B000000A6F48D0ED000A20EE200A6B48D0EDDB
:1035C000000A6B4890ED011A00EE810A5E48D0EDCA
:1035D000000A674890ED021A00EE810A614880ED0A
:1035E000000A614890ED010A604880ED010A5D48DB
:1035F00090ED010A5C4880ED010A90ED010A5C48FB
:10360000D0ED000A20EE200A5848D0ED010A5848B3
:1036100090ED011A00EE810A4B48D0ED010A5448A2
:1036200090ED021A00EE810A4E4880ED010A4E48E4
:1036300090ED020A4D4880ED020A4A4890ED020AD8
:10364000494880ED020A90ED020A4948D0ED000A8F
:1036500020EE200A4548D0ED020A454890ED011AB7
:1036600000EE810A3848D0ED020A414890ED021A76
:1036700000EE810A3B4880ED020A324B0246334994
:103680009FED3C0A3548FDF77FFC354B1A1F111F93
:10369000324805F099F838480088B8B9374890EDB5
:1036A000000A374880ED000A344890ED010A34489A
:1036B00080ED010A314890ED020A314880ED020A9E
:1036C0002D480088401C2C4908801FE02A480088AB
:1036D000B0F5FA7F0EDA0021084604F059FB2948BC
:1036E000007898B115480278234B1849244805F012
:1036F00075FC0BE020480088B0F5FA7F06D104F095
:103700003FFB1D480088401C1B4908800B48D0ED3A
:10371000040AB0EE600AFFF757FE002008F0BEFA78
:1037200019490860012008F00FFCD0E6B40200201F
:10373000C4140220FCD6000800500140DC14022012
:103740002015022054150220481502203C150220A5
:10375000400300202C0300207C1502206C15022061
:1037600068150220E4150220D8150220CC1502208D
:1037700014D700086F12833A42030020FC14022081
:103780000815022028030020B802002070B5064664
:103790000C4615461548007838B3288888B914486F
:1037A00090ED000A134880ED000A114890ED010ADF
:1037B000104880ED010A0E4890ED020A0D4880ED98
:1037C000020A0D4802782B460C490A4805F006FC0F
:1037D000084890ED000A84ED000A90ED010A84ED9E
:1037E000010A90ED020A84ED020A70BD2803002050
:1037F000FC14022008150220DC1402203C150220D3
:1038000091ED000A054A82ED000A91ED010A82ED70
:10381000010A91ED020A82ED020A7047FC140220AF
:103820002DE9F04790B007460C4615461E46DDE9E7
:10383000199ADDF860802846FEF77CFF00BF284615
:10384000FFF73BF80028FAD100960194CDF80880E4
:1038500040200390CDF81090002005904FF4806038
:10386000069000200790089009904FF480300A904D
:1038700000200B9003200C9000200D900E906946C4
:103880002846FFF773F80AF0FF008DF83C0002208D
:103890008DF83D0004208DF83E0001208DF83F009A
:1038A0000FA800F0D7FB01228021384602F0D0FD9E
:1038B00000212846FEF732FF012210212846FFF79B
:1038C00037F810B0BDE8F08710B588B00446012184
:1038D000084600F0B1FF0121480400F0BDFF0121BE
:1038E000480500F0A9FF072202212248FFF780FACD
:1038F000072203211F48FFF77BFA0C2005900220C6
:103900008DF8180000208DF81A0001208DF81B009A
:1039100002208DF8190005A91648FFF721FA019435
:103920000020ADF80800ADF80A00ADF80C00ADF8C5
:1039300010000820ADF80E0001A90F4802F066FE45
:1039400001210D4802F078FD012240F224410A488D
:1039500002F037FE26208DF81C0004208DF81D0093
:103960008DF81E0001208DF81F0007A800F072FBE3
:1039700008B010BD000002400044004010B50446ED
:103980007FE1C14800882118C0480A6802600979AF
:1039900001710078A52874D1BB49098860180521F8
:1039A00002F0BAFF0128F6D1B84AB2F8012002F1BC
:1039B0000901B54A1288A01802F08EFF0128EAD149
:1039C000B14800882118B148B1F80510C180AE484F
:1039D0000088205C401CAC4909886054AB48B0F8B2
:1039E0000110A948008809300844A9490880A7485F
:1039F000C08840F20122811A904273D016DC40F256
:103A00000112A0EB0201904260D006DC06286AD2C7
:103A1000DFE800F0691F2B384450012964D00229E7
:103A20006ED003297DD004295DD186E0062974D0AB
:103A300005DCECD2DFE801F05799A5B1BDC9072933
:103A40006CD008296BD009296AD0B1F5807FEBD101
:103A5000F7E08E48B0F801208B4800882044C11D53
:103A60008A480830FCF7A0FCF8E08848B0F801204C
:103A7000854800882044C11D84481330FCF794FC1D
:103A8000ECE0F1E08148B0F801207F480088204454
:103A9000C11D7E481430FCF787FCDFE07B48B0F89E
:103AA0000120794800882044C11D78483430FCF753
:103AB0007BFCD3E07548B0F80120734800882044AF
:103AC000C11D72483630FCF76FFCC7E06F48B0F894
:103AD00001206D4800882044C11D6C484330FCF72C
:103AE00063FCBBE035E0B8E06848B0F80120664808
:103AF00000882044C11D65484730FCF755FCADE007
:103B00006248B0F80120604800882044C11D5F4829
:103B10004B30FCF749FCA1E003E062E06DE078E0A7
:103B200083E05A48B0F80120574800882044C11D5E
:103B300056484E30FCF738FC90E05448B0F801206D
:103B4000514800882044C11D50485030FCF72CFCDF
:103B500084E04E48B0F801204B4800882044C11D45
:103B60004A485130FCF720FC78E04848B0F8012082
:103B7000454800882044C11D44486C30FCF714FCC3
:103B80006CE04248B0F801203F4800882044C11D45
:103B90003E487C30FCF708FC60E03C48B0F801206F
:103BA000394800882044C11D38488C30FCF7FCFBA4
:103BB00054E03648B0F80120334800882044C11D45
:103BC00032488D30FCF7F0FB48E03048B0F8012077
:103BD0002D4800882044C11D2C488E30FCF7E4FBA2
:103BE0003CE02A48B0F80120274800882044C11D45
:103BF00026488F30FCF7D8FB30E02448B0F801208D
:103C0000214800882044C11D20489630FCF7CCFB99
:103C100024E01E48B0F801201B4800882044C11D44
:103C20001A489C30FCF7C0FB18E01848B0F8012097
:103C3000154800882044C11D1448A030FCF7B4FB8F
:103C40000CE01248B0F801200F4800882044C11D44
:103C50000E48A630FCF7A8FB00BF00BF00BF0C4811
:103C600000880949088003E000200749088009E02E
:103C700005480088B0F5C87F03DD002002490880B0
:103C800000E07EE600BF10BD060200201C0F0220EF
:103C90000802002070B52DED028B04460D46B0EEF3
:103CA000408A16463F4800680068007D00F0010029
:103CB00018B12088284420800CE02088A84207DD25
:103CC000B1EE480ABCEEC00A10EE100A208001E0F6
:103CD0000020208000EE106AB8EE400A204600F076
:103CE00015F9304800680068007D00F0040018B144
:103CF0006088284460800CE06088A84207DDB1EE4F
:103D0000480ABCEEC00A10EE100A608001E00020F4
:103D1000608000EE106AB8EE400AA01C00F0F6F8D1
:103D2000204800680068007D00F0020018B1A088FB
:103D30002844A0800CE0A088A84207DDB1EE480A24
:103D4000BCEEC00A10EE100AA08001E00020A080A6
:103D500000EE106AB8EE400A201D00F0D7F81148B6
:103D600000680068007D00F0080018B1E088284471
:103D7000E0800CE0E088A84207DDB1EE480ABCEE26
:103D8000C00A10EE100AE08001E00020E08000EEA2
:103D9000106AB8EE400AA01D00F0B8F8BDEC028B26
:103DA00070BD0000FC000020417BE1BB8168097D03
:103DB00001F02001F1B190ED560A8168B1F90E10C1
:103DC00000EE901AF8EEE00A9FED4A1A00EE810A22
:103DD00080ED560A90ED570A8168B1F90C1000EE9B
:103DE000901AF8EEE00A9FED441A00EEC10A80ED49
:103DF000570A1FE090ED560A8168B1F90E1000EEE7
:103E0000901AF8EEE00A9FED3B1A00EE810A80ED71
:103E1000560A90ED570A8168B1F90C1000EE901A1D
:103E2000F8EEE00A00E00AE09FED341A00EEC10A65
:103E300080ED570A90ED570A80ED580A58E0417B13
:103E4000012929D190ED560A2D49D1ED010A9FEDA6
:103E50002D1A70EEC10AB6EE001A00EEC10A80ED0E
:103E6000560A90ED580AD1ED000A9FED261A70EE21
:103E7000C10A9FED251A00EE810A80ED580A9FEDD8
:103E8000210A81ED010A9FED1F0A81ED000A90EDE4
:103E9000580A80ED570A2BE0417B022928D190ED8A
:103EA000560A1749D1ED010A9FED161A70EEC10AA4
:103EB000B0EE081A00EEC10A80ED560A90ED580ADD
:103EC000D1ED000A9FED0F1A70EEC10AB7EE081A85
:103ED00000EE810A80ED580A9FED0A0A81ED010A81
:103EE0009FED080A81ED000A90ED580A80ED570A0F
:103EF000704700000AD7233D0AD7233CBC74933C8B
:103F0000F40100200000B4429A99993F018800EE24
:103F1000901AF8EE600AF4EEC00AF1EE10FA04DB33
:103F2000FCEEC00A10EE901A0180704790ED001A66
:103F3000B4EEC01AF1EE10FA01DB80ED000A90ED4C
:103F4000001AB4EEE01AF1EE10FA01D8C0ED000A42
:103F5000704770EE601AB0EE611AD0ED001AB7EE3D
:103F6000002A30EE022AF4EEC21AF1EE10FA05DD54
:103F7000D0ED001A71EEC11AC0ED001AD0ED001A92
:103F8000F4EEE01AF1EE10FA09D2D0ED001AB7EE15
:103F9000002A31EE022A71EE821AC0ED001A704733
:103FA00000B58BB00121082000F056FC0121080269
:103FB00000F042FC022200212248FEF719FF0120F6
:103FC000099002208DF8280003208DF82900002098
:103FD0008DF82A0001208DF82B0009A91948FEF759
:103FE000BFFE42F22730ADF81800C820079000202D
:103FF000ADF81A00192003906020ADF804000120EC
:10400000ADF806000020ADF8100001A90E4801F03F
:10401000BBFC08210C4801F0F3FC01210A4801F027
:10402000C7FB0121084801F0D2FB0020ADF82000B9
:1040300006A9054801F0F8FC0121034801F0D3FB73
:104040000BB000BD00200240000C004000BFFEE7A6
:104050007047000070B5002100230F22C4781CB304
:10406000174C246804F4E064C4F5E064C4F3072149
:10407000C1F10404E3B20A4144789C40E1B284787F
:10408000144021430C07210E0E4C0578615504782D
:1040900004F01F050124AC4005786D11AD0005F159
:1040A000E025C5F8004109E0047804F01F0501246B
:1040B000AC40054D0678761145F8264070BD0000ED
:1040C0000CED00E000E400E080E100E00249014383
:1040D000024A1160704700000000FA050CED00E094
:1040E00010B50446B0EE403AF0EE603AB0EE414A08
:1040F000F0EE614AB0EE641AF0EE430AB0EE630AE5
:10410000204600F0BFF9B0EE405AF0EE450AB0EE9E
:10411000440A04F1500000F005F8F0EE405AB0EE09
:10412000650A10BDB0EE401A10B99FEDD50A704770
:1041300090ED120A80ED130A90ED110A80ED120A3B
:10414000C0ED090A80ED081A30EEC10A80ED110AAF
:104150000278002A75D190ED010AD0ED111A20EEF7
:10416000210A80ED0B0A90ED0C0AD0ED021A90EDB9
:10417000112A01EE820A80ED0C0A90ED0F0A80ED03
:10418000100A90ED0E0A80ED0F0A90ED110AD0EDA5
:10419000121A30EE610A80ED0E0A90ED030AD0ED9E
:1041A0000E1A20EE210A80ED0D0A90ED0C0AD0EDDA
:1041B000071AB4EEE10AF1EE10FA04DD90ED070AF9
:1041C00080ED0C0A10E090ED0C0AD0ED071AF1EE2C
:1041D000611AB4EEE10AF1EE10FA05D290ED070A89
:1041E000B1EE400A80ED0C0A90ED0B0AD0ED0C1AEE
:1041F00030EE210AD0ED0D1A30EE210A80ED0A0AC8
:1042000090ED0A0AD0ED061AB4EEE10AF1EE10FACA
:1042100004DD90ED060A80ED0A0A2DE190ED0A0A10
:10422000D0ED061AF1EE611AB4EEE10AF1EE10FAE1
:10423000F3D290ED060AB1EE400A80ED0A0A1BE1C6
:10424000FFE70278012A61D190ED110AD0ED121A30
:1042500030EE610AD0ED011A20EE210A80ED0B0A42
:1042600090ED020AD0ED111A20EE210A80ED0C0A21
:1042700090ED0F0A80ED100A90ED0E0A80ED0F0A06
:1042800090ED110AD0ED121AB0EE002A02EE610A8A
:10429000D0ED131A30EE210A80ED0E0A90ED030ADC
:1042A000D0ED0E1A20EE210A80ED0D0A90ED0B0ADA
:1042B000D0ED0C1A30EE210AD0ED0D1A30EE210AA5
:1042C000D0ED0A1A30EE210A80ED0A0A90ED0A0AB2
:1042D000D0ED061AB4EEE10AF1EE10FA04DD90ED2D
:1042E000060A80ED0A0AC7E090ED0A0AD0ED061A28
:1042F000F1EE611AB4EEE10AF1EE10FA05D290ED9A
:10430000060AB1EE400A80ED0A0AB5E00278022AF8
:104310007ED190ED110AB5EEC00AF1EE10FA02DD81
:1043200090ED110A03E090ED110AB1EE400AD0EDD4
:10433000041AB4EEE10AF1EE10FA01DD002135E0D5
:1043400090ED110AB5EEC00AF1EE10FA02DD90ED23
:10435000110A03E090ED110AB1EE400AD0ED051A02
:10436000B4EEE10AF1EE10FA01D201211EE0D0ED27
:10437000041A90ED110AB5EEC00AF1EE10FA02DD52
:1043800090ED110A03E090ED110AB1EE400A31EE12
:10439000C00AD0ED041A90ED052A71EEC21A80EE23
:1043A000212ABCEEC20A10EE102AD1B290ED0C0AFE
:1043B000D0ED021A90ED112A01EE820A80ED0C0A6E
:1043C00090ED0C0AD0ED071AB4EEE10AF1EE10FA06
:1043D00004DD90ED070A80ED0C0A10E090ED0C0A68
:1043E000D0ED071AF1EE611AB4EEE10AF1EE10FA1F
:1043F00005D290ED070AB1EE400A80ED0C0A90ED6F
:10440000010AD0ED111A60EE211A90ED0C2A00E09D
:1044100032E000EE101AF8EE402AB0EE610A02EE29
:10442000820AD0ED111A90ED122A71EEC21A90EDA7
:10443000032A02EE210A80ED0A0A90ED0A0AD0ED65
:10444000061AB4EEE10AF1EE10FA04DD90ED060A68
:1044500080ED0A0A10E090ED0A0AD0ED061AF1EE9E
:10446000611AB4EEE10AF1EE10FA05D290ED060AF7
:10447000B1EE400A80ED0A0A90ED0A0A57E6000004
:104480000000000001B52DED040B0246B0EE412AFC
:104490001AB99FEDCB0A05B000BDB0EE420A6946DD
:1044A00001A8FEF7CBFE92ED120A82ED130A92EDFF
:1044B000110A82ED120A9DED010A82ED090A9DEDB5
:1044C000010ADDED000A30EE600A82ED110A107873
:1044D000002875D192ED010AD2ED110A20EE200AD2
:1044E00082ED0B0A92ED0C0AD2ED020A92ED111A3E
:1044F00000EE810A82ED0C0A92ED0F0A82ED100A9D
:1045000092ED0E0A82ED0F0A92ED110AD2ED120A17
:1045100030EE600A82ED0E0A92ED030AD2ED0E0A29
:1045200020EE200A82ED0D0A92ED0C0AD2ED070A68
:10453000B4EEE00AF1EE10FA04DD92ED070A82ED26
:104540000C0A10E092ED0C0AD2ED070AF1EE600AB7
:10455000B4EEE00AF1EE10FA05D292ED070AB1EEE0
:10456000400A82ED0C0A92ED0B0AD2ED0C0A30EEF5
:10457000200AD2ED0D0A30EE200A82ED0A0A92EDF1
:104580000A0AD2ED060AB4EEE00AF1EE10FA04DDF2
:1045900092ED060A82ED0A0A0EE192ED0A0AD2EDC8
:1045A000060AF1EE600AB4EEE00AF1EE10FAF3D278
:1045B00092ED060AB1EE400A82ED0A0AFCE0FFE73E
:1045C0001078012861D192ED110AD2ED120A30EE75
:1045D000600AD2ED010A20EE200A82ED0B0A92ED6C
:1045E000020AD2ED110A20EE200A82ED0C0A92EDA9
:1045F0000F0A82ED100A92ED0E0A82ED0F0A92ED7B
:10460000110AD2ED120AB0EE001A01EE600AD2EDE4
:10461000130A30EE200A82ED0E0A92ED030AD2ED63
:104620000E0A20EE200A82ED0D0A92ED0B0AD2ED61
:104630000C0A30EE200AD2ED0D0A30EE200AD2ED3F
:104640000A0A30EE200A82ED0A0A92ED0A0AD2ED39
:10465000060AB4EEE00AF1EE10FA04DD92ED060A65
:1046600082ED0A0AA8E092ED0A0AD2ED060AF1EEFE
:10467000600AB4EEE00AF1EE10FA05D292ED060AF5
:10468000B1EE400A82ED0A0A96E0107802287CD149
:1046900092ED110AB5EEC00AF1EE10FA02DD92EDCC
:1046A000110A03E092ED110AB1EE400AD2ED040ABC
:1046B000B4EEE00AF1EE10FA01DD002335E092EDF0
:1046C000110AB5EEC00AF1EE10FA02DD92ED110A00
:1046D00003E092ED110AB1EE400AD2ED050AB4EE04
:1046E000E00AF1EE10FA01D201231EE0D2ED040A35
:1046F00092ED110AB5EEC00AF1EE10FA02DD92ED6C
:10470000110A03E092ED110AB1EE400A30EEC00A40
:10471000D2ED040A92ED051A70EEC10A80EE201A5D
:10472000BCEEC10A10EE100AC3B292ED0C0AD2ED33
:10473000020A92ED111A00EE810A82ED0C0A92ED46
:10474000010AD2ED110A60EE200A92ED0C1A00EE79
:10475000103AF8EE401AB0EE600A01EE810AD2ED8E
:10476000110A92ED121A70EEC10A92ED031A01EECF
:10477000200A82ED0A0A92ED0A0AD2ED060AB4EE88
:10478000E00AF1EE10FA06DD00E015E092ED060A0F
:1047900082ED0A0A10E092ED0A0AD2ED060AF1EE65
:1047A000600AB4EEE00AF1EE10FA05D292ED060AC4
:1047B000B1EE400A82ED0A0A92ED0A0A6BE60000A9
:1047C0000000000000B97047017092ED000A80ED12
:1047D000010A92ED010A80ED020A92ED020A80EDD3
:1047E000030A92ED030A80ED070A92ED040A80EDB8
:1047F000060A9FED0D0A80ED100A80ED0F0A80ED8C
:104800000E0A9FED090A80ED0A0A80ED0D0A80ED7F
:104810000C0A80ED0B0A80ED130A80ED120A80ED80
:10482000110A00BFCFE700000000000080ED040A7D
:10483000C0ED050A7047000029B1064A126802431C
:10484000044B1A6004E0034A12688243014B1A6069
:10485000704700003038024029B1064A126802430E
:10486000044B1A6004E0034A12688243014B1A6049
:10487000704700004038024029B1064A12680243DE
:10488000044B1A6004E0034A12688243014B1A6029
:10489000704700002038024029B1064A12680243DE
:1048A000044B1A6004E0034A12688243014B1A6009
:1048B000704700004438024029B1064A126802439A
:1048C000044B1A6004E0034A12688243014B1A60E9
:1048D0007047000024380240F0B500210022002477
:1048E000022500260223324F3F6807F00C0121B158
:1048F000042905D0082937D105E02E4F076036E09E
:104900002D4F076033E02A4F3F1F3F68C7F38056A3
:10491000274F3F1F3F6807F03F036EB1264FB7FB9D
:10492000F3F7DFF88CC0ACF1040CDCF800C0CCF37A
:10493000881C07FB0CF40CE01E4FB7FBF3F7DFF805
:1049400070C0ACF1040CDCF800C0CCF3881C07FB91
:104950000CF4174F3F1F3F68C7F301477F1C7D00D2
:10496000B4FBF5F7076002E0124F076000BF00BF1D
:104970000F4F3F6807F0F0010909104F7A5C076894
:10498000D74047600A4F3F6807F4E051890A0B4F50
:104990007A5C4768D7408760054F3F6807F46041FD
:1049A000490B064F7A5C4768D740C760F0BD0000EE
:1049B000083802400024F400001BB7001400002057
:1049C000D0ED000A00EE101AB8EEC00A30EEC00AB0
:1049D000B5EEC00AF1EE10FA08DDD0ED000A00EEE7
:1049E000101AB8EEC00A30EEC00A09E0D0ED000A95
:1049F00000EE101AB8EEC00A30EEC00AB1EE400A5E
:104A0000F3EE040AB4EEE00AF1EE10FA27DDD0ED81
:104A1000000A00EE101AB8EEC00AF4EEC00AF1EE79
:104A200010FA08D290ED000AF2EE040A30EE200AE5
:104A300080ED000A46E0D0ED000A00EE101AB8EE54
:104A4000C00AF4EEC00AF1EE10FA3BDD90ED000A68
:104A5000F2EE0E0A30EE600A80ED000A32E0D0ED90
:104A6000000A00EE101AB8EEC00A30EEC00AB5EE29
:104A7000C00AF1EE10FA08DDD0ED000A00EE101ABF
:104A8000B8EEC00A30EEC00A09E0D0ED000A00EE30
:104A9000101AB8EEC00A30EEC00AB1EE400AF3EECA
:104AA000040AB4EEE00AF1EE10FA06D800EE101A8D
:104AB000B8EEC00A80ED000A04E019B99FED020AC1
:104AC00080ED000A704700000000000070B590B053
:104AD00004460E46154601214A48FFF7ADFE012166
:104AE0001020FFF7D9FE01211020FFF7E5FE00217D
:104AF0001020FFF7E1FE072211464348FEF778F940
:104B000080200E9002208DF83C0000208DF83E00A1
:104B100003208DF83D0000208DF83F000EA93A4893
:104B2000FEF71EF9394801F09DFC39480A90002033
:104B3000ADF82C00ADF82E004FF48060ADF83000D9
:104B40000420ADF832000020ADF834000AA92F4847
:104B500001F05CFD012240212C4801F079FC10217C
:104B60002A4801F051FC012240F22441274801F07B
:104B700028FD0121254801F05FFC25208DF83C002F
:104B800004208DF83D0000208DF83E0001208DF8B6
:104B90003F000FA8FFF75EFA1E48FDF7CBFD4FF070
:104BA000006001901948001D0290039400200490B9
:104BB000059506904FF480600790002008900990BA
:104BC0004FF480700A904FF440300B9000200C900E
:104BD0000D900E900F9001A90E48FDF7C7FE002220
:104BE00031460C48FDF75DFE01210A48FDF74EFEF7
:104BF00000210848FDF792FD01210648FDF78EFDD2
:104C000010B070BD020040000004024000100140DE
:104C1000A08601004064024010B50020AB49087036
:104C200017E0AA48007800EB800101EBC000A8491A
:104C300008440079C00938B10020A6490880A64977
:104C40000880A649087010BDA0480078401C9F4904
:104C500008709E4800780528E3DBA048007878B902
:104C60009D480088B0F5FA6F0ADD08F05BF99C49B1
:104C700008600120994908700020974908803BE0AE
:104C800096480078022811D193480088B0F5FA6F51
:104C90000CDD0020914908708F4908808C48407CC9
:104CA00020F0800080308A49487425E08B480078E5
:104CB000032821D188480088B0F5FA6F1CDD002058
:104CC00086490870844908808148807F20F08000F0
:104CD00080307F49887703F025FFBDEEC00A10EED3
:104CE000100A0A3040B27F494870084690F9010026
:104CF0002D2801DD2D2048707B480068B0F90000A8
:104D000010F5167F27DA78480068B0F9020010F530
:104D1000167F20DA74480068B0F90400B0F5167FF9
:104D200019DD71480068B0F9060010F5167F12DA37
:104D30006D480068807A02280DD16B480068C07AFF
:104D4000022808D16548007828B963480088401CCB
:104D50006149088066E064480068B0F90000B0F579
:104D6000167F2ADD60480068B0F90200B0F5167FB2
:104D700023DD5D480068B0F9040010F5167F1CDAE9
:104D800059480068B0F90600B0F5167F15DD5648A1
:104D90000068807A022810D153480068C07A02283F
:104DA0000BD14E48007840B14B480088401C4A491E
:104DB000088002204949087034E04B480068B0F987
:104DC0000000B0F5167F2ADD47480068B0F9020000
:104DD00010F5167F23DA44480068B0F9040010F596
:104DE000167F1CDA40480068B0F9060010F5167FFF
:104DF00015DA3D480068807A022810D13A480068E8
:104E0000C07A02280BD13548007840B1324800887A
:104E1000401C3149088003203049087002E000201E
:104E20002D49088008F07EF830490860084600687F
:104E30002B490968401A44F62061884203D90020B2
:104E400026490870FFE62948006825490968401A84
:104E500042F2107188420AD92148006838B11F48CF
:104E6000007820B149001F2002F092FF10E01F4897
:104E700000681B490968401A0AD01948006838B10F
:104E80001648007820B142F210715F2002F080FFD6
:104E90001248007820B10F480088401C0D49088056
:104EA0000C480088B0F5C87F05DD0C48007810B1CB
:104EB00000200849088007480088C82804DD074802
:104EC000007808B102F05CFF00BFBCE6A50200203C
:104ED00080140220AC020020AE020020B0020020AC
:104EE000A80200206802002064020020A002002026
:104EF00010B50021014801F09FFA10BD00100140DB
:104F000000B101B970470278437842EA0322C2F344
:104F10000A020A804278D210837842EA4312C2F32E
:104F20000A024A8082789211C37842EA83020379A6
:104F300042EA8322C2F30A028A800279521043793C
:104F400042EAC312C2F30A02CA804279C2F30112D2
:104F50008A72427912119308CB728279C37942EA3C
:104F6000032212B28A81027A437A42EA032213B2FE
:104F700001F10C02CB81827AC37A42EA032213B296
:104F800001F10C020B82037B8B74437BCB74827B1D
:104F9000C37B42EA03228A82027C437C42EA0322E8
:104FA00012B20A810A88A2F5806212B20A804A8887
:104FB000A2F5806212B24A808A88A2F5806212B29B
:104FC0008A80CA88A2F5806212B2CA800A89A2F5D4
:104FD000806212B20A8100BF94E7000000B587B07A
:104FE00001211020FFF728FC01214803FFF754FCA2
:104FF0004FF48350059002208DF8180000208DF8A2
:105000001A0003208DF8190001208DF81B0005A956
:105010001F48FDF7A5FE052211461D48FDF7E8FED5
:10502000052206211A48FDF7E3FE05220C21184847
:10503000FDF7DEFE01214803FFF73EFC00214FF49F
:105040000050FFF739FC0020ADF800004FF48270EB
:10505000ADF802000020ADF80400ADF80600ADF890
:1050600008004FF40070ADF80A001020ADF80C00F5
:105070000020ADF80E000A20ADF810006946054882
:1050800000F05BF90121034800F034F907B000BDDE
:10509000001002400034014000B587B001212020FB
:1050A000FFF7CAFB01210805FFF7F6FB4FF460701C
:1050B000059002208DF8180000208DF81A000120BC
:1050C0008DF81B0003208DF8190005A92048FDF775
:1050D00047FE052207211E48FDF78AFE052208210A
:1050E0001B48FDF785FE052209211948FDF780FEC2
:1050F00001210805FFF7E0FB00214FF48010FFF7C6
:10510000DBFB0020ADF800004FF48270ADF8020028
:105110000020ADF804000220ADF806000120ADF833
:1051200008004002ADF80A003820ADF80C0000205D
:10513000ADF80E000720ADF810006946054800F0F4
:10514000FCF80121034800F0D5F807B000BD0000CD
:1051500000140240005001400A4A12884FF2C773FF
:105160001A40084B1A801A46128802431A801A46BF
:1051700012880A431A801A46128842F040021A80A6
:10518000704700000050014010B504460021184847
:10519000FDF7C4FA002116481830FDF7BFFA00BF2A
:1051A0001348FDF78AFB0028FAD100BF10481830D9
:1051B000FDF783FB0028F9D10E490D481830FDF7A3
:1051C00079FA0D490A48FDF775FA21460848FDF7B6
:1051D000F9FB214606481830FDF7F4FB012104488D
:1051E0001830FDF79BFA01210148FDF797FA10BD31
:1051F00070640240000C00203000002070B590B0B8
:1052000005460E46144601218805FFF715FB44208C
:105210008DF83C0005208DF83D0000208DF83E0003
:1052200001208DF83F000FA8FEF714FF2F48FDF76F
:1052300081FA00BF2D48FDF740FB0028FAD14FF05E
:10524000606000902A480190029600200390049428
:1052500005904FF480600690002007900890099018
:105260004FF440300A9000200B900C900D900E905F
:1052700069461E48FDF77AFB012210211B48FDF705
:1052800057FB00211948FDF749FA18481838FDF76F
:1052900051FA00BF15481838FDF70FFB0028F9D167
:1052A0004FF08060009012480190029540200390DA
:1052B0000494002005904FF4806006900020079031
:1052C000089009904FF480300A9000200B900C90C9
:1052D0000D900E90694605481838FDF747FB0021F0
:1052E00002481838FDF71AFA10B070BD8864024001
:1052F0000C50014021B1028842F04002028004E0DB
:1053000002884FF6BF731A40028070471AB1838833
:105310000B43838002E083888B438380704702467F
:10532000002013890B400BB1012000E000207047E2
:105330000146888970478181704710B50022028834
:1053400002F441520B884C8823438C882343CC8839
:1053500023430C8923434C8923438C892343CC89E1
:1053600023431A430280838B4FF2FF7423408383CD
:105370000B8A038210BD000030B500228B071C0F82
:105380000F2303FA04F20B4B8C1053F82430934391
:10539000084C8D1044F8253023468C1053F82430E7
:1053A0008C07240F00FA04F42343024C8D1044F8B8
:1053B000253030BD083801400CB500200190009028
:1053C0004148006840F480303F49086000BF3E48D3
:1053D000006800F4003000900198401C0190009893
:1053E00018B90198B0F5A04FF1D13748006800F422
:1053F000003010B10120009001E0002000900098E2
:10540000012860D130484030006840F080502E497B
:10541000403108602D48006840F440402B49086046
:1054200029480830006828490831086008460068A3
:1054300040F4004008600846006840F4A05008604E
:105440002348091F0860081F006840F08070091F8A
:10545000086000BF1C48006800F000700028F9D008
:105460001A48006840F480301849086000BF1748A7
:10547000406800F480300028F9D01448006840F4F7
:1054800000301249086000BF1048406800F4003046
:105490000028F9D040F205700E4908600A4808302B
:1054A000006820F0030008490831086008460068D9
:1054B00040F00200086000BF03480830006800F0B8
:1054C0000C000828F8D10CBD0038024000700040E4
:1054D000062D4008003C02408168898A01F4005191
:1054E00059B18168097D01F0100131B101210F4AE4
:1054F000126851730D4A126811720C490968497B90
:10550000012911D109490968097A01290CD1C17B06
:1055100009B9012100E00021C1730021034A12688A
:105520005173024A12681172704700005001002046
:105530008168097D01F0400111B10221817309E008
:105540008168097D01F0800111B10121817301E0C1
:1055500000218173704700008168C97C21B9154919
:10556000097809B1002141738168C97C31B11249C0
:10557000097809B9012100E0022141738168898A13
:1055800001F4804161B10D49098801F4804139B9C4
:105590000949097809B9012100E00021064A117082
:1055A0008168C97C034A11708168898A034A118025
:1055B00070470000AA010020AB010020AC010020D0
:1055C0008168898A01F4006119B101210C4A1268CD
:1055D000D1720B490968C97A01290FD18168898A7A
:1055E00001F4006151B90021054A1268D172017CB1
:1055F00011B90121017401E000210174704700001C
:1056000050010020042808D14FF0E021096941F041
:1056100004014FF0E022116107E04FF0E021096939
:1056200021F004014FF0E0221161704710B507F03E
:1056300069FC012801D007F0C1F810BD10B515486C
:10564000006840F47000134908601348006840F097
:1056500001001149086000200F49083108600E4818
:1056600000680E4908400C4908600D48091D086093
:10567000081F006820F48020091F086000200649E8
:105680000C310860FFF798FE4FF000600149803947
:10569000086010BD88ED00E000380240FFFFF6FE14
:1056A0001030002410B50121084800F0ABF860B1BB
:1056B0000121064800F088F8054802684068521C3D
:1056C00040F1000002490A60486010BD000400403B
:1056D0009800002030B58BB005460C460121022011
:1056E000FFF7BAF801210220FFF7A6F802220521F0
:1056F0002D48FDF77DFB01210220FFF7BDF80021B9
:105700000220FFF7B9F81D208DF8140005208DF850
:10571000150000208DF8160001208DF8170005A84F
:10572000FEF798FC681E0990601E80B2ADF820005C
:105730000020ADF82200ADF82800012211461B48D8
:1057400000F071F808A9194800F06EF920200690C1
:1057500002208DF81C0003208DF81D0000208DF81C
:105760001E0002208DF81F0006A90F48FDF7F8FA69
:105770006020ADF800000120ADF802000020ADF877
:105780000C006946094800F09FF80821074800F01E
:10579000EDF80121054800F00BF80121034800F065
:1057A00016F80BB030BD00000004024000040040B9
:1057B00021B1028842F08002028004E002884FF6A4
:1057C0007F731A4002807047CA430282704721B13A
:1057D000028842F00102028004E002884FF6FE7364
:1057E0001A400280704731B1B0F8442042F40042C0
:1057F000A0F8442005E0B0F84420C2F30E02A0F85F
:105800004420704730B50246002000230024158A4A
:1058100005EA0103958905EA010413B10CB10120E1
:1058200000E0002030BD1AB183890B43838102E080
:1058300083898B438381704770B500240022002345
:10584000058C4FF6FE7635400584028C8388048BE8
:105850004FF68F752C40B51E2C400D882C43751EBD
:105860002A408D892A434D882A43104DA84202D0F0
:105870000F4DA84213D14FF6F7752A40CD892A4320
:105880004FF6FB752A408D882A434FF6FF652B4063
:105890004FF6FF552B400D8A2B434D8A2B438380B7
:1058A00004838D684563028470BD000000000140E0
:1058B000000401400A460021018B4FF6F77319409E
:1058C000114301837047000070B5002400220023BB
:1058D000058C4FF6EF7635400584028C8388048B67
:1058E00048F6FF752C404FF6FF452C400D884FF6CB
:1058F000FF7606EA05252C434FF6DF752A408D8991
:1059000006EA05152A434D8806EA05152A43154D72
:10591000A84202D0144DA8421DD14FF67F752A40EF
:10592000CD894FF6FF7606EA05152A434FF6BF7577
:105930002A408D8806EA05152A434FF6FF352B408D
:105940004FF2FF752B400D8A06EA85052B434D8AE1
:1059500006EA85052B43838004838D688563028472
:1059600070BD000000000140000401400A46002113
:10597000018B4FF2FF7319404FF6FF7303EA0223C6
:10598000194301837047000070B5002200230024F2
:10599000058C4EF6FF7635400584038C8488828B17
:1059A00048F6FF752A404FF6FF452A400D884FF60E
:1059B000FF7606EA05252A434DF6FF752B408D89B3
:1059C00006EA05352B434D8806EA05352B430A4D7B
:1059D000A84202D0094DA84208D14BF6FF752C40D1
:1059E0000D8A4FF6FF7606EA85152C438480828364
:1059F0008D680564038470BD00000140000401400F
:105A00000A460021818B4FF2FF7319404FF6FF7356
:105A100003EA02231943818370474163704781631E
:105A2000704701647047000000220288184B9842BA
:105A30000ED0184B98420BD0B0F1804F08D0164BC7
:105A4000984205D0154B984202D0154B984204D18C
:105A50004FF68F731A404B881A43124B984207D067
:105A6000114B984204D04FF6FF431A400B891A435A
:105A700002804B68C3620B880385054B984202D0B5
:105A8000044B984201D18B7A0386012383827047AD
:105A900000000140000401400004004000080040F4
:105AA000000C004000100040001400400EB5012022
:105AB000FE49087087E2FD48007800287ED04FF448
:105AC0002F7040F25461FAA2FAA3CDE900210290AE
:105AD00002220121F94804F0DBF93323F74A40F2AE
